S0220000626C696E6B5F6B65726E656C5F6D69637269756D6F735F666732332E7333371A
S31508000000001000207D1200087912000879120008F5
S315080000107912000879120008791200087912000886
S315080000207912000879120008791200087912000876
S315080000307912000879120008836900087912000805
S315080000407912000879120008791200087912000856
S31508000050C50D0008791200087912000879120008FF
S315080000607912000879120008791200087912000836
S315080000707912000879120008791200087912000826
S315080000807912000879120008791200087912000816
S315080000907912000879120008711800087912000808
S315080000A079120008791200087912000879120008F6
S315080000B079120008791200087912000879120008E6
S315080000C079120008791200087912000879120008D6
S315080000D079120008791200087912000879120008C6
S315080000E079120008791200087912000879120008B6
S315080000F079120008117100087912000879120008AF
S3150800010079120008791200082103000879120008FC
S315080001107912000879120008791200087912000885
S315080001207912000879120008791200087912000875
S315080001307912000879120008791200087912000865
S315080001407912000879120008791200087912000855
S315080001507912000879120008B3800008791200089D
S315080001607912000879120008791200087912000835
S3150800017010B5054C237833B9044B13B1044800E095
S3150800018000BF0123237010BD70110020000000007D
S31508000190BC99000808B5034B1BB10349034800E0A6
S315080001A000BF08BD0000000074110020BC990008BB
S315080001B0A3F5803A704700BF174B002B08BF134BB7
S315080001C09D46FFF7F5FF00218B460F461348144A54
S315080001D0121A08F04FFD0E4B002B00D098470D4B16
S315080001E0002B00D098470020002104000D000D4880
S315080001F0002802D00C4800E000BF08F017FD2000D8
S31508000200290000F073FE08F0FDFC00BF000008009E
S3150800021000000000000000000010002070110020FF
S3150800022010DA00200000000000000000F0B5354D8F
S3150800023093B008AC0FCD0FC40FCD0FC495E80300DB
S3150800024001250026032784E803002F4C29462A2087
S31508000250CDE90366CDE9056607968DF80E708DF82B
S3150800026008508DF809608DF80A608DF80B6002F069
S315080002707FF929463A2002F07BF9204603F05AFF17
S3150800028002214FF4B06002F067FF0223324620468F
S315080002901E498DF8173003F0DDFF334632468DF8D8
S315080002A019000090194920468DF8237004F000F8CB
S315080002B0A523174A0A908DF830708DF809308DF805
S315080002C00850D2F82833204643F48033C2F828333E
S315080002D005A908AA04F028F802AA204603A903F0EB
S315080002E0D1FE0C4A04F500535A624FF48022A36AE1
S315080002F043F40073A362084BC3F884215A6013B011
S31508000300F0BD00BFA08C0008004000498096980008
S3150800031000C003408F330F8000E100E000000000BA
S31508000320F0B587B06E46184C184D21463046676AB8
S3150800033004F082F996E8030085E80300286808F0C7
S3150800034045F80DA3D3E9002308F0BAF80CA3D3E9BE
S31508000350002308F0DFF90E4B0022C3E90001022151
S3150800036002AB0C4805F0E2FB04F50054676207B0DF
S31508000370F0BD00BFAFF300806666666666660A4033
S315080003800000000000FEAF40004000498C1100202C
S3150800039098110020A011002008B5FFF747FF012299
S315080003A0014BDA6008BD00BF0040004908B50021CE
S315080003B02A2002F0DDF8BDE808400021352002F0C9
S315080003C0D7B800007FB5002202AB019302214FF493
S315080003D084730092034805F0C9F9034B186807B0FF
S315080003E05DF804FBA01100208C11002038B503F03D
S315080003F095F901210446084606F06EFF204603F0EB
S3150800040091F9FFF7C9FFFFF7DDFF0446084803F037
S3150800041091FEFFF7CBFF03F081F905460021012085
S3150800042006F05AFF284603F07DF9A0B238BD00BF92
S31508000430004000490821062000F08EB80021062059
S3150800044000F08AB81FB500226B460121024805F064
S315080004506DFB05B05DF804FBA01100201FB519B9A6
S315080004606A46034805F0B8FD05B05DF804FB00BF11
S31508000470B8AE002040F2FF73C340DB0710B5044650
S3150800048004D440F21341044801F0F8FD0120034B5F
S3150800049000FA04F41C6410BDC88C000800D00340A0
S315080004A040F2FF73C340DB0710B5044604D44FF48B
S315080004B07971044801F0E2FD0120034B00FA04F4C7
S315080004C01C6410BDC88C000800E0034000B51C4B36
S315080004D08FB05A6842F001025A601A69D007FCD5F3
S315080004E0042200231146032003F020FD04230122E1
S315080004F0092100200093032302F066F80AAB0222C2
S315080005000893002342F21071CDE906324FF47A724D
S31508000510CDE902210B4ACDE90433019214220A4996
S3150800052000920A480A4A05F0E1FE9DF828301BB1F8
S31508000530B321084801F0A2FD0FB05DF804FB00BF27
S3150800054000000240C81100202C8D000808AE0020CB
S3150800055039060008368D00080B4600B5124989B0E1
S315080005604B70124B087012480093124A0223006817
S3150800057001F062FD20B14FF4E0710F4801F07EFDF5
S31508000580002204AB0093114603AB0C4805F04AFC65
S315080005909DF8103023B140F2C911074801F06EFDED
S315080005A009B05DF804FB00BFB4AE00205D04000886
S315080005B024100020C5110020368D0008B8AE002092
S315080005C008B505210820FFF7C7FF07210820FFF710
S315080005D0C3FF04210820FFF7BFFF11210A20FFF7F8
S315080005E0BBFF00210846FFF7B7FF00210420FFF7ED
S315080005F0B3FF00210620FFF7AFFF00210C20FFF70D
S31508000600ABFF00210E20FFF7A7FFBDE80840002139
S315080006101020FFF7A1BF07F0B1BB07F077BD052093
S31508000620FFF728BF0520FFF73BBF0620FFF722BFCD
S315080006300620FFF735BF000080B58AB0002235498D
S31508000640354802AB05F064FD06AE3449344800224D
S3150800065002AB05F0FFF931464FF47A7007F0AAFBB2
S3150800066040B901232F4ACDE90003069903462E48CF
S3150800067007F009FBFFF7A4FFFFF7DAFF01212420A3
S3150800068001F076FF264F294D00244FF48473224645
S31508000690012138460196009405F068F82B78092B55
S315080006A007D9FFF7C7FE0A2007F068FBFFF7C6FE63
S315080006B02C702B781E4C01332B702378022B11D10A
S315080006C040F6485000F096FB2378042B06D16420A8
S315080006D007F054FB00F0ECFB00232370237801336A
S315080006E02370D1E7032BEFD100F0E2FB082007F0D7
S315080006F045FBFFF79AFF00F01DF8232000F094FA57
S3150800070000F02BF8FFF794FF502007F037FB40F670
S315080007101C40D7E7458D0008B8AE0020588D000864
S31508000720A01100204504000898AE0020C71100203B
S31508000730C411002008B501210A20FFF70DFF832107
S315080007400C20FFF709FF00211020FFF705FFBDE881
S31508000750084074210E20FFF7FFBE002108B50846A1
S31508000760FFF7FAFE00210220FFF7F6FE002104201B
S31508000770FFF7F2FE00210620FFF7EEFE042108200F
S31508000780FFF7EAFE11210A20FFF7E6FE00210C20FA
S31508000790FFF7E2FE00210E20FFF7DEFEBDE8084067
S315080007A000211020FFF7D8BE13B500240A20ADF8A3
S315080007B00440ADF80640FFF730FF03210420FFF799
S315080007C0CBFE9620FFF729FFFFF729FF0A20FFF740
S315080007D024FFFFF727FF7D20FFF71FFF2046FFF7BF
S315080007E005FE80B21121ADF804000420FFF7B4FE1F
S315080007F00A20FFF712FF0B210420FFF7ADFE0A209F
S31508000800FFF70BFFFFF70BFF0A20FFF706FFFFF7BF
S3150800081009FF7D20FFF701FF2046FFF7E7FD80B2BD
S31508000820ADF80600BDF80620BDF8043092B29BB2BA
S315080008309A4284BFBDF80640BDF804304FF0010067
S3150800084084BFE41AA4B2FFF7E6FE00210420FFF7EE
S3150800085083FE0120FFF7DFFE0020FFF7C7FD2046D5
S3150800086002B010BD37B500250A20ADF80450ADF822
S315080008700650FFF7D2FE03210420FFF76DFE9620EF
S31508000880FFF7CBFEFFF7CBFE0A20FFF7C6FEFFF702
S31508000890C9FE7D20FFF7C1FE0120FFF7A7FD80B244
S315080008A01121ADF804000420FFF756FE0A20FFF7D1
S315080008B0B4FE13210420FFF74FFE0A20FFF7ADFE12
S315080008C0FFF7ADFE0A20FFF7A8FEFFF7ABFE7D2077
S315080008D0FFF7A3FE0120FFF789FD80B2ADF80600F9
S315080008E0BDF80640BDF804300120E41AA4B2FFF7AB
S315080008F092FE29460420FFF72FFE204603B030BD9E
S3150800090008B50A20FFF789FE03210420FFF724FE15
S315080009109620FFF782FEFFF782FE0520FFF77DFE91
S31508000920FFF780FEFA20FFF778FE0020FFF75EFD4E
S3150800093001210420FFF710FE0A20FFF76EFE0B21A7
S315080009400420FFF709FE0A20FFF767FEFFF767FE98
S315080009500520FFF762FEFFF765FEFA20FFF75DFE4A
S315080009600020FFF743FD0120FFF755FE0021042074
S31508000970FFF7F2FD0120FFF74EFEBDE80840002014
S31508000980FFF734BD08B50A20FFF747FE0321042008
S31508000990FFF7E2FD9620FFF740FEFFF740FE052031
S315080009A0FFF73BFEFFF73EFEFA20FFF736FE012073
S315080009B0FFF71CFD11210420FFF7CEFD0A20FFF7E3
S315080009C02CFE13210420FFF7C7FD0A20FFF725FE9A
S315080009D0FFF725FE0520FFF720FEFFF723FEFA2086
S315080009E0FFF71BFE0120FFF701FD0120FFF713FEAD
S315080009F000210420FFF7B0FD0120FFF70CFEBDE83B
S31508000A0008400120FFF7F2BC08B50A20FFF705FEEB
S31508000A1003210420FFF7A0FD9620FFF7FEFDFFF750
S31508000A20FEFD0520FFF7F9FDFFF7FCFD40F2771004
S31508000A30FFF7F3FD0020FFF7D9FC01210420FFF79B
S31508000A408BFD0A20FFF7E9FD0B210420FFF784FD43
S31508000A500A20FFF7E2FDFFF7E2FD0520FFF7DDFDBF
S31508000A60FFF7E0FD40F27710FFF7D7FD0020FFF70C
S31508000A70BDFC0120FFF7CFFD00210420FFF76CFD28
S31508000A800120FFF7C8FDBDE808400020FFF7AEBC0F
S31508000A9008B50A20FFF7C1FD03210420FFF75CFD16
S31508000AA09620FFF7BAFDFFF7BAFD0520FFF7B5FD5B
S31508000AB0FFF7B8FD40F27710FFF7AFFD0120FFF70B
S31508000AC095FC11210420FFF747FD0A20FFF7A5FD35
S31508000AD013210420FFF740FD0A20FFF79EFDFFF7CC
S31508000AE09EFD0520FFF799FDFFF79CFD40F2771064
S31508000AF0FFF793FD0120FFF779FC0120FFF78BFD37
S31508000B0000210420FFF728FD0120FFF784FDBDE83A
S31508000B1008400120FFF76ABC08B50A20FFF77DFDEB
S31508000B2003210420FFF718FD9620FFF776FDFFF74F
S31508000B3076FD0520FFF771FDFFF774FD4FF4FA7097
S31508000B40FFF76BFD0020FFF751FC01210420FFF79A
S31508000B5003FD0A20FFF761FD0B210420FFF7FCFCCB
S31508000B600A20FFF75AFDFFF75AFD0520FFF755FD46
S31508000B70FFF758FD4FF4FA70FFF74FFD0020FFF717
S31508000B8035FC0120FFF747FD00210420FFF7E4FCB0
S31508000B900120FFF740FDBDE808400020FFF726BC0E
S31508000BA008B50A20FFF739FD03210420FFF7D4FC16
S31508000BB09620FFF732FDFFF732FD0520FFF72DFDE2
S31508000BC0FFF730FD4FF4FA70FFF727FD0120FFF716
S31508000BD00DFC11210420FFF7BFFC0A20FFF71DFDBD
S31508000BE013210420FFF7B8FC0A20FFF716FDFFF7CC
S31508000BF016FD0520FFF711FDFFF714FD4FF4FA70F7
S31508000C00FFF70BFD0120FFF7F1FB0120FFF703FDBE
S31508000C1000210420FFF7A0FC0120FFF7FCFCBDE83B
S31508000C2008400120FFF7E2BB10B504460521022063
S31508000C30FFF792FC0820FFF7EEFC00210220FFF7E1
S31508000C408BFC02210020FFF787FC3D2C00F2B180C7
S31508000C50DFE804F01F27292B2D2FAFAF31393B3D95
S31508000C603F41AFAF434B4D4F5153AFAF555D5F61FA
S31508000C706365AFAF676F71737577AFAF798183853A
S31508000C808789AFAF8B939597999BAFAF9DA5A7A97A
S31508000C90ABAD80210C20FFF75FFCBDE81040FFF7E5
S31508000CA083BD8121F6E78221F4E78321F2E78421D7
S31508000CB0F0E78521EEE790210C20FFF74DFCBDE813
S31508000CC01040FFF71DBE9121F6E79221F4E7932124
S31508000CD0F2E79421F0E79521EEE7A0210C20FFF733
S31508000CE03BFCBDE81040FFF78FBEA121F6E7A22125
S31508000CF0F4E7A321F2E7A421F0E7A521EEE7B02166
S31508000D000C20FFF729FCBDE81040FFF705BFB1210D
S31508000D10F6E7B221F4E7B321F2E7B421F0E7B5210B
S31508000D20EEE780210C20FFF717FCBDE81040FFF71F
S31508000D3099BD8121F6E78221F4E78321F2E7842130
S31508000D40F0E78521EEE790210C20FFF705FCBDE8CA
S31508000D501040FFF717BE9121F6E79221F4E7932199
S31508000D60F2E79421F0E79521EEE7A0210C20FFF7A2
S31508000D70F3FBBDE81040FFF78BBEA121F6E7A221E1
S31508000D80F4E7A321F2E7A421F0E7A521EEE7B021D5
S31508000D900C20FFF7E1FBBDE81040FFF701BFB121CA
S31508000DA0F6E7B221F4E7B321F2E7B421F0E7B5217B
S31508000DB0EEE710BD08B5FFF789FBBDE8084000F06F
S31508000DC09FB80000084A1378013B13F0FF0301BFE0
S31508000DD0022313702022054B14BF13701A640122D4
S31508000DE0034B5A61704700BF0010002000F0034013
S31508000DF000A004402DE9F8434FF00109002702231B
S31508000E00264C274DDFF8A4802146064628466780EB
S31508000E10277088F8063088F8049003F041FD4FF4EF
S31508000E20A022204B3946C3F8F8962846C3F8FC2674
S31508000E30424603F091FD242001F098FC648806FAE6
S31508000E4009F64C44B0FBF4F4B4FBF6F42B6B013C06
S31508000E50DB0704D44FF48F61134801F00FF9022120
S31508000E60EC610846FFF778FB14210A20FFF774FBAC
S31508000E7009211020FFF770FB01210620FFF76CFB04
S31508000E8002F04CFC01210446084606F025FA2046E5
S31508000E9002F048FC0123EB60BDE8F883021000204D
S31508000EA00080044000C00340688D0008DCAE0020C6
S31508000EB002230C4810B5C36003F0AEFD0A4AD2F807
S31508000EC0F83623F00103C2F8F83602F027FC044688
S31508000ED00021012006F000FA2046BDE8104002F085
S31508000EE021BC00BF0080044000C0034008B507F0DD
S31508000EF0FDF8FFF75FFF07F006F9002008BD0000C0
S31508000F0010B50121282001F033FB002401231449E0
S31508000F1014480C704C800C714C720B7303F0C0FCB7
S31508000F20282001F023FC4FF6FF720F4B18600F4B79
S31508000F301A60024608A1D1E90001234607F0D2FC4F
S31508000F404FF480720A4B18600A4BC3F88020BFF32F
S31508000F504F8FBFF36F8F10BDC0BD30420F0000002A
S31508000F601010002000800540ECAE0020F4AE0020F2
S31508000F70F0AE002000E100E000F0BEB808B503219D
S31508000F80802002F0E9F803214FF4806002F0E4F8CB
S31508000F9009214FF4C06002F0DFF809214FF4F06030
S31508000FA002F0DAF809213E2002F0D6F809212D20B0
S31508000FB002F0D2F80921512002F0CEF8002008BD2F
S31508000FC010B501213A2001F0D3FA0023042218466D
S31508000FD0072102F0ABFF002304221846062102F07F
S31508000FE0A5FFBDE81040002304220521184602F09B
S31508000FF09DBF00004FF480302649274A4B6E10B536
S315080010005066486E4FF000414AF6CD345166234982
S3150800101003F480334A6C0C6402F001024C6BE4075B
S31508001020FCD401241E494C601C4C216BC907FCD515
S315080010301C49D1F8081689075EBF4FF48024184961
S31508001040CC6512B1154A184911640028A2BF4FF0A1
S315080010500041164A51661BB94FF48032134B5A6643
S3150800106005F048FE00F05CF805F0C8FD05F060FEE6
S3150800107005F0EAFD05F024FEFFF780FF05F0D2FD36
S3150800108000F043F803F054FE03F062FEBDE810409A
S3150800109006F0F2B800800040009000400040094089
S315080010A00060094000C007403254FFFF00A000401E
S315080010B003F06ABE08B5FFF783FF00F00DF8BDE838
S315080010C0084000F00FB808B506F008FDBDE808406E
S315080010D005F030BE70477047014800F0A7B900BF59
S315080010E0D08D0008024B0349186800F0AFBD00BF59
S315080010F0241000202810002008B5002304221946D1
S31508001100012002F013FF002008BD08B501213A208E
S3150800111001F02EFAFFF730FFBDE8084000F014B8DA
S3150800112001213A2001F024BA1022024BC3F8A0206C
S31508001130704700BF00D003401022024BC3F8A0201E
S31508001140704700BF00E0034070B5464D8AB005AC55
S315080011500FCD0FC42B681222236001240021684694
S3150800116007F088FD21463A208DF804408DF8104096
S3150800117001F0FEF92146572001F0FAF94FF4807381
S31508001180394EADF80430394B304605A90793CDF8EA
S3150800119024D002F08FFD234621460422022002F0C5
S315080011A0C5FE022122460846002302F0BFFE23465A
S315080011B004220321022002F0B9FE04222346114626
S315080011C0022002F0B3FE2A4D2A4B4FF44870C5F8A8
S315080011D0F8344FF00213C5F8F434A3F58033C5F894
S315080011E0FC341C23C5F8E43406F090FF1420FFF7FE
S315080011F0A3FF06F08BFF2320FFF796FF06F086FF76
S31508001200B9213046FFF798FF02F064FCFFF78CFF20
S31508001210002321461A46022002F088FE00230221F6
S315080012201A46084602F082FE2346002203210220BF
S3150800123002F07CFE234600220421022002F076FEFC
S31508001240304602F0E5FB00215720C5F8F814C5F82A
S31508001250F414C5F8FC14C5F8E41401F089F90AB0C9
S3150800126070BD00BFE88D000800000A40E0707200FB
S3150800127000C0034002000300FEE7000008B500F0C6
S3150800128013F8064B064A07498B4201D3FEF794FF2B
S3150800129052F8040B43F8040BF6E700BF00100020D1
S315080012A0C499000870110020044B054A9A60D3F8C7
S315080012B0882042F47002C3F88820704700ED00E0E9
S315080012C000000008014B1868704700BF4C1000204A
S315080012D0084B1B6F03F00703022B04D0032B05D022
S315080012E0012B05D0FEE7044B18687047034BFBE754
S315080012F003487047008000404C1000205010002022
S31508001300002D310108B5FFF7E3FF054B1B6FC3F34B
S3150800131003330133B0FBF3F0024B186008BD00BF7E
S3150800132000800040481000200048704700B4C404FC
S31508001330014B1868704700BF50100020054B186015
S31508001340054B1B6F03F00703032B01D1FFF7DABF29
S31508001350704700BF501000200080004000207047F2
S3150800136000487047002D31014FF094439868C0F348
S3150800137004400C2822D8DFE800F009212121212188
S31508001380071719211B1D1F000F4870479B6803F09C
S315080013904073B3F1807F13D0B3F1007F12D00B4AAC
S315080013A0002B08BF10467047094870470948704720
S315080013B00948704709487047094870470020704730
S315080013C00848704708487047405DC60000093D0058
S315080013D00024F400C0EA210180BA8C010048E80123
S315080013E0005A620280841E0040420F004FF40040FB
S315080013F070474FF47A707047014B1868704700BF02
S3150800140054100020002303607047000038B50446D6
S315080014100D4601B118B93821034800F02FFE23689C
S315080014202B60256038BD00BFFC8D0008D0E900039D
S315080014301847000038B50D460446B0B1012817D044
S31508001440022817D0032803D13F23EB40DB0704D437
S315080014504FF47971094800F011FE30200121444308
S31508001460074B01FA05F51D5138BD40F2FF73ECE74D
S315080014700F23EAE740F2FF33E7E700BFC88C00080E
S3150800148040E0034038B50D460446B0B1012817D0F0
S31508001490022817D0032803D13F23EB40DB0704D4E7
S315080014A040F21341094800F0E9FD30200121444388
S315080014B0074B01FA05F51D5138BD40F2FF73ECE7FD
S315080014C00F23EAE740F2FF33E7E700BFC88C0008BE
S315080014D040D0034010B5044601213A2001F048F8EF
S315080014E0A3782078B3FA83F3042261785B0902F0C3
S315080014F01DFD002010BD034659789B7800780BB96E
S31508001500FFF798BFFFF7BEBF034659789B78007868
S315080015100BB9FFF7B7BFFFF78DBF000038B50478E2
S315080015204578ACB1012C16D0022C16D0032C03D169
S315080015303F23EB40DB0704D440F22E41084800F075
S315080015409DFD302301225C43064BAA401A5138BD43
S3150800155040F2FF73EDE70F23EBE740F2FF33E8E7CE
S31508001560C88C000840F0034070B5047805464678F4
S31508001570F4B1012C1FD0022C1FD0032C03D13F221B
S31508001580F240D30704D440F2FE310D4800F076FD50
S3150800159030235C4303F18043103403F57033E3587A
S315080015A0F34003F00100AB780BB980F0010070BD81
S315080015B040F2FF72E4E70F22E2E740F2FF32DFE78C
S315080015C0C88C00082DE9F04F9A46564B85B01B7813
S315080015D006460F461546DDF83C909DF844B0DDF802
S315080015E05080002B00F08D80072A00F28C800E9B1D
S315080015F0002B00F08880B9F1000F00F08480129B60
S31508001600B3F5006F7FDC012802D1109B002B7AD03E
S31508001610454B03EB05131B7B002B76D0434C10225E
S315080016200021684607F026FB04EB45141022002F1C
S3150800163059D13946204607F01DFB43F21003638053
S31508001640BBF1000F03D1E37843F00303E370374A95
S315080016500E9B02EB451CCCE90193129B6901013BE9
S31508001660C3F30A009DF84C30012E03F003034FEA3A
S31508001670836343EA001E53582D48CDF800A000EABC
S3150800168003004EEA0003535041D113230CF1100E08
S31508001690CCF80C309CE80F008EE80F006FF00301C1
S315080016A0DCF81C20109B61F39F02012FCCF81C204C
S315080016B0CCF8143003D1CCF81890CCF804300027B5
S315080016C0194A290102EB051342F80180159A2846A2
S315080016D05A60694622469F605E7302F0FFFF3846ED
S315080016E005B0BDE8F08F0021204607F0C3FA4FF495
S315080016F044736380BBF1000FA9D1E37843F030034C
S31508001700A4E70C48ECE70C48EAE70C48E8E7B8F128
S31508001710000FD4D19CF8023068F304138CF8023019
S31508001720CDE700BFF4B0002074AF0020F4AF00206E
S315080017300F80FFF3028000F0018000F0078000F0C0
S3150800174038B5124B05461B78DBB1E0B101F0EDFF69
S315080017500F4A00231146147B54B92B6001251A0140
S3150800176001EB03131D738C5001F0E5FF204638BDCD
S315080017700133082B02F11002EDD101F0DCFF054818
S31508001780F5E70548F3E70548F1E700BFF4B00020A0
S3150800179074AF0020048000F0028000F0018000F0A1
S315080017A0154B13B51868002301908DF8043001F025
S315080017B0BCFF124B1C7824B101F0BDFF104802B0E3
S315080017C010BD01221A7001F0B6FF0E4B01A81C735A
S315080017D01C7783F82C4083F83C4083F84C4083F808
S315080017E05C4083F86C4083F87C4008238DF807300A
S315080017F002F02AFF2046E2E7628E0008F4B00020D5
S31508001800038000F074AF002010B588B00E9C0092DB
S3150800181007940D9C024606949DF8304005940B9C4F
S3150800182004949DF8284003940024CDE90134204609
S315080018300B462146FFF7C6FE08B010BD10B588B0A6
S315080018400E9C009207940D9C024606949DF8304023
S3150800185005940B9C04949DF8284003940024CDE934
S31508001860013420460B460121FFF7ACFE08B010BD37
S315080018702DE9F843174B1F6D5B6D1F4000D5FEE73A
S3150800188001260025144CDFF85480DFF854903742BF
S3150800189017D02368C8F850609BB1A1682846013163
S315080018A06268A1609847637B012B0AD148B909EBA6
S315080018B045131A7B60F341021A731A7F60F34102DB
S315080018C01A770135082D4FEA460604F11004DED1D1
S315080018D0BDE8F8830000044074AF002000200440EF
S315080018E0F4AF00204FF480738363836C9A01FCD4B1
S315080018F0836C1B0600D47047C36BF9E72DE9F341E7
S3150800190004460B46E27B94F80BC0007A677AA57A00
S31508001910217B94F80D80A67B84F844C084F8452082
S31508001920002B3DD0237F0BBB0422019302F0FEFA65
S31508001930019B01224146384602F0F8FAA27F314659
S31508001940012A8CBF0123019B0422284602F0EEFAE5
S31508001950E37F3BB90123042294F8451094F8440028
S3150800196002F0E4FA002002B0BDE8F081002301226B
S3150800197002F0DCFA002304224146384602F0D6FA81
S31508001980A37F0222012B94BF002301233146284658
S3150800199002F0CCFAE37F002BE4D101230222DBE735
S315080019A00222019302F0C2FA019B022241463846FE
S315080019B002F0BCFAA27F3146012A8CBF0123019BA3
S315080019C00222284602F0B2FAE37F002BCAD11A4651
S315080019D0C2E7000038B50546B0B1B9B1B2B1B2F543
S315080019E0006F13DC01F0A1FE95F84C3003F0FF04FC
S315080019F01BB101F0A0FE064838BD012385F84C301E
S31508001A0001F099FE2046F7E70248F5E70248F3E7B2
S31508001A10032000F0012000F0022000F0436D70B5AD
S31508001A20002B054603DCB7210C4800F027FB01F024
S31508001A307CFE6C6D0646013C6C654CB901F06EFE89
S31508001A4005462146012005F047FC284601F06AFEB6
S31508001A503046BDE8704001F06EBE00BF668E0008D5
S31508001A6038B5144601F061FE0023A36484F84C30AF
S31508001A702364237F0546012B03D104F15C0006F09D
S31508001A8081F8636B1BB100212046E26B9847284614
S31508001A9001F051FE2046FFF7C1FF012038BD70B5A1
S31508001AA0044601F042FE636D05464BB901F036FE69
S31508001AB001210646084605F00FFC304601F032FEC5
S31508001AC0636D284601336365BDE8704001F033BE97
S31508001AD02DE9F04F1E46002387B080F85030109B42
S31508001AE00446436390F8583089469246C663002BED
S31508001AF038D14FF4406305686B614369092B03D9F4
S31508001B0005F12C08443506E00BBF05F1200805F160
S31508001B10240838353C3567694FF0010B082F94BF08
S31508001B20002701272046FFF7BAFF134B5246CDE997
S31508001B300273216B4346A06A04940196CDF800B05F
S31508001B40FFF77CFE00232A46CDE90333CDE901677A
S31508001B504B46E16A606ACDF800B0FFF755FE07B05C
S31508001B60BDE8F08F012BFAD10068FFF7BBFE2568A8
S31508001B7005F13C08C6E700BF611A000801292DE9EE
S31508001B80F8432CD82A4B2B4F1C68DFF8B880DFF8AF
S31508001B90B890783C14F1780F01D1BDE8F88326682F
S31508001BA00521304601F05CFF234B9E4213D0234BA0
S31508001BB09E4212D0224D03F580439E4208BF4D46F1
S31508001BC001F0ACFD2B6843F018032B6001F0AAFD69
S31508001BD0A46F783CDEE73D46F2E74546F0E7023972
S31508001BE00129DAD8124B134E1C68164FDFF85880B5
S31508001BF0783C14F1780FD0D023680F4A934213D05B
S31508001C000E4A934212D00E4D02F58042934208BF07
S31508001C10454601F083FD2B6823F018032B6001F07D
S31508001C2081FDA46F783CE4E73546F2E73D46F0E7E8
S31508001C30F8B00020C4C403400000014B00000A406D
S31508001C40A4C40340E4C4034004C503402DE9F0439B
S31508001C500B688D4A054693420C468DB007D08B4AD1
S31508001C60934204D002F58042934240F0F4804FF04C
S31508001C7001080DF10409864E12220021484606AFD6
S31508001C8006F0F8FF0FCE8DF808800FC78DF8148080
S31508001C90CDF82890002D00F0DC8000267C2200215B
S31508001CA0284606F0E7FF2368774A6E65934240F0B8
S31508001CB08D805622A5F84E204FF48012DFF808C210
S31508001CC0C5E90BC22B600123A44685F858302F1DA1
S31508001CD0BCE80F000FC79CE80F0087E80F00637E7B
S31508001CE0012B08BF8DF80930A37E002B40F09980A0
S31508001CF08DF82630237E0121012B03BF00238DF8A2
S31508001D0025304FF47A73E3683A20089300F030FCE4
S31508001D100121B5F84E0000F02BFC2369DA1F092AC9
S31508001D2064D8063B8DF82430A36923F47F0323F493
S31508001D307F4313B901238DF80830206806A901F0FE
S31508001D40B9FF544BE07E06F1260103EB4113002848
S31508001D5072D11D225A60237A227942EA03424D4BF8
S31508001D6003EB4616C6F8DC24677A627942EA07422C
S31508001D70C6F8D424A77AA27942EA0742C6F8D82434
S31508001D8030B9E07AE27903EB411342EA00429A60FD
S31508001D9001212846FFF7B2FD044640BB01F0C5FC09
S31508001DA03D4B1A78002A49D101221A7001F0C3FC6A
S31508001DB005F094FEFFF7F4FC002105F12400FFF777
S31508001DC0BFFC014600283CD0344C10E02F4A934211
S31508001DD009D15722A5F84E204FF48812304F4646AF
S31508001DE0C5E90B726EE72F4A934210D02E4C2F4B43
S31508001DF01B681BB92E492F4805F00EFB2B4805F129
S31508001E007801FFF703FB20460DB0BDE8F0835822A2
S31508001E10A5F84E204FF49012274EC5E90B6202260C
S31508001E2050E7012B01D1042362E7022B3FF460AF90
S31508001E30032BDBD106235BE71C228BE701F07BFC37
S31508001E40B8E705F12800FFF77BFC04460028CED04A
S31508001E50BAE71A4CCBE71A4F06AE0FCF0FC697E86C
S31508001E60030086E80300002D00F0D9807C220021BB
S31508001E70284606F0FFFE0023226812496B658A424F
S31508001E8024D0094CBFE700BF0000014B00000A4000
S31508001E90D08E000800C0034004B10020092000F0DD
S31508001EA00100110000400A40022000F0F8B00020AE
S31508001EB058100020FCB0002001001200012000F09C
S31508001EC0E48E000800C005400100100029212746BD
S31508001ED0A5F84E104FF48021524885F858302E1D2B
S31508001EE0C5E90B012A600FCF0FC697E80F0086E8F1
S31508001EF00F00637E012B08BF8DF82630A37E002BCA
S31508001F0067D1ADF82830237E0121012B03BF0023BA
S31508001F108DF825304FF47A73E3683A20089300F079
S31508001F2027FB0121B5F84E0000F022FB23691A1F92
S31508001F300C2AA6D8033B206806A98DF8243002F09F
S31508001F400BFEA36923F47F0323F47F4323B92A688E
S31508001F50936843F480339360237A2079617940EA61
S31508001F600340637AA27941EA0341E67EA37A42EA0C
S31508001F7003422D4B002E3CD11D26C3F89867C3F8A3
S31508001F80B007C3F8A817C3F8AC27E17AE27942EAA2
S31508001F900142C3F89C2701212846FFF7AFFC0446F7
S31508001FA000287FF430AF01F0C0FB204B1A7852BBF3
S31508001FB001221A7001F0BFFB05F090FDFFF7F0FB58
S31508001FC0002105F12400FFF7BBFB0146F0B1184CD0
S31508001FD019E7012B02D14FF4007392E7022B02D1C5
S31508001FE04FF480738DE7032B7FF44BAF4FF44073A8
S31508001FF087E71C24C3F89847C3F8B007C3F8A8179F
S31508002000C3F8AC27C7E701F096FBD7E705F1280028
S31508002010FFF796FB044600283FF4F5AED7E7054CD4
S31508002020F1E600BF0200040000C0034004B100202E
S31508002030092000F0012000F0F0B51646027F05469B
S31508002040012A0F4685B011D01A460393FFF7C2FC42
S31508002050044640B966B10A9A39460092284632467D
S31508002060039BFFF735FD204605B0F0BD014CFAE7A6
S31508002070014CF8E7082000F0022000F0FEE74FF0D8
S315080020804023D3F88420D206FBD4D3F88400C0F3C7
S315080020908110704738B5194B0546D3F820310C46E0
S315080020A003F00703013B052B20D8DFE803F0030BF9
S315080020B0130F171BFFF706F9052305B1286004B1AE
S315080020C0237038BDFFF734F90323F6E7FFF74CF919
S315080020D00723F2E7FFF744F90223EEE7FFF7F2F8E2
S315080020E00623EAE7FFF724F90423E6E7044840F65F
S315080020F01771FFF7C3FF00231846DEE7008000408C
S31508002100FC8E000838B5154B0546D3F828310C4621
S3150800211003F00703013B032B17D8DFE803F0020E91
S31508002120120AFFF7CFF8052305B1286004B123701A
S3150800213038BDFFF719F90723F6E7FFF7F9F8032380
S31508002140F2E7FFF70DF90223EEE705484FF4287189
S31508002150FFF794FF00231846E6E700BF008000401B
S31508002160FC8E0008F7B50024154B0194D3F880516E
S31508002170074605F00305022D0E4614D0032D0DD093
S31508002180012D15D1214601A8FFF784FF0F230FB1B2
S31508002190019A3A6006B1337003B0F0BDFFF7E4F870
S315080021A007230190F3E7FFF7DBF82B460190EEE7EC
S315080021B041F252010348FFF761FF2346E7E700BFF4
S315080021C000800040FC8E000838B50F4B0546D3F852
S315080021D090320C4603F00303012B09D0022B0BD1D6
S315080021E0FFF7C2F8072305B1286004B1237038BD8C
S315080021F0FFF7B6F80223F6E7044840F28B31FFF7FB
S315080022003DFF00231846EEE700800040FC8E0008DC
S31508002210002337B50193184B0546D3F820320C46F0
S3150800222003F00703013B032B1ED8DFE803F0020E79
S315080022301318002101A8FFF765FF11230DB1019AB4
S315080022402A6004B1237003B030BDFFF78DF8072369
S315080022500190F3E7FFF7CAF80A230190EEE7FFF7C4
S31508002260CBF809230190E9E740F26E210348FFF70E
S3150800227005FF0023E2E700BF00800040FC8E00084F
S3150800228038B5124B0546D3F840310C4603F0030324
S31508002290022B0BD0032B0DD0012B0FD1FFF7A6F87D
S315080022A00A2305B1286004B1237038BDFFF7A4F8E6
S315080022B00923F6E7FFF79DF80B23F2E7044840F6F3
S315080022C04571FFF7DBFE00231846EAE70080004069
S315080022D0FC8E0008002337B50193184B0546D3F842
S315080022E060320C4603F00703013B032B1FD8DFE8D7
S315080022F003F0020E1914002101A8FFF7CBFE0F23E5
S315080023000DB1019A2A6004B1237003B030BD0021D3
S3150800231001A8FFF7B5FF1023F2E7FFF725F8072313
S315080023200190EDE7FFF71CF802230190E8E740F279
S3150800233003310348FFF7A2FE0023E1E700800040CF
S31508002340FC8E000873B500240F4B0194D3F8703245
S31508002350064603F00303012B0D4607D0022B11D0C6
S3150800236040F261310948FFF789FE04E0214601A8D9
S31508002370FFF786FF10240EB1019B336005B12C7060
S3150800238002B070BD1424F6E700800040FC8E0008F9
S3150800239038B5154B0546D3F800320C4603F007034B
S315080023A0013B032B18D8DFE803F0020A0E12FFF7E9
S315080023B01DF80A2305B1286004B1237038BDFFF75C
S315080023C01BF80923F6E7FFF714F80B23F2E7FEF7E5
S315080023D099FF0E23800AEDE7044841F20711FFF73B
S315080023E04DFE00231846E5E700800040FC8E0008F5
S315080023F038B5154B0546D3F808320C4603F00703E3
S31508002400013B032B18D8DFE803F0020A0E12FEF789
S31508002410EDFF0A2305B1286004B1237038BDFEF725
S31508002420EBFF0923F6E7FEF7E4FF0B23F2E7FEF7D7
S3150800243069FF0E23800AEDE7044840F2EC41FFF7F6
S315080024401DFE00231846E5E700800040FC8E0008C4
S3150800245038B5124B0546D3F840320C4603F0030351
S31508002460022B0BD0032B0DD0012B0FD1FEF7BEFF8D
S315080024700A2305B1286004B1237038BDFEF7BCFFF6
S315080024800923F6E7FEF7B5FF0B23F2E7044841F206
S31508002490CA01FFF7F3FD00231846EAE7008000406B
S315080024A0FC8E000838B5124B0546D3F850320C4658
S315080024B003F00303022B0FD0032B05D0012B0FD1FA
S315080024C0FEF794FF0A2302E0FEF793FF0B2305B1FC
S315080024D0286004B1237038BDFEF78EFF0923F6E79E
S315080024E0044840F2CF21FFF7C9FD00231846EEE75E
S315080024F000800040FC8E000838B5124B0546D3F81C
S3150800250060310C4603F00303022B0BD0032B0DD0CE
S31508002510012B0FD1FEF76AFF0A2305B1286004B123
S31508002520237038BDFEF768FF0923F6E7FEF761FF5B
S315080025300B23F2E7044840F69271FFF79FFD00234C
S315080025401846EAE700800040FC8E000870B505468C
S3150800255014460E4601F0E2F8296881EA040202EA06
S3150800256006044C402C60BDE8704001F0DBB8000062
S3150800257070B5440905460E460ED140F205110F48BE
S31508002580FFF77CFD05F01F05AEB104F58053012069
S3150800259000FA05F51D6070BD012C08D0022C08D084
S315080025A040F20F110548FFF769FD0024EAE7044CDD
S315080025B0E8E7044CE6E704F50053E8E7FC8E000874
S315080025C064800040688000402DE9F04702280546EF
S315080025D0884617461E46DDF8209004D940F2EA518F
S315080025E03D48FFF74BFD202F04D940F2EB513A48FE
S315080025F0FFF744FD032E04D940F2EC513648FFF7A5
S315080026003DFDB9F10F0F04D940F2ED513248FFF7FD
S3150800261035FD08F1FF33112B43D8DFE803F04709EE
S315080026203242344236423A3C3E40424242424238C4
S3150800263008240F23EA0003FA02F19440274AB8F166
S31508002640120FD2F8903002BF07F1FF3741F0F85168
S3150800265044EA076423EA01031C430123B8F1010F86
S31508002660C2F8904003FA05F322D102F55832C2F8AF
S31508002670983400231A4649463046BDE8F04701F02B
S3150800268055BC0724D5E70624D3E70924D1E7022455
S31508002690CFE70524CDE70424CBE70324C9E70124C3
S315080026A0C7E740F21E610C48FFF7E8FC0024C0E7C4
S315080026B00B490C4AC1F8983446EA094325B9C2F8C9
S315080026C0A03400230422D6E7012D0CBFC2F8A43497
S315080026D0C2F8A834F5E700BFFC8E00080080004069
S315080026E000D0034000C00340B0F5207F10B534D0B9
S315080026F009D8B0F5007F2AD003D898B1B0F5C07FC5
S3150800270010D0002421E0B0F5607FFAD1154BD3F83C
S315080027108030C3F301149B0617D5032C15D04FF44C
S31508002720CE610FE00F4B1C6F230B13F00E0FC4F393
S3150800273003340AD0032C08D0072C06D00F2C04D05B
S315080027404FF4CC610848FFF799FC601C10BD054B97
S31508002750D3F89040C4F30464F7E7024B1C6FC4F344
S315080027608024F2E700800040FC8E0008002130B586
S31508002770B0F5807F85B00446029100F0FF806CD8E2
S31508002780002800F0DB80A0F12004A3B2602B74D8E7
S31508002790602C72D8DFE814F0D200D500D200D5003C
S315080027A0E800E800E800E800E800D500ED007D0054
S315080027B004019D007D00D500D500D500710071008B
S315080027C0710071007100710071000401D500D50017
S315080027D0D5001C010901D500710071007100710056
S315080027E07100710071007100710071007100710053
S315080027F00E01E800D200D200D200B0007D007D00B4
S31508002800B80013019200C700C7007100710071007B
S315080028107100710071007100710071007100710022
S315080028207100710071007100710071007100710012
S315080028307100710071007100710071007100710002
S3150800284071007100710071007100710071007100F2
S315080028507100710071007100CC00B0F5E06F00F0F6
S31508002860A4803BD8B0F5607F75D01DD8B0F5007F41
S3150800287071D008D8B0F5C07F60D040F2DB11574858
S31508002880FFF7FCFB57E0B0F5207F5AD0B0F5407F44
S31508002890F3D1FEF737FD04464FF42070FFF724FF07
S315080028A0B4FBF0F0400845E0B0F5B06F61D00AD847
S315080028B0B0F5806F58D0B0F5A06FDED1002102A820
S315080028C0FFF7A6FC37E0B0F5C06F69D0B0F5D06F5A
S315080028D0D3D1002102A8FFF75BFD2CE0B0F5286FE5
S315080028E06DD016D8B0F5186F64D00AD8B0F5F06F69
S315080028F06ED0B0F5106FC0D1002102A8FFF778FDA1
S3150800290019E0B0F5206FB8D1002102A8FFF7E2FC64
S3150800291011E0B0F5306F57D0AFD3B0F5386F3FD070
S31508002920B0F5406FA9D1002102A8FFF7EBFB02E042
S31508002930FEF7CEFC0290029805B030BDFEF7E2FC29
S31508002940F8E7FEF7DFFC04464FF42070FFF7CCFEED
S31508002950B4FBF0F0EEE7FEF7BBFC05462046FFF7B2
S31508002960C3FEB5FBF0F0E5E7002102A8FFF792FBEE
S31508002970E1E7002102A8FFF7F5FBDCE74FF0E023CB
S3150800298003911B695B0705D5FEF7BCFC0390039B07
S315080029900293D0E70DF1070103A8FFF771FCF6E7EC
S315080029A0002102A8FFF76CFCC5E7002102A8FFF783
S315080029B04FFDC0E7002102A8FFF774FDBBE7002121
S315080029C002A8FFF7BFFCB6E702A8FFF7FDFBB2E7D0
S315080029D0002102A8FFF790FDADE700BFFC8E0008B6
S315080029E008B58020FFF7C2FE034B98429EBF4FF4FE
S315080029F08032024B1A6708BD005A620200A00040E6
S31508002A004FF480320F4B70B59A66064600200D4685
S31508002A10FFF76AFE41F671320B4B7043DC690B49CE
S31508002A20DA635A68884204F4803422F4401203D9DF
S31508002A30012D18BF42F480125A600CB10022DA63E5
S31508002A4070BD00BF0090004000000340005A6202BB
S31508002A5008B5FEF769FCBDE808400021FFF7D0BFBE
S31508002A60002307B5B0F5807F8DF8023000F0E180CD
S31508002A7077D8582868D8382806D8243883B2092B36
S31508002A8048D940F2A371C6E039381F28F9D801A3FE
S31508002A9053F820F05B2C0008832A0008832A0008D4
S31508002AA0832A0008672C0008B12C0008832A00082E
S31508002AB0832A0008832A0008832A0008832A000834
S31508002AC0832A0008832A0008832A0008832A000824
S31508002AD0832A0008832A0008832A0008832A000814
S31508002AE0BD2C00088B2B0008832A0008832A0008BF
S31508002AF0832A0008D72B0008832A0008832A00089F
S31508002B00C92C0008D52C0008A52C0008FB2B0008AA
S31508002B10FB2B00080928B4D801A353F820F000BFFE
S31508002B208B2B00088B2B00088B2B00088B2B00089F
S31508002B308B2B0008832A00081F2C0008832A00080C
S31508002B405B2C0008AD2B000880289AD1674B1B6FB9
S31508002B5003F00703013B032B5BD8DFE803F0585467
S31508002B60979FB0F5086F00F0848025D8B0F5C06F40
S31508002B7073D010D8B0F5A06F00F09480B0F5B06FA0
S31508002B804DD0B0F5806F7FF47CAF00200DF10201C7
S31508002B90FFF780FA48E0B0F5E06F00F08980B0F5FD
S31508002BA0F06F60D0B0F5D06F7FF46BAF00200DF1F9
S31508002BB00201FFF7EDFB37E0B0F5286F00F08A80D9
S31508002BC00FD8B0F5186F79D0B0F5206F7CD0B0F576
S31508002BD0106F7FF456AF00200DF10201FFF708FCD5
S31508002BE022E0B0F5306F7BD0FFF44BAFB0F5386F0D
S31508002BF033D0B0F5406F7FF444AF00200DF10201E9
S31508002C00FFF780FA10E005238DF802300CE0022366
S31508002C10FAE740F20B713648FFF730FA04E0002075
S31508002C200DF10201FFF79EFA9DF8020003B05DF868
S31508002C3004FB01934FF0E0231B695B0707D5FEF7FA
S31508002C4061FB0C238DF803309DF80330DCE70DF1AA
S31508002C50030101A8FFF714FBF6E700200DF10201B6
S31508002C60FFF70EFBE0E700200DF10201FFF744FC39
S31508002C70DAE71E4BD3F8003103F00303022B07D023
S31508002C80032B09D0012B0BD1FEF752FB0323BBE71D
S31508002C90FEF7B2FB0923B7E7FEF760FB0823B3E7A5
S31508002CA00123B1E700200DF10201FFF7B1FABBE7F6
S31508002CB000200DF10201FFF7CBFBB5E700200DF16F
S31508002CC00201FFF7EFFBAFE700200DF10201FFF766
S31508002CD001FBA9E700200DF10201FFF733FBA3E78B
S31508002CE018460DF10201FFF76FFA9DE700800040D4
S31508002CF0FC8E000870B5037804460F2B04D940F6FD
S31508002D0001418148FFF7BAF963780F2B04D940F6D9
S31508002D1004417D48FFF7B2F9A3780F2B04D940F692
S31508002D2007417948FFF7AAF9E3780F2B04D940F64B
S31508002D300A417548FFF7A2F923790F2B04D940F603
S31508002D400D417148FFF79AF963793F2B04D94FF47F
S31508002D5041616D48FFF792F9A3793F2B04D940F6F4
S31508002D6013416948FFF78AF9E379032B04D940F63A
S31508002D7016416548FFF782F9237A032B04D940F6F2
S31508002D8019416148FFF77AF9637B032B04D940F6AA
S31508002D901C415D48FFF772F98020FFF761FE0328A2
S31508002DA000F093804FF48012584B594E5A6645F6F8
S31508002DB00E034FF0A062C6F88030564B9A624FF465
S31508002DC0803203F580539A62B56D15F48035FBD1D0
S31508002DD0514B0F21D3F87C215048C2F30312FFF759
S31508002DE0B5FB637822781B0543EA0263A2794FF0A4
S31508002DF040711343E2784A4843EA0243227943EA98
S31508002E000233627943EA82133361B369E27A03F0E3
S31508002E1000431343E27943EA8263227A43EA026370
S31508002E20627A43EA0243A27A43EA0223B3614FF085
S31508002E300072FFF78BFB4FF400624FF4406139488C
S31508002E40FFF784FB617B336A002918BF0825227BBC
S31508002E5023F00F0343EA010343EA82032C4A45EAB7
S31508002E6003051562304D31D1A37C916AA07BDB0046
S31508002E700D4043EA4013E17B2B4343EA011343F435
S31508002E8080339362294B916D33EA0101FBD14FF0F0
S31508002E908071204881621369A57823F4700343EA98
S31508002EA0055313614FF000438361237C0BB9204B14
S31508002EB09962637C1BB94FF480321D4B9A62E37C9E
S31508002EC01BB1134B1B4AC3F8802070BD022909D1D8
S31508002ED000234FF47F411361174893614FF408525A
S31508002EE0FFF734FB0A49237C8A6AA07B1B062A4023
S31508002EF043EA40131343A27C43EAC203627C43EAD3
S31508002F0002438B62DBE700BFFC8E0008009000409E
S31508002F100040004A0050004A0080E00F4040004A46
S31508002F201840004A3840004AC7FFFEFE0300010069
S31508002F300060004AF1A7FFFF3440004A014B93F9AD
S31508002F40000070476010002010B583780446072BF0
S31508002F5004D940F685512A48FFF790F8E378032B01
S31508002F6004D940F687512648FFF788F82378032BBB
S31508002F7004D940F689512248FFF780F894F90130C0
S31508002F80002B04DA40F68B511D48FFF777F84FF40B
S31508002F9000011C4A637851664FF4D151022002F5AC
S31508002FA0B832516218494F2B48604FF0010028BFCC
S31508002FB04F2301F5805148601169C903FCD4217873
S31508002FC043EA01235361E378A1781B0143EA01230D
S31508002FD061790B43217943EA41039360E379A17947
S31508002FE01B0143EA4113617A0B43217A43EA410301
S31508002FF05360A37A13B16FF4D153536210BD00BF67
S31508003000FC8E00080090004000100240014B18801A
S31508003010704700BF621000200029CCBF01210021A3
S31508003020FFF7EEBCB0F5207F10B565D00ED8B0F529
S31508003030007F4FD003D800B3B0F5C07F1DD040F253
S31508003040E161BDE810403448FFF718B8B0F5607F75
S31508003050F5D14C1E012C06D9042904D040F2C761CB
S315080030602D48FFF70BF82D4AD2F8803023F03003AD
S3150800307043EA0413C2F8803010BD102901F1FF3469
S3150800308004D8274B23FA01F1CB0704D440F29E61FA
S315080030902148FEF7F3FFFFF7DBFC00F045F84FF495
S315080030A08031204B1D4A1967136F23F4704343EA96
S315080030B004331367FEF726F90446FEF7E0FFC0F16E
S315080030C002012046FFF7A8FF00F034F8BDE81040DB
S315080030D0FFF786BC4C1E1F2C04D940F2D5610E485A
S315080030E0FEF7CCFF0D4BD3F8901021F0F85141EACA
S315080030F00461C3F89010BFE74C1E012C04D940F2B6
S31508003100DB610548FEF7BAFF044B196F21F48061AD
S3150800311041EA84211967AFE7FC8E00080080004069
S31508003120160101000090004002214FF42070FFF7BD
S3150800313079BF000008B54FF4C070FFF717FBBDE86C
S315080031400840044988428CBF022101214FF42070AF
S31508003150FFF768BF80F0FA02B0F5807FF8B50C4635
S3150800316000F0568176D8582868D8382806D82438E2
S3150800317083B2092B48D940F666216BE139381F28F6
S31508003180F9D801A353F820F08B34000877310008EA
S315080031907731000877310008B73400081936000877
S315080031A07731000877310008773100087731000851
S315080031B07731000877310008773100087731000841
S315080031C07731000877310008773100087731000831
S315080031D07731000845360008813200087731000843
S315080031E07731000877310008F33200087731000894
S315080031F07731000871360008B1360008A73500088F
S3150800320027330008273300080928B4D801A353F840
S3150800321020F000BF813200088132000881320008A0
S31508003220813200088132000877310008D13300085E
S31508003230773100088B340008B932000880289AD103
S315080032408B1E062B00F2B980DFE803F0B4A5B7BFE2
S31508003250B7B77900B0F5086F00F0868138D8B0F5B1
S31508003260C06F00F012811BD8B0F5A06F00F09B81EB
S31508003270B0F5B06F00F0AC80B0F5806F7FF47BAF2F
S31508003280023CE4B2052C00F2BC80AD4B195DAD4A98
S31508003290D2F8203123F007030B43C2F8203179E036
S315080032A0B0F5E06F00F0B881B0F5F06F00F003817B
S315080032B0B0F5D06F7FF45FAF093C052C00F21F8193
S315080032C0DFE814F00F01240119011D011D011B017E
S315080032D0B0F5286F00F0EC8117D8B0F5186F00F03C
S315080032E0B181B0F5206F00F0C381B0F5106F7FF49F
S315080032F042AF093C052C00F21981DFE814F00901F8
S315080033001E011301170117011501B0F5306F00F002
S31508003310E681FFF430AFB0F5386F00F0B680B0F54F
S31508003320406F7FF428AF023C052C00F26C81DFE881
S3150800333014F0660168016A0171016A015C010025E1
S3150800334004264FF480370121022000F049FAFFF7DE
S315080033507FFBFFF7E9FE7C4B7A4A1F67136F23F062
S31508003360070333431367FDF7CDFF0646FEF787FECF
S31508003370C0F102013046FFF74FFE0121002000F0A0
S3150800338087FAFFF7D7FEFFF72BFB1DB9032C01D1F0
S315080033906E4B9F62F8BD4FF480126B4B03265A663C
S315080033A04FF480326A4B9D6A03F58053C5F3006576
S315080033B09A62C6E700250126C3E7002540F2DD71BB
S315080033C06448FEF75BFE2E46BBE700250226B8E7F3
S315080033D0072C12D00F2C12D0022C05D040F6210152
S315080033E05C48FEF74BFE0024564AD2F8803123F09B
S315080033F003031C43C2F88041CCE70324F4E7012405
S31508003400F2E740F652015348FEF738FE00213EE740
S315080034100C2924D01AD8A1F10904022C18D84FF483
S315080034208032484B4C49586E03F580535A664B6AAE
S3150800343043F001034B62C1035CBF484B5A664FF029
S31508003440E022136923F004031361A3E71029E6D0E9
S3150800345040F67A01BDE8F8403E48FEF70FBE4FF445
S315080034608032384B3C49586E03F580535A664B6A8E
S3150800347023F001034B62C3035CBF384B5A664FF017
S31508003480E022136943F00403DEE7093CE4B2022CA8
S315080034900AD8334B195D2B4AD2F8403123F003037F
S315080034A00B43C2F8403175E740F696012948FEF706
S315080034B0E5FD0021EFE7093CE4B2022C0AD8294BC6
S315080034C0195D204AD2F8603123F003030B43C2F892
S315080034D060315FE740F6B1011E48FEF7CFFD0021D7
S315080034E0EFE702221749D1F8003223F00703134306
S315080034F0C1F800324EE70322F4E70422F2E740F669
S31508003500F6011448FEF7BAFD0022EBE70122E9E7C7
S3150800351002220C49D1F8083223F007031343C1F8F5
S31508003520083237E70322F4E70422F2E740F61611D9
S315080035300848FEF7A3FD0022EBE70122E9E700BFF2
S315080035405F8F000800800040009000400060004A3D
S315080035500040004AFC8E000800C0074000A000405A
S31508003560658F0008658F00084C1E082C12D8DFE806
S3150800357004F0161118111111110F050002226349E2
S31508003580D1F8003123F003031343C1F8003101E7F2
S315080035900322F4E740F632115D48FEF76FFD00227C
S315080035A0EDE70122EBE7073C0A2C15D8DFE804F023
S315080035B0061412101414141414141B00022253496E
S315080035C0D1F8203223F007031343C1F82032E1E68D
S315080035D00322F4E70422F2E740F692114C48FEF77C
S315080035E04DFD0022EBE70122E9E704224749D1F81D
S315080035F0283123F007031343C1F82831CAE603220A
S31508003600F4E70222F2E740F6AE114148FEF736FD2E
S315080036100022EBE70122E9E7093CE4B2022C0AD8CA
S315080036203C4B195D394AD2F8403223F003030B4369
S31508003630C2F84032AEE640F6E7113548FEF71EFD01
S315080036400021EFE7093CE4B2022C0AD8324B195D97
S315080036502E4AD2F8503223F003030B43C2F85032F5
S3150800366098E640F603212A48FEF708FD0021EFE711
S315080036700F2C17D012D8022C16D0072C16D040F6CD
S315080036801D212348FEF7FAFC00222049D1F86032B2
S3150800369023F007031343C1F860327BE6102CEED102
S315080036A00222F2E70122F0E70322EEE70422ECE722
S315080036B0102C10D0142C10D040F64B211448FEF7CD
S315080036C0DDFC00221149D1F8703223F003031343BD
S315080036D0C1F870325EE60122F4E70222F2E7022917
S315080036E010D0072910D040F65E210948FEF7C6FC1F
S315080036F000220649D1F8903223F003031343C1F898
S31508003700903247E60122F4E70222F2E70080004001
S31508003710FC8E0008658F0008658F0008EFF310809F
S3150800372072B6704700B962B67047EFF3118030235E
S3150800373083F31188704780F311887047034B5868E4
S31508003740C0F30800003818BF0120704700ED00E0FC
S31508003750EFF31083DB0706D4EFF311802F2894BF0D
S31508003760002001207047012070470000024A536B71
S315080037700342FCD1704700BF0040094070477047BC
S31508003780704700000A4A10B51369044643F004035B
S31508003790136104F023F8FFF7F2FF30BFFFF7F0FFDD
S315080037A004F030F81CB9BDE81040FDF7ABBD10BDFC
S315080037B000ED00E0084A10B51369044643F0040317
S315080037C0136104F00BF830BF04F01CF81CB9BDE80F
S315080037D01040FDF797BD10BD00ED00E0704770473B
S315080037E02DE9F0414FF040230446D3F88420D00653
S315080037F0FBD4D3F88430C3F381139C423FD0FDF742
S3150800380067FD012C05460BD11E4B984204D940F2A0
S3150800381016611D48FEF732FC01212846FFF7FCFB1E
S31508003820FFF77CFF4FF00072184B07465A66204692
S31508003830FFF7A4FF4FF480634FF04026621E9340C3
S31508003840DFF844803367736E9A0103D4D6F8843060
S315080038509B060AD53846FFF765FF022C0FD1284686
S31508003860BDE8F0410021FFF7D7BBD6F884309906AA
S31508003870E9D540F224614046FEF700FCE3E7BDE8DF
S31508003880F08100BF005A6202688F0008006000409D
S3150800389007B518B90191FDF71BFD0199064B1B7871
S315080038A043B1064B984205D8012003B05DF804EBF6
S315080038B0FFF796BF0220F8E705B10020005A62021A
S315080038C00278034B012100201A70FFF7E1BF00BF01
S315080038D005B100204FF04022536F417823F440731E
S315080038E043EA0123536770474FF04022D36E0179AC
S315080038F023F030030B43D366704700004FF00042B5
S31508003900144B10B55A664AF6CD3313494C6C0B6402
S3150800391004F0010478B90120FFF728FF4B68DB079C
S3150800392004D50E4B58600B6BD807FCD514B10A4B5F
S315080039300B4A1A6410BD0B6B1A07FCD42022074BDE
S315080039409A620122A3F580535A60034A936A9B063A
S31508003950FCD5EBE7009000400040094000600940B4
S315080039603254FFFF4FF0004238B5174B01465A66EE
S315080039704AF6CD334FF04022144C656C23644378E5
S315080039800B205B0043F00103D363FFF7EFFE636888
S315080039908A7823F4F87343EA02136360CA784B798A
S315080039A043EA0223A3600A798B7943EA0223236157
S315080039B00878FFF7A3FFEB0748BF054B4FF0010058
S315080039C048BF236438BD00BF00900040004009404E
S315080039D03254FFFF436D0B42FCD1704708B543686C
S315080039E0DA0714D58368DB0702D50369D90707D533
S315080039F00A2350218363FFF7EDFF836C9A07FCD1F6
S31508003A00012200F500535A6043689B07FCD408BDA1
S31508003A1010B5FFF7E3FF042300F5805100F50052C7
S31508003A200B6113610B6113610B6113610B61136108
S31508003A30202341F2020103610023C36083604161D0
S31508003A404FF4A021836141620449C3610362836222
S31508003A50C36243630365D164036310BDFF3F0D036F
S31508003A6038B5194B044698420D460BD0174B984269
S31508003A7008D003F58043984204D040F25111144807
S31508003A80FEF7FCFA25B92046BDE83840FFF7A6BF81
S31508003A90012204F580535A6040F6FF71204605F06E
S31508003AA00F02FFF797FFA2637821FFF793FF05F050
S31508003AB001036A0748BF43F00203A26C02F003023F
S31508003AC09A42FAD138BD00BF0000014B00000A40F7
S31508003AD0CB8F0008836C5A06FCD54164836C1B06A1
S31508003AE0FCD5C06B80B27047F8B505460C4617463C
S31508003AF022B940F2F5116B48FEF7C0FA6A4B9D42AF
S31508003B0000F0C080694B9D4200F0C18003F58043F8
S31508003B109D4200F0C18040F2FF116248FEF7AEFAFE
S31508003B2044B9604840F22B31FEF7A8FA2046FEF762
S31508003B301DFE0446AB68D9073AD5BC4204D240F20A
S31508003B4009215848FEF79AFAB4FBF7F36E685C1E2B
S31508003B5016F001072AD028212846FFF73BFFAB6C51
S31508003B609A071DD1AB6CDB071CD4AE6C16F00206A7
S31508003B701AD140F21A214B48FEF780FA2846FFF779
S31508003B802DFF2B6923F07F4343EA04632B61002F43
S31508003B9000F0878031462846BDE8F840FFF760BF49
S31508003BA00526EBE70926E9E70626E7E73E46E8E7BE
S31508003BB06B68012B04D040F22D213A48FEF75EFAD5
S31508003BC0A96801F0E001402946D009D8B9B12029F1
S31508003BD038D04FF41A71BDE8F8403248FEF74EBAAD
S31508003BE0602945D08029F4D107EB4703A34204D9BD
S31508003BF040F262212B48FEF741FA012308E0B7EBB1
S31508003C00141F04D940F24E212648FEF737FA10232E
S31508003C107B436401B4FBF3F3254E203BB6EBC30F9D
S31508003C204FEAC30404D240F273211E48FEF726FA6F
S31508003C30284634400121FFF7CDFE2C63BDE8F84045
S31508003C40FFF7C8BEB7EBD40F04D940F25321154885
S31508003C50FEF714FA0823DBE70626B4FBF6F3BB42A5
S31508003C6004D24FF416710F48FEF708FA3346CFE729
S31508003C70B7EB940F04D940F25D210A48FEF7FEF926
S31508003C800423C5E7002C7FF455AF56204FE7002CD8
S31508003C907FF450AF57204AE7002C7FF44BAF5820EB
S31508003CA045E7F8BDCB8F00080000014B00000A402D
S31508003CB0F8FF7F006F4B70B5984204460D460AD050
S31508003CC06D4B984207D003F58043984203D0D6211E
S31508003CD06A48FEF7D3F91DB9D8216848FEF7CEF928
S31508003CE06A7BAB68002A00F09880654A934203D93C
S31508003CF0DA216248FEF7C2F92B692BB1DB7B1BB1CF
S31508003D00DD215E48FEF7BAF963682E6923B140F6ED
S31508003D10FF712046FFF75EFE2046FFF779FE22690F
S31508003D206B7BA97B22F007020B4313432361AEB1D9
S31508003D302A692369117823F078030B43117943EA3A
S31508003D404113517A43EA0113D17B43EA8113236174
S31508003D50537B117BDB0343EA8123E360A368EA7B99
S31508003D6023F00303134343F00103A36006B32A6950
S31508003D70A168538803F4C0430B43A3605179A36831
S31508003D8043EA8123A3609379D079616A127A1B0189
S31508003D90000203F0700300F4E06021F4EE410343EF
S31508003DA021F0700112030B4302F4E04213436362ED
S31508003DB063692A7B23F00F0313436361B6B12B694A
S31508003DC05A89A2615A7B3AB12A4A94422BD19A7BE4
S31508003DD02C4902F00F024A66DA7B3AB1254A944228
S31508003DE034D11B7C274A03F00F031366D5E9011269
S31508003DF02046FFF779FE05212046FFF731FE002110
S31508003E002046FFF7E7FD2B78A363FFF7E3FDA36CD6
S31508003E10DB4313F4405FFAD170BD1B4A93427FF629
S31508003E2073AFE0216DE7144A944209D002F5804247
S31508003E309442D1D19A7B134902F00F02CA67CBE7A5
S31508003E409A7B104902F00F020A67C5E70A4A9442AC
S31508003E5009D002F580429442C8D11B7C094A03F076
S31508003E600F039367C2E71B7C064A03F00F03D3666A
S31508003E70BCE700BF0000014B00000A40CB8F0008DA
S31508003E80002D3101009003408096980038B50D4604
S31508003E900446B0B1012817D0022817D0032803D149
S31508003EA03F23EB40DB0704D440F213410948FEF7F1
S31508003EB0E5F8302001214443074B01FA05F51D5169
S31508003EC038BD40F2FF73ECE70F23EAE740F2FF3311
S31508003ED0E7E700BFC88C000840D0034038B50D4658
S31508003EE00446B0B1012817D0022817D0032803D1F9
S31508003EF03F23EB40DB0704D44FF479710948FEF7FA
S31508003F00BDF8302001214443074B01FA05F51D5140
S31508003F1038BD40F2FF73ECE70F23EAE740F2FF33C0
S31508003F20E7E700BFC88C000840E003402DE9F041F0
S31508003F300D4616461F46804678B3012830D002281B
S31508003F4030D0032803D13F23EB40DB0704D440F2EB
S31508003F501D112148FEF792F826B12946404627B397
S31508003F60FFF794FF302404FB08F4072D04F180447E
S31508003F7004F570341CD80F21636BAA00914023EA1C
S31508003F80010306FA02F21343636316BB2946404649
S31508003F90DFB1BDE8F041FFF779BF40F2FF73D3E721
S31508003FA00F23D1E740F2FF33CEE7FFF797FFD9E7B4
S31508003FB00F21A5F10803E26B9B00994022EA010252
S31508003FC006FA03F31343E363DFE7BDE8F041FFF7BF
S31508003FD085BFBDE8F08100BF319000084369DA016A
S31508003FE0FCD4012300F50050024A436053689B073E
S31508003FF0FCD4704700400049022A10B54FF000046F
S3150800400005D9033A022A0CD90360047110BD11F4CC
S31508004010000218BF4FF07F4221F07F4313430C0E76
S31508004020F2E721F0FF03CCB2EEE7000038B5134BF8
S31508004030044698420D4604D040F295211048FEF7F2
S315080040401DF8012104F5805362685960AB78298808
S315080040501B0403F480330B43E978002914BF4FF49B
S31508004060003100210B43C4F89830D30704D4204606
S31508004070BDE83840FFF7B2BF38BD00BF0040004971
S3150800408095900008294B70B5984206460C46154689
S3150800409004D040F25D212648FDF7F0FFA378062BF1
S315080040A004D94FF418712248FDF7E8FF3046FFF7A8
S315080040B095FF2378304603F007026378002BA37830
S315080040C018BF08214FEA031303F0700343EA0203FB
S315080040D0E27808BF0021002A14BF4FF4807200223C
S315080040E00B4313433367F26A237922F48B321B029C
S315080040F022F4807203F4E0631343627929461203BB
S3150800410002F480521343A279002A14BF4FF4803276
S3150800411000221343F362FFF789FF012206F5805355
S315080041205A60E37903B1F26070BD00BF00400049F0
S3150800413095900008F8B52E4B0446984204D040F2F4
S3150800414012312C48FDF79AFF012204F580535A6074
S31508004150294B2A4AE36063691340FCD1A361C4F87A
S315080041609830636913F4401FFBD16369DA052DD4CF
S31508004170A36F5BBB63699B052AD4D4F8881039BB47
S315080041802046E36FD4F88C30FFF728FF3023184A0F
S31508004190A16094420CBF02220022216142F260050E
S315080041A0E1620F4621622367C4F880300B46144E3D
S315080041B0934210D100220E4B9C4201D1102911D1F5
S315080041C0104B04F500546362A362F8BD636FCCE735
S315080041D0D4F88430CEE704EB031085640133066512
S315080041E04765E5E701F1280044F820200131E3E7B7
S315080041F00040004995900008120002005200010094
S3150800420000C002808F330F800F4B10B598420C46C2
S3150800421004D04FF45A710D48FDF730FF34B92A20FF
S31508004220FEF7A4FA012838BF01200446084804F519
S31508004230742404F23F24B4FBF0F4601E7F2828BFE0
S315080042407F20C0B210BD00BF00400049959000080D
S3150800425040420F0038B5134B0C469842154604D019
S3150800426040F29B311048FDF709FF24B94FF46771F6
S315080042700D48FDF703FF0D498C4228BF0C461DB9B2
S315080042802A20FEF773FA0546621E1544B5FBF4F0BC
S31508004290A54228BF00F1FF30032828BF0320C0B27B
S315080042A038BD00BF0040004995900008005A6202D8
S315080042B0F8B51F46184B0E469842144604D040F2ED
S315080042C0D5311648FDF7DAFE26B940F2D63113483D
S315080042D0FDF7D4FE124A134D002F08BF1546B54206
S315080042E028BF35461CB92A20FEF740FA04469DF831
S315080042F0182040F2FF330132B4FBF2F46A1E14446C
S31508004300B4FBF5F0AC4228BF00F1FF30984228BF55
S315080043101846C0B2F8BD00BF004000499590000895
S3150800432080969800404B4C002DE9F04FB64B04465A
S3150800433098420E46154685B003D0D321B348FDF7FB
S315080043409DFE0022B2492046FFF784FF7379984202
S3150800435038BF18465FFA80F82046FFF73FFE3179E6
S3150800436019B92046FFF750FF0146F3784FEA08725D
S315080043701B0102F0E04203F03003134308043278CD
S3150800438000F4FE0003430AB143F0020372780AB14F
S3150800439043F00403B2780AB143F008030027A36088
S315080043A0F388328923617389DFF85C9243EA024312
S315080043B0DFF880B223624C4501D1022F06D10123D2
S315080043C004F58054636005B0BDE8F08F00222B78B1
S315080043D090489149AE68934218BF0146CDF80080CF
S315080043E089480393FFF764FFF2B2824238BF024658
S315080043F004EB0710039B1646826C03F0030C02EAD3
S315080044000B024CEA020295F801C039014FEA8C0CFE
S315080044100CF01C0C42EA0C0295F802C04FEA0C3C60
S315080044200CF4E04C42EA0C0295F803C04FEA0C4C37
S315080044300CF4E02C42EA0C0295F810C04FEA4C5CEA
S315080044400CF4600C42EA0C0295F804C04FEA0C7CA6
S315080044500CF0405C42EA0C028264826C6F48C2F33C
S315080044600232013A042A00F28980DFE802F08787DF
S3150800447087030300D0F8842107F1050A002B40F0D2
S31508004480BC8009EB0103986CC0F30230431E012B74
S31508004490624B76D8DFED627AD3F8800180B2494460
S315080044A0896C20F4C043C1F3820E01210EF1010C80
S315080044B001FA0CF107EE101A02044FEA8343B8EE2C
S315080044C0C76AF6EE006A554A48BF43F00043BEF194
S315080044D0000F74D1D2F88C1109B207EE101AB8EE93
S315080044E0C77A77EE877A95ED037A9FED4E5AB8EE3E
S315080044F0477AC7EE055AB7EE045A85EE257ADFEDF8
S315080045004A5A67EE277A85EE867A9FED486A27EE3D
S31508004510067AB1EE006AB3F1004F07EE867A0BD041
S315080045209FED436A07EE900A77EE065AFAEEE87AA6
S31508004530B0EE467A17EEA57AB5EEC07AF1EE10FA25
S31508004540CABFB1EE477A36EEC77A37EE667AFDEE1F
S31508004550C77A17EE901AB1F5003F45DB6FEA534369
S315080045606FEA43434FEA0A1149F80130C6F30906D0
S3150800457009EB0A125660013714351CE7D0F880217A
S315080045807AE703280AD1D3F88001D3F88C31000CD6
S315080045901B1407EE903AF8EEE77A80E70428D3F87A
S315080045A084010BBFD3F88C31D3F88C311B141B1440
S315080045B007BF80B25B00000C03EB4303E9E7D2F8C0
S315080045C0901166EE265A09B207EE101AB8EEC77AA7
S315080045D077EE677AD2F8881187EEA57A0AB207EEDF
S315080045E0902AF8EEE77A7CE711F5003FAABFC1F3F7
S315080045F0110143F400330B43B4E74FF4F571034854
S31508004600FDF73CFDB2E700BF004000499590000861
S31508004610005A6202404B4C00809698000080E00FDA
S315080046200000000000007A44000080430000204497
S3150800463000000049E08F18CF08B50A6F496F02F0ED
S315080046400702FFF7D9FC08BD10B5044618B98D2135
S315080046501F48FDF713FD23781B0613F0604F03D0A0
S315080046608E211B48FDF70AFDE3780F2B03D99F21FE
S315080046701748FDF703FD01212020FDF779FF0121E9
S315080046802120FDF775FF0122124B5A602278120687
S315080046909A606178A27842EA01429A61FF229A6298
S315080046A000229A631A644FF000425A654FF0FF32AF
S315080046B04FF4800103F500531A65074AC2F88011C2
S315080046C0E3781B01DBB282F81633116010BD00BF18
S315080046D0F99000080000044000E100E02DE9F041EF
S315080046E00126C3B2072805460C46904606FA03F685
S315080046F003DDE6213648FDF7C1FC1CB9E72134483D
S31508004700FDF7BCFC236823F47C1323F00F031BB1CD
S31508004710EA212F48FDF7B2FCA37A1B0413F47C0F99
S3150800472004D040F203112A48FDF7A8FCE37A1B05DA
S3150800473013F07E6F04D040F205112548FDF79EFC64
S31508004740237B5B0513F0FE5F04D040F20711204877
S31508004750FDF794FC30201F4FAB0000FB0575627B0C
S31508004760216803F1402303F5802359602A66E37A1A
S31508004770A27A1B0543EA0243227B43EA4253EB65CE
S31508004780154B28F003022A671E65FEF7CEFF7B6DE0
S3150800479033437B65237A13B13B6C33433B64637ABB
S315080047A013B1BB6B3343BB632279A37943EA024354
S315080047B0094A93616179E37943EA014307498B61C1
S315080047C0044B56639E64BDE8F041FEF7B4BF00BFD4
S315080047D0F99000080000044000200440001004403E
S315080047E00B4B984211D003F5804398420DD003F540
S315080047F08043984209D003F58043984205D003F5D3
S315080048008043C31A5842584170470120704700BF79
S3150800481000800440F8B51F461A4B0E4698421546C6
S315080048201ED003F5804398421CD003F58043984276
S315080048301AD003F58043984218D003F5804398426E
S3150800484016D011487721FDF719FC4FF0FF300621E5
S315080048500E4C7FB101FB006004EB80004565F8BD96
S315080048600020F4E70120F2E70220F0E70320EEE754
S315080048700420ECE701FB00602D0204EB800465656B
S31508004880EDE700BF00800440C091000800810340A6
S31508004890036BDA0702D503695B06F9D47047000093
S315080048A038B505460C46FFF79BFF18B99A212948E3
S315080048B0FDF7E4FB2846FFF7EBFF012205F5005359
S315080048C01A632A6B12F00202FBD1237961881B0254
S315080048D043EA8143617A0B436178002914BF40217A
S315080048E000210B43A17A002914BF802100210B4324
S315080048F0E17A002914BF202100210B43217B0029DE
S3150800490014BF102100210B43617B002914BF082125
S3150800491000210B43A179002914BF4FF480310021EF
S315080049200B4301216B6005F580531963217809B99A
S315080049300223EB6000236B62E079237A43EA800363
S315080049406079002818BF10221A43AA6009B101230A
S31508004950EB6038BDC09100082DE9F041074688464E
S315080049601446FFF73DFF18B9EA212A48FDF786FBEA
S31508004970B8F1020F03D9EB212648FDF77FFB38462D
S31508004980FFF786FF012207F500531A633E6B16F000
S315080049900206FBD1E279A379002A627A14BF4FF4A2
S315080049A080110021002A14BF10220022E07A07EBAA
S315080049B0481543EAC0430B4313432B66237A33B3A4
S315080049C0237B2A6E414642EA43422A66013B18BFC8
S315080049D001233846A278FFF71DFF012307F5805704
S315080049E03B63637822781B0643EA8263E27843EAEC
S315080049F00233227943EA8223627943EA0223A27ABE
S31508004A00002A18BF042633436B66BDE8F0812B6E77
S31508004A102B66E2E7C091000838B50446FFF7E0FECA
S31508004A2020B94FF4C8712248FDF728FB012504F583
S31508004A3080531D630223E36000231E4A04F50051D8
S31508004A40A360A3614A614FF6FF722362E2614CF6E6
S31508004A50806263626366A3662367C4F88430C4F819
S31508004A608830C4F89030C4F8A430C4F8A830C4F824
S31508004A70B030C4F8FC20C4F8EC30C4F8F0301F237A
S31508004A802046C4F8F830FFF703FF0D63236B13F0D5
S31508004A900203FBD163602366C4F88030C4F8A030F3
S31508004AA0C4F8E030C4F8E830C4F8E43038BD00BFD4
S31508004AB0C09100087700770770B506460C4615467C
S31508004AC022B94FF422710C48FDF7D8FA24B94FF4ED
S31508004AD02070FDF74BFE04466D00013CB4FBF5F46F
S31508004AE0064B250213EA042304D040F2A521024806
S31508004AF0FDF7C4FAF56170BD25920008070080FF2E
S31508004B00124B10B59842044604D040F22E41104884
S31508004B10FDF7B4FA012104F58053596040F6AA63FB
S31508004B2041F20502636100230A48A360E365E26077
S31508004B3004F500522361E361E36490640348A365C6
S31508004B40844204BF23656365516010BD00C00540FB
S31508004B5025920008FFFF010038B52A4B0446984203
S31508004B600D4604D04FF456712748FDF787FA2046BC
S31508004B70FFF7C6FF0122A97B04F580535A602A8AEB
S31508004B80A368002914BF4FF48061002142F0010296
S31508004B9013432A7D0B43002A14BF4FF0005200220C
S31508004BA0A360A3681343A360AB7C5BB1154B9C421F
S31508004BB002BFEA7CA3F51033C3F8D421E36D43F0B2
S31508004BC08003E3652B7B2046D5E9011243F4805325
S31508004BD0E360FFF771FF6B7B0BB1102363616B7D9D
S31508004BE01BB1A36843F48033A360AB7DEA7D1B0742
S31508004BF0120503F0E04302F4E0021343A3652B78A1
S31508004C00636138BD00C00540259200082DE9F047CC
S31508004C100646DDE90884154699468A46344F41B961
S31508004C20082323704FF4D963A360324B6760E360AF
S31508004C30FEE75AB1531E134208D00823237040F2E8
S31508004C40CB63A3602B4B6760E360FEE7FEF76DFD61
S31508004C50002D08BF04254D4538BF4D46D6F808E057
S31508004C606B1E13EA0E0FC5F1000208BF002502EA03
S31508004C700E02154409F1FF33AA4413EA0A0FC9F1D3
S31508004C80000208BF4FF0000902EA0A0202EB090314
S31508004C90726884460132A2EB0E01A3EB0E0E714533
S31508004CA015491AD2B8F1000F02D09B1AC8F800307D
S31508004CB0162540F222732570C4E902316046676002
S31508004CC0FEF739FD40F2D76325700025A360094B2E
S31508004CD06760E3602846BDE8F087B3600023237069
S31508004CE04FF4E5636760C4E90231FEF724FDF1E796
S31508004CF08A920008199300080193000830B50C46FB
S31508004D001D46114685B01BB9039200F019F80399A0
S31508004D1000230648009304220123002C18BF2046CE
S31508004D200195FFF773FF05B030BD00BF6410002082
S31508004D300022024B1A6001F00BBD00BF08D5002007
S31508004D40FEE70000014B1860704700BF08D5002039
S31508004D501FB50C4B1B78012B0AD1FEF7EFFC002878
S31508004D6014BF6FF005004FF0FF3005B05DF804FB87
S31508004D70684600F003FA9DF80000003818BF0120C5
S31508004D804042F2E714D900201FB5FEF7D7FC48B910
S31508004D90074B1B78012B02D0684600F0F5F84FF058
S31508004DA0FF3001E06FF0050005B05DF804FB00BFB9
S31508004DB014D90020704700002DE9F041224B1B78DA
S31508004DC0012B00D0FEE7214B1F78002F39D1FEF7C3
S31508004DD0ACFC1F4D044695F8008000F0E5FF40281E
S31508004DE003461C4E28701BD00C2043431A4AB8F1C0
S31508004DF0400FD358336001D100E000BF174F326827
S31508004E003B689A420DD1002001F052FA012802D0DF
S31508004E10386801F0EBFC2046BDE8F041FEF78BBC94
S31508004E2037600F4A1368013313602B78402B01D182
S31508004E3000E000BF01F09BFD2046FEF77CFCBFF3B7
S31508004E406F8FBDE8F08100BF14D9002015D9002066
S31508004E500BD6002024D9002014D6002020D9002003
S31508004E6028D900202DE9F041044608B9FFF768FF64
S31508004E70FEF764FC194E0746194D38B120232370F6
S31508004E8040F21933C4E902356660FEE7154B1B7814
S31508004E90012B08D00223237040F21D336660C4E953
S31508004EA00235BDE8F081DFF8408098F80030F92B2C
S31508004EB005D91E236660237040F22233EFE7FEF71A
S31508004EC034FC98F80030013388F80030FEF733FCDC
S31508004ED040F22D3327706660E1E700BF349300087F
S31508004EE0F493000814D9002015D900202DE9F041C3
S31508004EF0044608B9FFF724FFFEF720FC1E4F1F4E95
S31508004F0038B12023237040F24533C4E9023667607E
S31508004F10FEE71B4B1B78012B08D00223237040F2B7
S31508004F2049336760C4E90236BDE8F081DFF854808A
S31508004F3098F800302BB91F236760237040F24E3370
S31508004F40F0E7FEF7F2FB98F80050013DEDB288F85D
S31508004F5000503DB1FEF7EFFB2D236760237040F24A
S31508004F605633DFE7FEF7E7FBFFF726FF4FF45873E4
S31508004F7025706760D6E700BF34930008E6930008FB
S31508004F8014D9002015D9002070B5044608B9FFF7D2
S31508004F90D7FE254B1E78012E09D013232370234BE9
S31508004FA0636040F2F633A360214BE360FEE7214BD2
S31508004FB01B884BB9092323701C4B636040F20143DD
S31508004FC0A3601B4BE360FEE71B4D2B784BB11F23F9
S31508004FD02370164B636040F20443A360144BE360EE
S31508004FE0FEE7FEF7B5FB48B11F2323700F4B63603E
S31508004FF040F20743A3600E4BE360FEE700F0D4FEE1
S315080050000E4B0F4A18700F4B2E7018700C2358430E
S315080050100D4B1B5813600D4A136001F061FCBDE887
S315080050207040FFF78DBE00BFF6D500203493000808
S31508005030DE93000830D9002014D900200BD60020B2
S3150800504024D900200AD6002014D6002020D9002012
S3150800505008B500F0A9FEA0F140035842584108BD22
S3150800506030B14368C1F88C308368DB68C361704728
S3150800507091F83030022B03D0072B05D0034B00E004
S31508005080034BC1F88C307047024BFAE7B793000818
S31508005090A7930008AE930008044BC1F88C3018B1EA
S315080050A0826802B1D368C361704700BFB79300082E
S315080050B00023C0E9003303817047036810B533B98C
S315080050C001220281C1E90933016041601CE00289BD
S315080050D091F833400132028193F83320A2420CD86A
S315080050E05B6A002BF8D14B6243688B625962ECE726
S315080050F0C1E909325162996206E09A6A002AF7D133
S31508005100C1E909329962016010BDC36A5BB19A6848
S31508005110526A4AB9C3E902221A8A013A1A82002354
S31508005120C0E90933C3627047D0E9092111B9916210
S315080051309A60F1E74A620AB9D960EDE79162EBE74E
S3150800514038B5C56AAB685B6A4BB1FFF7DEFFC56267
S31508005150014605F10800BDE83840FFF7AEBF38BD87
S3150800516040220021044B013AC3E90011198103F1D9
S315080051700C03F8D1704700BF14D6002070B504465A
S3150800518008B9FFF7DDFD424D6A68D2B12B68414E7A
S315080051904BB92346296B40489200FFF7AFFD3060B4
S315080051A023780BB170BD336032683C4B3C491A60BA
S315080051B06B683C4A13603C4A9B0013600A681344B8
S315080051C00B602A89BAB10C2623467243296B3748E5
S315080051D0FFF794FD364B18602378002BE2D1354B48
S315080051E0354A18602B892E4913807343334A136056
S315080051F00A6813440B6001F0DBFA0023304A294998
S315080052001370304A1370304A1360304A1360304ABC
S315080052101370304A13700A6852B12048006838B1D2
S315080052200546013A45F8043BFBD1096801F054F8F4
S315080052300025294B1D7000F0AFFDFFF791FF274BA6
S315080052401D60274B1D801C4B1B88D3B90023254A9C
S3150800525020461360244A1380244A1360244A138084
S31508005260244A1360244A138000F0CAFF2378002BCF
S3150800527098D100F025F9FFF79DFD01221F4B1A7002
S3150800528090E7204600F0F8FC2378002BDED089E76B
S315080052907810002010D50020B993000814D50020F6
S315080052A00CD5002018D500201CD50020CC9300086A
S315080052B020D5002024D5002028D500202CD5002074
S315080052C014D9002015D9002020D9002024D900207F
S315080052D00AD600200BD6002032D90020F0D50020AF
S315080052E0F4D5002004D6002008D600200CD60020CD
S315080052F010D6002018D900201CD90020F6D5002089
S315080053000C2290F833300B495343CA5830B5CC18A1
S3150800531032B901252581C0E90422C850606030BD34
S315080053202589013525810024026144615061C850F0
S31508005330F5E700BF14D600200C2390F833200B495C
S315080053405A4330B58C588B1834B901251D81C0E9EC
S3150800535004448850586030BD1A8901321A810022E7
S3150800536002615A6842611061F4E700BF14D6002052
S3150800537010B5044690F8330000F026FD074B94F864
S3150800538033201B7820469A4203D1BDE81040FFF728
S31508005390D3BFBDE81040FFF7B3BF00BF0AD6002051
S315080053A038B50C4691F832100546072907D8023950
S315080053B0052906D8DFE801F0060605051919FF29AB
S315080053C024D138BDA264A4F84C3015B12046FFF7A5
S315080053D09CFE21462846FFF75FFE2046FFF7C8FFDA
S315080053E00023238684F83230EBE7A264A4F84C3015
S315080053F015B12046FFF789FE21462846FFF74CFEE1
S3150800540000232386042384F83230DAE7BDE83840DF
S31508005410FFF796BC70B504460C21D4E9043590F81C
S315080054203300104A9DB953B9414355182B8153503F
S315080054306B6000F0DFFC0023C4E9043370BD484309
S3150800544016183189013931815D611350F3E701FB83
S3150800545000221189013911812B610BB95560EAE7E0
S315080054605D61E8E714D6002010B5044631B1FFF7B0
S3150800547067FC2046BDE81040FFF7CCBF022380F842
S315080054803230F6E738B5002304460C4D286880F814
S31508005490301080F831301146FFF7E6FF5CB1296815
S315080054A004F10800CC62FFF708FE20462968BDE82B
S315080054B03840FFF7D5BD2B68DC62F6E720D9002017
S315080054C0754B82B01B78DBB28DF80530734B1B68C1
S315080054D0DBB28DF80730724B1B78DBB28DF80530DE
S315080054E0704B1B78DBB28DF805306F4B1B68DBB24F
S315080054F08DF807306D4B1B6ADBB28DF807306C4BA5
