:020000040800F2
:1000000000100020D50A0008D10A0008D10A000813
:10001000D10A0008D10A0008D10A0008D10A000854
:10002000D10A0008D10A0008D10A0008D10A000844
:10003000D10A0008D10A0008DF5E0008D10A0008D2
:10004000D10A0008D10A0008D10A0008D10A000824
:1000500015070008D10A0008D10A0008D10A0008D3
:10006000D10A0008D10A0008D10A0008D10A000804
:10007000D10A0008D10A0008D10A0008D10A0008F4
:10008000D10A0008D10A0008D10A0008D10A0008E4
:10009000D10A0008D10A0008C9100008D10A0008D6
:1000A000D10A0008D10A0008D10A0008D10A0008C4
:1000B000D10A0008D10A0008D10A0008D10A0008B4
:1000C000D10A0008D10A0008D10A0008D10A0008A4
:1000D000D10A0008D10A0008D10A0008D10A000894
:1000E000D10A0008D10A0008D10A0008D10A000884
:1000F000D10A000855660008D10A0008D10A000894
:10010000D10A0008D10A000821030008D10A00081A
:10011000D10A0008D10A0008D10A0008D10A000853
:10012000D10A0008D10A0008D10A0008D10A000843
:10013000D10A0008D10A0008D10A0008D10A000833
:10014000D10A0008D10A0008D10A0008D10A000823
:10015000D10A0008D10A0008CF750008D10A0008AA
:10016000D10A0008D10A0008D10A0008D10A000803
:1001700010B5054C237833B9044B13B1044800E0A3
:1001800000BF0123237010BD60110020000000009B
:100190002C8E000808B5034B1BB10349034800E04F
:1001A00000BF08BD00000000641100202C8E000874
:1001B000A3F5803A704700BF174B002B08BF134BC5
:1001C0009D46FFF7F5FF00218B460F461348144A62
:1001D000121A07F0DFFF0E4B002B00D098470D4B93
:1001E000002B00D098470020002104000D000D488E
:1001F000002802D00C4800E000BF07F0A7FF200055
:10020000290000F09FFA07F08DFF00BF00000800F2
:10021000000000000000000000100020601100201D
:10022000E8D900200000000000000000F0B5354DC6
:1002300093B008AC0FCD0FC40FCD0FC495E80300E9
:1002400001250026032784E803002F4C29462A2095
:10025000CDE90366CDE9056607968DF80E708DF839
:1002600008508DF809608DF80A608DF80B6001F078
:10027000ABFD29463A2001F0A7FD204603F0F6FA2F
:1002800002214FF4B06002F003FB02233246204605
:100290001E498DF8173003F079FB334632468DF84E
:1002A00019000090194920468DF8237003F09CFB3B
:1002B000A523174A0A908DF830708DF809308DF813
:1002C0000850D2F82833204643F48033C2F828334C
:1002D00005A908AA03F0C4FB02AA204603A903F05B
:1002E0006DFA0C4A04F500535A624FF48022A36A57
:1002F00043F40073A362084BC3F884215A6013B01F
:10030000F0BD00BFC0810008004000498096980001
:1003100000C003408F330F8000E100E000000000C8
:10032000F0B587B06E46184C184D21463046676AC6
:1003300003F01EFD96E8030085E80300286807F037
:10034000D5FA0DA3D3E9002307F04AFB0CA3D3E9A8
:10035000002307F06FFC0E4B0022C3E900010221CD
:1003600002AB0C4804F090FE04F50054676207B03D
:10037000F0BD00BFAFF300806666666666660A4041
:100380000000000000FEAF40004000497C1100204A
:10039000881100209411002008B5FFF747FF0122C3
:1003A000014BDA6008BD00BF0040004908B50021DC
:1003B0002A2001F009FDBDE808400021352001F0A8
:1003C00003BD00007FB5002202AB019302214FF470
:1003D00084730092034804F077FC034B186807B05D
:1003E0005DF804FB941100207C11002038B502F068
:1003F00031FD01210446084606F010FA204602F0BD
:100400002DFDFFF7C9FFFFF7DDFF0446084803F0A5
:100410002DFAFFF7CBFF02F01DFD0546002101205C
:1004200006F0FCF9284602F019FDA0B238BD00BF65
:100430000040004913B5002480210620ADF8064095
:1004400000F098F8A021062000F094F84FF4FA701C
:1004500000F0E7F88021062000F08CF8322000F050
:10046000E2F82146062000F085F80120FFF7BEFFE4
:1004700080B2ADF80600BDF8060080B202B010BD33
:100480000821062000F076B80021062000F072B89E
:100490001FB500226B460121024804F0F5FD05B0AE
:1004A0005DF804FB941100201FB519B96A46034892
:1004B00005F040F805B05DF804FB00BFA8AE0020D1
:1004C00040F2FF73C340DB0710B5044604D440F28A
:1004D0001341044801F0FEF90120034B00FA04F433
:1004E0001C6410BDE881000800D0034040F2FF7397
:1004F000C340DB0710B5044604D44FF479710448B7
:1005000001F0E8F90120034B00FA04F41C6410BD6B
:10051000E881000800E0034000B58FB00AAB02227A
:100520000893002342F21071CDE906324FF47A723B
:10053000CDE902210A4ACDE9043301921422094986
:1005400000920948094A05F07FF99DF828301BB14F
:100550008121074801F0BEF90FB05DF804FB00BF30
:10056000BC1100204E820008FCAD002039060008B6
:10057000588200080B4600B5124989B04B70124BE7
:10058000087012480093124A0223006801F080F9B3
:1005900020B14FF4D9710F4801F09CF9002204AB4F
:1005A0000093114603AB0C4804F0EAFE9DF81030AE
:1005B00023B140F2BB11074801F08CF909B05DF896
:1005C00004FB00BFA4AE0020A90400081410002002
:1005D000B811002058820008A8AE002008B51121EB
:1005E0000A20FFF7C7FF34210820FFF7C3FF0021CF
:1005F0000C20FFF7BFFF00210E20FFF7BBFF0021FB
:100600001020FFF7B7FF00211220FFF7B3FF0321EF
:100610000020FFF7AFFFBDE8084000210620FFF7EC
:10062000A9BF06F045BE06F0FFBF0620FFF748BF92
:100630000620FFF75BBF0000002280B58CB029497F
:10064000294804ABADF80E2008AE05F00FF8274995
:100650002748002204AB04F0ABFC31464FF47A701B
:1006600006F042FE40B90123224ACDE90003089971
:100670000346214806F0A1FDFFF7B0FFFFF7D8FFC2
:100680000121242001F0A0FB194F1C4D00244FF440
:1006900084732246012138460196009404F014FB2D
:1006A0002B78092B07D9FFF7EBFE0A2006F000FE96
:1006B000FFF7EAFE2C702B78114C01332B70237856
:1006C000B42B0AD9FFF7B4FF0A2006F0F1FDFFF7BB
:1006D000ACFFFFF7AFFE00232370237801332370B4
:1006E000D4E700BF67820008A8AE00207A82000825
:1006F00094110020910400088CAE0020BA11002053
:100700009011002008B5FFF707FFBDE8084000F092
:1007100023B80000084A1378013B13F0FF0301BF20
:10072000022313702022054B14BF13701A64012298
:10073000034B5A61704700BF0010002000F00340D7
:1007400000A0044008B506F05FFFFFF7DBFF06F0EE
:1007500068FF002008BD000010B50121282001F02D
:1007600033FB00240123144914480C704C800C7195
:100770004C720B7303F0F2FB282001F093FB4FF651
:10078000FF720F4B18600F4B1A60024608A1D1E9A7
:100790000001234607F036FB4FF480720A4B1860C5
:1007A0000A4BC3F88020BFF34F8FBFF36F8F10BD8C
:1007B000C0BD30420F000000021000200080054044
:1007C000CCAE0020D4AE0020D0AE002000E100E08E
:1007D00000F0BEB808B50321802002F059F80321CB
:1007E0004FF4806002F054F809214FF4C06002F029
:1007F0004FF809214FF4F06002F04AF809213E2039
:1008000002F046F809212D2002F042F8092151207A
:1008100002F03EF8002008BD10B501213A2001F099
:10082000D3FA002304221846072102F01BFF0023FD
:1008300004221846062102F015FFBDE810400023EF
:1008400004220521184602F00DBF00004FF480304D
:100850002649274A4B6E10B55066486E4FF000414E
:100860004AF6CD345166234903F480334A6C0C6454
:1008700002F001024C6BE407FCD401241E494C60D9
:100880001C4C216BC907FCD51C49D1F808168907F7
:100890005EBF4FF480241849CC6512B1154A18493F
:1008A00011640028A2BF4FF00041164A51661BB9DF
:1008B0004FF48032134B5A6605F0BEFC00F05CF832
:1008C00005F042FC05F0D6FC05F064FC05F09EFC4A
:1008D000FFF780FF05F04CFC00F043F803F0D6FC76
:1008E00003F0E4FCBDE8104005F068BF0080004064
:1008F00000900040004009400060094000C00740EF
:100900003254FFFF00A0004003F0ECBC08B5FFF735
:1009100083FF00F00DF8BDE8084000F00FB808B5FF
:1009200006F076FBBDE8084005F0A6BC70477047AE
:10093000014800F0A7B900BF8C820008024B0349B0
:10094000186800F0AFBD00BF141000201810002080
:1009500008B5002304221946012002F083FE00207E
:1009600008BD08B501213A2001F02EFAFFF730FF4B
:10097000BDE8084000F014B801213A2001F024BA83
:100980001022024BC3F8A020704700BF00D00340E4
:100990001022024BC3F8A020704700BF00E00340C4
:1009A00070B5464D8AB005AC0FCD0FC42B6812222E
:1009B000236001240021684607F0ECFB21463A2021
:1009C0008DF804408DF8104001F0FEF921465720C3
:1009D00001F0FAF94FF48073394EADF80430394B19
:1009E000304605A90793CDF824D002F0FFFC23463A
:1009F00021460422022002F035FE0221224608464A
:100A0000002302F02FFE234604220321022002F0DD
:100A100029FE042223461146022002F023FE2A4D1D
:100A20002A4B4FF44870C5F8F8344FF00213C5F85C
:100A3000F434A3F58033C5F8FC341C23C5F8E43442
:100A400006F0F2FD1420FFF7A3FF06F0EDFD2320D2
:100A5000FFF796FF06F0E8FDB9213046FFF798FF53
:100A600002F0D4FBFFF78CFF002321461A46022038
:100A700002F0F8FD002302211A46084602F0F2FDBA
:100A8000234600220321022002F0ECFD234600222F
:100A90000421022002F0E6FD304602F055FB002161
:100AA0005720C5F8F814C5F8F414C5F8FC14C5F8B7
:100AB000E41401F089F90AB070BD00BFA4820008F7
:100AC00000000A40E070720000C003400200030012
:100AD000FEE7000008B500F013F8064B064A074988
:100AE0008B4201D3FFF768FB52F8040B43F8040B69
:100AF000F6E700BF00100020348E000860110020CF
:100B0000044B054A9A60D3F8882042F47002C3F877
:100B10008820704700ED00E000000008014B1868D5
:100B2000704700BF3C100020084B1B6F03F0070309
:100B3000022B04D0032B05D0012B05D0FEE7044B7C
:100B400018687047034BFBE703487047008000407C
:100B50003C10002040100020002D310108B5FFF7A7
:100B6000E3FF054B1B6FC3F303330133B0FBF3F01B
:100B7000024B186008BD00BF008000403810002004
:100B80000048704700B4C404014B1868704700BFA8
:100B900040100020054B1860054B1B6F03F0070346
:100BA000032B01D1FFF7DABF704700BF40100020D0
:100BB000008000400020704700487047002D310140
:100BC0004FF094439868C0F304400C2822D8DFE823
:100BD00000F0092121212121071719211B1D1F00C8
:100BE0000F4870479B6803F04073B3F1807F13D0C8
:100BF000B3F1007F12D00B4A002B08BF104670479C
:100C000009487047094870470948704709487047C4
:100C100009487047002070470848704708487047E7
:100C2000405DC60000093D000024F400C0EA210137
:100C300080BA8C010048E801005A620280841E00DC
:100C400040420F004FF4004070474FF47A707047F5
:100C5000014B1868704700BF441000200023036058
:100C60007047000038B504460D4601B118B9382167
:100C7000034800F02FFE23682B60256038BD00BFBD
:100C8000B8820008D0E900031847000038B50D46C7
:100C90000446B0B1012817D0022817D0032803D189
:100CA0003F23EB40DB0704D44FF47971094800F08F
:100CB00011FE302001214443074B01FA05F51D5177
:100CC00038BD40F2FF73ECE70F23EAE740F2FF3351
:100CD000E7E700BFE881000840E0034038B50D4673
:100CE0000446B0B1012817D0022817D0032803D139
:100CF0003F23EB40DB0704D440F21341094800F0E6
:100D0000E9FD302001214443074B01FA05F51D514F
:100D100038BD40F2FF73ECE70F23EAE740F2FF3300
:100D2000E7E700BFE881000840D0034010B5044663
:100D300001213A2001F048F8A3782078B3FA83F330
:100D4000042261785B0902F08DFC002010BD03468F
:100D500059789B7800780BB9FFF798BFFFF7BEBFB3
:100D6000034659789B7800780BB9FFF7B7BFFFF7B8
:100D70008DBF000038B504784578ACB1012C16D091
:100D8000022C16D0032C03D13F23EB40DB0704D405
:100D900040F22E41084800F09DFD302301225C43C3
:100DA000064BAA401A5138BD40F2FF73EDE70F23FE
:100DB000EBE740F2FF33E8E7E881000840F003404A
:100DC00070B5047805464678F4B1012C1FD0022C8A
:100DD0001FD0032C03D13F22F240D30704D440F2AA
:100DE000FE310D4800F076FD30235C4303F1804373
:100DF000103403F57033E358F34003F00100AB788F
:100E00000BB980F0010070BD40F2FF72E4E70F22E1
:100E1000E2E740F2FF32DFE7E88100082DE9F04F1A
:100E20009A46564B85B01B7806460F461546DDF8A8
:100E30003C909DF844B0DDF85080002B00F08D8090
:100E4000072A00F28C800E9B002B00F08880B9F1FD
:100E5000000F00F08480129BB3F5006F7FDC012847
:100E600002D1109B002B7AD0454B03EB05131B7B63
:100E7000002B76D0434C10220021684607F08AF9F7
:100E800004EB45141022002F59D13946204607F0B3
:100E900081F943F210036380BBF1000F03D1E378C3
:100EA00043F00303E370374A0E9B02EB451CCCE989
:100EB0000193129B6901013BC3F30A009DF84C307A
:100EC000012E03F003034FEA836343EA001E5358E5
:100ED0002D48CDF800A000EA03004EEA000353506D
:100EE00041D113230CF1100ECCF80C309CE80F000C
:100EF0008EE80F006FF00301DCF81C20109B61F3FB
:100F00009F02012FCCF81C20CCF8143003D1CCF870
:100F10001890CCF804300027194A290102EB051378
:100F200042F80180159A28465A60694622469F6019
:100F30005E7302F06FFF384605B0BDE8F08F002108
:100F4000204607F027F94FF444736380BBF1000F8C
:100F5000A9D1E37843F03003A4E70C48ECE70C4850
:100F6000EAE70C48E8E7B8F1000FD4D19CF802306A
:100F700068F304138CF80230CDE700BFD0B0002036
:100F800050AF0020D0AF00200F80FFF3028000F0B0
:100F9000018000F0078000F038B5124B05461B7841
:100FA000DBB1E0B101F05DFF0F4A00231146147B75
:100FB00054B92B6001251A0101EB03131D738C50EA
:100FC00001F055FF204638BD0133082B02F1100215
:100FD000EDD101F04CFF0548F5E70548F3E705487A
:100FE000F1E700BFD0B0002050AF0020048000F037
:100FF000028000F0018000F0154B13B51868002343
:1010000001908DF8043001F02CFF124B1C7824B1B4
:1010100001F02DFF104802B010BD01221A7001F03E
:1010200026FF0E4B01A81C731C7783F82C4083F815
:101030003C4083F84C4083F85C4083F86C4083F874
:101040007C4008238DF8073002F09AFE2046E2E744
:1010500020830008D0B00020038000F050AF0020B3
:1010600010B588B00E9C009207940D9C0246069421
:101070009DF8304005940B9C04949DF828400394FF
:101080000024CDE9013420460B462146FFF7C6FE79
:1010900008B010BD10B588B00E9C009207940D9C4E
:1010A000024606949DF8304005940B9C04949DF8EC
:1010B000284003940024CDE9013420460B46012149
:1010C000FFF7ACFE08B010BD2DE9F843174B1F6DBC
:1010D0005B6D1F4000D5FEE701260025144CDFF8AC
:1010E0005480DFF85490374217D02368C8F8506016
:1010F0009BB1A168284601316268A1609847637B73
:10110000012B0AD148B909EB45131A7B60F3410260
:101110001A731A7F60F341021A770135082D4FEADE
:10112000460604F11004DED1BDE8F8830000044057
:1011300050AF002000200440D0AF00204FF4807357
:101140008363836C9A01FCD4836C1B0600D47047C4
:10115000C36BF9E72DE9F34104460B46E27B94F8B3
:101160000BC0007A677AA57A217B94F80D80A67B64
:1011700084F844C084F84520002B3DD0237F0BBB6E
:101180000422019302F06EFA019B01224146384687
:1011900002F068FAA27F3146012A8CBF0123019B2D
:1011A0000422284602F05EFAE37F3BB901230422C1
:1011B00094F8451094F8440002F054FA002002B06C
:1011C000BDE8F0810023012202F04CFA0023042242
:1011D0004146384602F046FAA37F0222012B94BF13
:1011E000002301233146284602F03CFAE37F002B1E
:1011F000E4D101230222DBE70222019302F032FA5A
:10120000019B02224146384602F02CFAA27F314669
:10121000012A8CBF0123019B0222284602F022FAF8
:10122000E37F002BCAD11A46C2E7000038B5054655
:10123000B0B1B9B1B2B1B2F5006F13DC01F011FE7B
:1012400095F84C3003F0FF041BB101F010FE064886
:1012500038BD012385F84C3001F009FE2046F7E740
:101260000248F5E70248F3E7032000F0012000F010
:10127000022000F0436D70B5002B054603DCB7215A
:101280000C4800F027FB01F0ECFD6C6D0646013CBC
:101290006C654CB901F0DEFD05462146012005F0E4
:1012A000BDFA284601F0DAFD3046BDE8704001F095
:1012B000DEBD00BF2483000838B5144601F0D1FD1F
:1012C0000023A36484F84C302364237F0546012B5C
:1012D00003D104F15C0005F0EFFE636B1BB100214C
:1012E0002046E26B9847284601F0C1FD2046FFF7F3
:1012F000C1FF012038BD70B5044601F0B2FD636D39
:1013000005464BB901F0A6FD01210646084605F049
:1013100085FA304601F0A2FD636D2846013363650E
:10132000BDE8704001F0A3BD2DE9F04F1E4600233B
:1013300087B080F85030109B0446436390F85830D3
:1013400089469246C663002B38D14FF44063056846
:101350006B614369092B03D905F12C08443506E07C
:101360000BBF05F1200805F1240838353C356769C5
:101370004FF0010B082F94BF002701272046FFF7ED
:10138000BAFF134B5246CDE90273216B4346A06A64
:1013900004940196CDF800B0FFF77CFE00232A46A6
:1013A000CDE90333CDE901674B46E16A606ACDF8C8
:1013B00000B0FFF755FE07B0BDE8F08F012BFAD162
:1013C0000068FFF7BBFE256805F13C08C6E700BFD3
:1013D000B912000801292DE9F8432CD82A4B2B4FCC
:1013E0001C68DFF8B880DFF8B890743C14F1740F13
:1013F00001D1BDE8F88326680521304601F0CCFE16
:10140000234B9E4213D0234B9E4212D0224D03F514
:1014100080439E4208BF4D4601F01CFD2B6843F0FF
:1014200018032B6001F01AFD646F743CDEE73D4643
:10143000F2E74546F0E702390129DAD8124B134E9C
:101440001C68164FDFF85880743C14F1740FD0D02C
:1014500023680F4A934213D00E4A934212D00E4D86
:1014600002F58042934208BF454601F0F3FC2B6829
:1014700023F018032B6001F0F1FC646F743CE4E787
:101480003546F2E73D46F0E7D4B00020C4C403403F
:101490000000014B00000A40A4C40340E4C4034020
:1014A00004C503402DE9F0430B688D4A054693427D
:1014B0000C468DB007D08B4A934204D002F580428F
:1014C000934240F0F4804FF001080DF10409864E7C
:1014D00012220021484606AF06F05CFE0FCE8DF8C2
:1014E00008800FC78DF81480CDF82890002D00F0EB
:1014F000DC80002678220021284606F04BFE236877
:10150000774A6E65934240F08D805622A5F84E20B2
:101510004FF48012DFF808C2C5E90BC22B6001232B
:10152000A44685F858302F1DBCE80F000FC79CE873
:101530000F0087E80F00637E012B08BF8DF809308C
:10154000A37E002B40F099808DF82630237E012168
:10155000012B03BF00238DF825304FF47A73E36825
:101560003A20089300F030FC0121B5F84E0000F05D
:101570002BFC2369DA1F092A64D8063B8DF8243036
:10158000A36923F47F0323F47F4313B901238DF868
:101590000830206806A901F029FF544BE07E06F1CF
:1015A000260103EB4113002872D11D225A60237AD1
:1015B000227942EA03424D4B03EB4616C6F8DC247F
:1015C000677A627942EA0742C6F8D424A77AA279F8
:1015D00042EA0742C6F8D82430B9E07AE27903EB50
:1015E000411342EA00429A6001212846FFF7B2FD0A
:1015F000044640BB01F035FC3D4B1A78002A49D126
:1016000001221A7001F033FC05F002FDFFF7F4FC33
:10161000002105F12400FFF7BFFC014600283CD063
:10162000344C10E02F4A934209D15722A5F84E209E
:101630004FF48812304F4646C5E90B726EE72F4AC9
:10164000934210D02E4C2F4B1B681BB92E492F48AC
:1016500005F084F92B4805F17401FFF703FB2046E0
:101660000DB0BDE8F0835822A5F84E204FF490123B
:10167000274EC5E90B62022650E7012B01D1042356
:1016800062E7022B3FF460AF032BDBD106235BE75D
:101690001C228BE701F0EBFBB8E705F12800FFF710
:1016A0007BFC04460028CED0BAE71A4CCBE71A4F91
:1016B00006AE0FCF0FC697E8030086E80300002DA3
:1016C00000F0D98078220021284606F063FD00232F
:1016D000226812496B658A4224D0094CBFE700BFDB
:1016E0000000014B00000A409083000800C0034046
:1016F000E0B00020092000F00100110000400A4085
:10170000022000F0D4B0002048100020D8B0002003
:1017100001001200012000F0A483000800C0054071
:101720000100100029212746A5F84E104FF4802112
:10173000524885F858302E1DC5E90B012A600FCF9D
:101740000FC697E80F0086E80F00637E012B08BFE5
:101750008DF82630A37E002B67D1ADF82830237E8C
:101760000121012B03BF00238DF825304FF47A733C
:10177000E3683A20089300F027FB0121B5F84E00FA
:1017800000F022FB23691A1F0C2AA6D8033B20680D
:1017900006A98DF8243002F08DFCA36923F47F03A1
:1017A00023F47F4323B92A68936843F4803393601A
:1017B000237A2079617940EA0340637AA27941EA89
:1017C0000341E67EA37A42EA03422D4B002E3CD130
:1017D0001D26C3F89867C3F8B007C3F8A817C3F865
:1017E000AC27E17AE27942EA0142C3F89C27012161
:1017F0002846FFF7AFFC044600287FF430AF01F025
:1018000030FB204B1A7852BB01221A7001F02FFBDB
:1018100005F0FEFBFFF7F0FB002105F12400FFF7C8
:10182000BBFB0146F0B1184C19E7012B02D14FF474
:10183000007392E7022B02D14FF480738DE7032BE4
:101840007FF44BAF4FF4407387E71C24C3F89847ED
:10185000C3F8B007C3F8A817C3F8AC27C7E701F06F
:1018600006FBD7E705F12800FFF796FB04460028A2
:101870003FF4F5AED7E7054CF1E600BF02000400E7
:1018800000C00340E0B00020092000F0012000F07B
:10189000F0B51646027F0546012A0F4685B011D0E5
:1018A0001A460393FFF7C2FC044640B966B10A9A90
:1018B0003946009228463246039BFFF735FD204605
:1018C00005B0F0BD014CFAE7014CF8E7082000F044
:1018D000022000F0FEE74FF04023D3F88420D20628
:1018E000FBD4D3F88400C0F38110704738B5194B8E
:1018F0000546D3F820310C4603F00703013B052BC6
:1019000020D8DFE803F0030B130F171BFFF706F9CE
:10191000052305B1286004B1237038BDFFF734F901
:101920000323F6E7FFF74CF90723F2E7FFF744F943
:101930000223EEE7FFF7F2F80623EAE7FFF724F9C0
:101940000423E6E7044840F61771FFF7C3FF0023BE
:101950001846DEE700800040BC83000838B5154B10
:101960000546D3F828310C4603F00703013B032B4F
:1019700017D8DFE803F0020E120AFFF7CFF80523AD
:1019800005B1286004B1237038BDFFF719F90723AA
:10199000F6E7FFF7F9F80323F2E7FFF70DF9022363
:1019A000EEE705484FF42871FFF794FF002318462F
:1019B000E6E700BF00800040BC830008F7B50024C4
:1019C000154B0194D3F88051074605F00305022D0D
:1019D0000E4614D0032D0DD0012D15D1214601A89E
:1019E000FFF784FF0F230FB1019A3A6006B13370FD
:1019F00003B0F0BDFFF7E4F807230190F3E7FFF72A
:101A0000DBF82B460190EEE741F252010348FFF765
:101A100061FF2346E7E700BF00800040BC83000869
:101A200038B50F4B0546D3F890320C4603F003034C
:101A3000012B09D0022B0BD1FFF7C2F8072305B108
:101A4000286004B1237038BDFFF7B6F80223F6E72B
:101A5000044840F28B31FFF73DFF00231846EEE7C4
:101A600000800040BC830008002337B50193184B69
:101A70000546D3F820320C4603F00703013B032B45
:101A80001ED8DFE803F0020E1318002101A8FFF7AB
:101A900065FF11230DB1019A2A6004B1237003B0D0
:101AA00030BDFFF78DF807230190F3E7FFF7CAF881
:101AB0000A230190EEE7FFF7CBF809230190E9E74D
:101AC00040F26E210348FFF705FF0023E2E700BF65
:101AD00000800040BC83000838B5124B0546D3F89F
:101AE00040310C4603F00303022B0BD0032B0DD027
:101AF000012B0FD1FFF7A6F80A2305B1286004B126
:101B0000237038BDFFF7A4F80923F6E7FFF79DF827
:101B10000B23F2E7044840F64571FFF7DBFE002394
:101B20001846EAE700800040BC830008002337B570
:101B30000193184B0546D3F860320C4603F00703B7
:101B4000013B032B1FD8DFE803F0020E191400211C
:101B500001A8FFF7CBFE0F230DB1019A2A6004B153
:101B6000237003B030BD002101A8FFF7B5FF10239B
:101B7000F2E7FFF725F807230190EDE7FFF71CF8E0
:101B800002230190E8E740F203310348FFF7A2FE89
:101B90000023E1E700800040BC83000873B5002407
:101BA0000F4B0194D3F87032064603F00303012B68
:101BB0000D4607D0022B11D040F261310948FFF7E2
:101BC00089FE04E0214601A8FFF786FF10240EB12C
:101BD000019B336005B12C7002B070BD1424F6E790
:101BE00000800040BC83000838B5154B0546D3F88B
:101BF00000320C4603F00703013B032B18D8DFE843
:101C000003F0020A0E12FFF71DF80A2305B128603F
:101C100004B1237038BDFFF71BF80923F6E7FFF77F
:101C200014F80B23F2E7FEF799FF0E23800AEDE785
:101C3000044841F20711FFF74DFE00231846E5E77F
:101C400000800040BC83000838B5154B0546D3F82A
:101C500008320C4603F00703013B032B18D8DFE8DA
:101C600003F0020A0E12FEF7EDFF0A2305B1286009
:101C700004B1237038BDFEF7EBFF0923F6E7FEF74A
:101C8000E4FF0B23F2E7FEF769FF0E23800AEDE77E
:101C9000044840F2EC41FFF71DFE00231846E5E73B
:101CA00000800040BC83000838B5124B0546D3F8CD
:101CB00040320C4603F00303022B0BD0032B0DD054
:101CC000012B0FD1FEF7BEFF0A2305B1286004B136
:101CD000237038BDFEF7BCFF0923F6E7FEF7B5FF1A
:101CE0000B23F2E7044841F2CA01FFF7F3FD00239A
:101CF0001846EAE700800040BC83000838B5124B64
:101D00000546D3F850320C4603F00303022B0FD0E4
:101D1000032B05D0012B0FD1FEF794FF0A2302E01D
:101D2000FEF793FF0B2305B1286004B1237038BD83
:101D3000FEF78EFF0923F6E7044840F2CF21FFF7B4
:101D4000C9FD00231846EEE700800040BC83000870
:101D500038B5124B0546D3F860310C4603F0030347
:101D6000022B0BD0032B0DD0012B0FD1FEF76AFFF6
:101D70000A2305B1286004B1237038BDFEF768FF5F
:101D80000923F6E7FEF761FF0B23F2E7044840F66C
:101D90009271FFF79FFD00231846EAE7008000409C
:101DA000BC83000870B5054614460E4601F052F893
:101DB000296881EA040202EA06044C402C60BDE86E
:101DC000704001F04BB8000070B5440905460E465E
:101DD0000ED140F205110F48FFF77CFD05F01F05FD
:101DE000AEB104F58053012000FA05F51D6070BD09
:101DF000012C08D0022C08D040F20F110548FFF743
:101E000069FD0024EAE7044CE8E7044CE6E704F542
:101E10000053E8E7BC83000864800040688000400D
:101E2000B0F5207F10B534D009D8B0F5007F2AD0A6
:101E300003D898B1B0F5C07F10D0002421E0B0F5F0
:101E4000607FFAD1154BD3F88030C3F301149B06A1
:101E500017D5032C15D04FF4CE610FE00F4B1C6F3C
:101E6000230B13F00E0FC4F303340AD0032C08D055
:101E7000072C06D00F2C04D04FF4CC610848FFF794
:101E800029FD601C10BD054BD3F89040C4F30464D9
:101E9000F7E7024B1C6FC4F38024F2E70080004098
:101EA000BC830008002130B5B0F5807F85B00446C2
:101EB000029100F0FF806CD8002800F0DB80A0F1D8
:101EC0002004A3B2602B74D8602C72D8DFE814F021
:101ED000D200D500D200D500E800E800E800E80014
:101EE000E800D500ED007D0004019D007D00D500D7
:101EF000D500D50071007100710071007100710092
:101F000071000401D500D500D5001C010901D500E0
:101F10007100710071007100710071007100710039
:101F200071007100710071000E01E800D200D20052
:101F3000D200B0007D007D00B80013019200C70000
:101F4000C7007100710071007100710071007100B3
:101F500071007100710071007100710071007100F9
:101F600071007100710071007100710071007100E9
:101F700071007100710071007100710071007100D9
:101F800071007100710071007100710071007100C9
:101F9000CC00B0F5E06F00F0A4803BD8B0F5607FD6
:101FA00075D01DD8B0F5007F71D008D8B0F5C07FCE
:101FB00060D040F2DB115748FFF78CFC57E0B0F5DA
:101FC000207F5AD0B0F5407FF3D1FEF7C7FD04461D
:101FD0004FF42070FFF724FFB4FBF0F0400845E019
:101FE000B0F5B06F61D00AD8B0F5806F58D0B0F5B9
:101FF000A06FDED1002102A8FFF736FD37E0B0F573
:10200000C06F69D0B0F5D06FD3D1002102A8FFF71F
:10201000EBFD2CE0B0F5286F6DD016D8B0F5186F39
:1020200064D00AD8B0F5F06F6ED0B0F5106FC0D1A3
:10203000002102A8FFF708FE19E0B0F5206FB8D123
:10204000002102A8FFF772FD11E0B0F5306F57D004
:10205000AFD3B0F5386F3FD0B0F5406FA9D10021B4
:1020600002A8FFF77BFC02E0FEF75EFD02900298FB
:1020700005B030BDFEF772FDF8E7FEF76FFD0446D0
:102080004FF42070FFF7CCFEB4FBF0F0EEE7FEF764
:102090004BFD05462046FFF7C3FEB5FBF0F0E5E734
:1020A000002102A8FFF722FCE1E7002102A8FFF7C8
:1020B00085FCDCE74FF0E02303911B695B0705D546
:1020C000FEF74CFD0390039B0293D0E70DF107014F
:1020D00003A8FFF701FDF6E7002102A8FFF7FCFCCB
:1020E000C5E7002102A8FFF7DFFDC0E7002102A835
:1020F000FFF704FEBBE7002102A8FFF74FFDB6E79C
:1021000002A8FFF78DFCB2E7002102A8FFF720FE2E
:10211000ADE700BFBC83000808B58020FFF7C2FE12
:10212000034B98429EBF4FF48032024B1A6708BDA2
:10213000005A620200A000404FF480320F4B70B58D
:102140009A66064600200D46FFF76AFE41F6713298
:102150000B4B7043DC690B49DA635A68884204F41C
:10216000803422F4401203D9012D18BF42F48012AA
:102170005A600CB10022DA6370BD00BF00900040CD
:1021800000000340005A620208B5FEF7F9FCBDE802
:1021900008400021FFF7D0BF002307B5B0F5807FCE
:1021A0008DF8023000F0E18077D8582868D83828B8
:1021B00006D8243883B2092B48D940F2A371C6E06F
:1021C00039381F28F9D801A353F820F093230008C9
:1021D000BB210008BB210008BB2100089F23000889
:1021E000E9230008BB210008BB210008BB2100082F
:1021F000BB210008BB210008BB210008BB2100084F
:10220000BB210008BB210008BB210008BB2100083E
:10221000BB210008BB210008F5230008C3220008E9
:10222000BB210008BB210008BB2100080F230008C8
:10223000BB210008BB210008012400080D24000870
:10224000DD23000833230008332300080928B4D80D
:1022500001A353F820F000BFC3220008C3220008E6
:10226000C3220008C3220008C3220008BB210008C3
:1022700057230008BB21000893230008E52200082B
:1022800080289AD1674B1B6F03F00703013B032B98
:102290005BD8DFE803F05854979FB0F5086F00F063
:1022A000848025D8B0F5C06F73D010D8B0F5A06F7A
:1022B00000F09480B0F5B06F4DD0B0F5806F7FF432
:1022C0007CAF00200DF10201FFF710FB48E0B0F5F4
:1022D000E06F00F08980B0F5F06F60D0B0F5D06F9E
:1022E0007FF46BAF00200DF10201FFF77DFC37E0BA
:1022F000B0F5286F00F08A800FD8B0F5186F79D04C
:10230000B0F5206F7CD0B0F5106F7FF456AF002091
:102310000DF10201FFF798FC22E0B0F5306F7BD0A1
:10232000FFF44BAFB0F5386F33D0B0F5406F7FF4AA
:1023300044AF00200DF10201FFF710FB10E0052370
:102340008DF802300CE00223FAE740F20B713648B8
:10235000FFF7C0FA04E000200DF10201FFF72EFBA9
:102360009DF8020003B05DF804FB01934FF0E023F9
:102370001B695B0707D5FEF7F1FB0C238DF80330D3
:102380009DF80330DCE70DF1030101A8FFF7A4FB82
:10239000F6E700200DF10201FFF79EFBE0E70020C9
:1023A0000DF10201FFF7D4FCDAE71E4BD3F8003140
:1023B00003F00303022B07D0032B09D0012B0BD111
:1023C000FEF7E2FB0323BBE7FEF742FC0923B7E776
:1023D000FEF7F0FB0823B3E70123B1E700200DF17E
:1023E0000201FFF741FBBBE700200DF10201FFF7FF
:1023F0005BFCB5E700200DF10201FFF77FFCAFE7C2
:1024000000200DF10201FFF791FBA9E700200DF17B
:102410000201FFF7C3FBA3E718460DF10201FFF726
:10242000FFFA9DE700800040BC83000870B5037888
:1024300004460F2B04D940F601418148FFF74AFAC0
:1024400063780F2B04D940F604417D48FFF742FA28
:10245000A3780F2B04D940F607417948FFF73AFAE1
:10246000E3780F2B04D940F60A417548FFF732FA9A
:1024700023790F2B04D940F60D417148FFF72AFA52
:1024800063793F2B04D94FF441616D48FFF722FA7D
:10249000A3793F2B04D940F613416948FFF71AFA94
:1024A000E379032B04D940F616416548FFF712FA89
:1024B000237A032B04D940F619416148FFF70AFA41
:1024C000637B032B04D940F61C415D48FFF702FAF9
:1024D0008020FFF761FE032800F093804FF4801204
:1024E000584B594E5A6645F60E034FF0A062C6F897
:1024F0008030564B9A624FF4803203F580539A62D3
:10250000B56D15F48035FBD1514B0F21D3F87C21EB
:102510005048C2F30312FFF745FC637822781B058D
:1025200043EA0263A2794FF040711343E2784A48CC
:1025300043EA0243227943EA0233627943EA82138F
:102540003361B369E27A03F000431343E27943EA6B
:102550008263227A43EA0263627A43EA0243A27AFE
:1025600043EA0223B3614FF00072FFF71BFC4FF404
:1025700000624FF440613948FFF714FC617B336A15
:10258000002918BF0825227B23F00F0343EA01032B
:1025900043EA82032C4A45EA03051562304D31D1E6
:1025A000A37C916AA07BDB000D4043EA4013E17BF2
:1025B0002B4343EA011343F480339362294B916D1B
:1025C00033EA0101FBD14FF0807120488162136929
:1025D000A57823F4700343EA055313614FF00043D9
:1025E0008361237C0BB9204B9962637C1BB94FF448
:1025F00080321D4B9A62E37C1BB1134B1B4AC3F81C
:10260000802070BD022909D100234FF47F4113615E
:10261000174893614FF40852FFF7C4FB0A49237C23
:102620008A6AA07B1B062A4043EA40131343A27C1C
:1026300043EAC203627C43EA02438B62DBE700BFEA
:10264000BC830008009000400040004A0050004A4F
:102650000080E00F4040004A1840004A3840004ADD
:10266000C7FFFEFE030001000060004AF1A7FFFF64
:102670003440004A014B93F900007047501000208D
:1026800010B583780446072B04D940F685512A48B3
:10269000FFF720F9E378032B04D940F68751264849
:1026A000FFF718F92378032B04D940F68951224803
:1026B000FFF710F994F90130002B04DA40F68B5142
:1026C0001D48FFF707F94FF400011C4A6378516673
:1026D0004FF4D151022002F5B832516218494F2B04
:1026E00048604FF0010028BF4F2301F5805148603A
:1026F0001169C903FCD4217843EA01235361E378CB
:10270000A1781B0143EA012361790B43217943EA54
:1027100041039360E379A1791B0143EA4113617A94
:102720000B43217A43EA41035360A37A13B16FF458
:10273000D153536210BD00BFBC830008009000401D
:1027400000100240014B1880704700BF521000205B
:102750000029CCBF01210021FFF7EEBCB0F5207F9E
:1027600010B565D00ED8B0F5007F4FD003D800B3B8
:10277000B0F5C07F1DD040F2E161BDE810403448A3
:10278000FFF7A8B8B0F5607FF5D14C1E012C06D933
:10279000042904D040F2C7612D48FFF79BF82D4A69
:1027A000D2F8803023F0300343EA0413C2F88030BB
:1027B00010BD102901F1FF3404D8274B23FA01F191
:1027C000CB0704D440F29E612148FFF783F8FFF75E
:1027D000DBFC00F045F84FF48031204B1D4A1967AF
:1027E000136F23F4704343EA04331367FEF7B6F91B
:1027F0000446FFF770F8C0F102012046FFF7A8FF7A
:1028000000F034F8BDE81040FFF786BC4C1E1F2CCA
:1028100004D940F2D5610E48FFF75CF80D4BD3F8B0
:10282000901021F0F85141EA0461C3F89010BFE71D
:102830004C1E012C04D940F2DB610548FFF74AF831
:10284000044B196F21F4806141EA84211967AFE7D5
:10285000BC83000800800040160101000090004089
:1028600002214FF42070FFF779BF000008B54FF444
:10287000C070FFF717FBBDE80840044988428CBFD1
:10288000022101214FF42070FFF768BF80F0FA02A7
:10289000B0F5807FF8B50C4600F0568176D8582800
:1028A00068D8382806D8243883B2092B48D940F68E
:1028B00066216BE139381F28F9D801A353F820F0BD
:1028C000C32B0008AF280008AF280008AF28000875
:1028D000EF2B0008512D0008AF280008AF28000892
:1028E000AF280008AF280008AF280008AF2800086C
:1028F000AF280008AF280008AF280008AF2800085C
:10290000AF280008AF280008AF2800087D2D000878
:10291000B9290008AF280008AF280008AF28000830
:102920002B2A0008AF280008AF280008A92D0008AE
:10293000E92D0008DF2C00085F2A00085F2A000844
:102940000928B4D801A353F820F000BFB929000822
:10295000B9290008B9290008B9290008B9290008CF
:10296000AF280008092B0008AF280008C32B000877
:10297000F129000880289AD18B1E062B00F2B9801D
:10298000DFE803F0B4A5B7BFB7B77900B0F5086FBB
:1029900000F0868138D8B0F5C06F00F012811BD8E6
:1029A000B0F5A06F00F09B81B0F5B06F00F0AC8087
:1029B000B0F5806F7FF47BAF023CE4B2052C00F2EF
:1029C000BC80AD4B195DAD4AD2F8203123F007032E
:1029D0000B43C2F8203179E0B0F5E06F00F0B88128
:1029E000B0F5F06F00F00381B0F5D06F7FF45FAF0A
:1029F000093C052C00F21F81DFE814F00F012401CF
:102A000019011D011D011B01B0F5286F00F0EC81BB
:102A100017D8B0F5186F00F0B181B0F5206F00F055
:102A2000C381B0F5106F7FF442AF093C052C00F272
:102A30001981DFE814F009011E01130117011701C4
:102A40001501B0F5306F00F0E681FFF430AFB0F55E
:102A5000386F00F0B680B0F5406F7FF428AF023CCD
:102A6000052C00F26C81DFE814F0660168016A0150
:102A700071016A015C01002504264FF480370121B1
:102A8000022000F049FAFFF77FFBFFF7E9FE7C4BDD
:102A90007A4A1F67136F23F0070333431367FEF768
:102AA0005DF80646FEF717FFC0F102013046FFF75A
:102AB0004FFE0121002000F087FAFFF7D7FEFFF755
:102AC0002BFB1DB9032C01D16E4B9F62F8BD4FF457
:102AD00080126B4B03265A664FF480326A4B9D6A14
:102AE00003F58053C5F300659A62C6E70025012609
:102AF000C3E7002540F2DD716448FEF7EBFE2E4689
:102B0000BBE700250226B8E7072C12D00F2C12D005
:102B1000022C05D040F621015C48FEF7DBFE0024C4
:102B2000564AD2F8803123F003031C43C2F8804197
:102B3000CCE70324F4E70124F2E740F652015348BE
:102B4000FEF7C8FE00213EE70C2924D01AD8A1F1D7
:102B50000904022C18D84FF48032484B4C49586E67
:102B600003F580535A664B6A43F001034B62C1037D
:102B70005CBF484B5A664FF0E022136923F0040310
:102B80001361A3E71029E6D040F67A01BDE8F840CA
:102B90003E48FEF79FBE4FF48032384B3C49586E9A
:102BA00003F580535A664B6A23F001034B62C3035B
:102BB0005CBF384B5A664FF0E022136943F00403C0
:102BC000DEE7093CE4B2022C0AD8334B195D2B4AEC
:102BD000D2F8403123F003030B43C2F8403175E7CC
:102BE00040F696012948FEF775FE0021EFE7093C03
:102BF000E4B2022C0AD8294B195D204AD2F8603180
:102C000023F003030B43C2F860315FE740F6B101E4
:102C10001E48FEF75FFE0021EFE702221749D1F8B8
:102C2000003223F007031343C1F800324EE70322BA
:102C3000F4E70422F2E740F6F6011448FEF74AFEF4
:102C40000022EBE70122E9E702220C49D1F8083221
:102C500023F007031343C1F8083237E70322F4E7F0
:102C60000422F2E740F616110848FEF733FE002270
:102C7000EBE70122E9E700BF218400080080004063
:102C8000009000400060004A0040004ABC830008F9
:102C900000C0074000A000402784000827840008E7
:102CA0004C1E082C12D8DFE804F01611181111116F
:102CB000110F050002226349D1F8003123F003030C
:102CC0001343C1F8003101E70322F4E740F6321163
:102CD0005D48FEF7FFFD0022EDE70122EBE7073C30
:102CE0000A2C15D8DFE804F006141210141414147A
:102CF00014141B0002225349D1F8203223F0070399
:102D00001343C1F82032E1E60322F4E70422F2E79C
:102D100040F692114C48FEF7DDFD0022EBE7012260
:102D2000E9E704224749D1F8283123F00703134388
:102D3000C1F82831CAE60322F4E70222F2E740F69E
:102D4000AE114148FEF7C6FD0022EBE70122E9E79C
:102D5000093CE4B2022C0AD83C4B195D394AD2F83E
:102D6000403223F003030B43C2F84032AEE640F694
:102D7000E7113548FEF7AEFD0021EFE7093CE4B26C
:102D8000022C0AD8324B195D2E4AD2F8503223F069
:102D900003030B43C2F8503298E640F603212A4859
:102DA000FEF798FD0021EFE70F2C17D012D8022C68
:102DB00016D0072C16D040F61D212348FEF78AFDB9
:102DC00000222049D1F8603223F007031343C1F8F1
:102DD00060327BE6102CEED10222F2E70122F0E70E
:102DE0000322EEE70422ECE7102C10D0142C10D0B4
:102DF00040F64B211448FEF76DFD00221149D1F831
:102E0000703223F003031343C1F870325EE60122EF
:102E1000F4E70222F2E7022910D0072910D040F689
:102E20005E210948FEF756FD00220649D1F890328E
:102E300023F003031343C1F8903247E60122F4E77D
:102E40000222F2E700800040BC83000827840008CB
:102E500027840008EFF3108072B6704700B962B69D
:102E60007047EFF31180302383F31188704780F3AC
:102E700011887047034B5868C0F30800003818BF2A
:102E80000120704700ED00E0EFF31083DB0706D46C
:102E9000EFF311802F2894BF0020012070470120FC
:102EA00070470000024A536B0342FCD1704700BFD9
:102EB0000040094070477047704700000A4A10B54B
:102EC0001369044643F00403136103F029FFFFF77D
:102ED000F2FF30BFFFF7F0FF03F036FF1CB9BDE88B
:102EE0001040FDF73BBE10BD00ED00E0084A10B5F4
:102EF0001369044643F00403136103F011FF30BF6C
:102F000003F022FF1CB9BDE81040FDF727BE10BD3D
:102F100000ED00E0704770472DE9F0414FF040238D
:102F20000446D3F88420D006FBD4D3F88430C3F30E
:102F300081139C423FD0FDF7F7FD012C05460BD1D4
:102F40001E4B984204D940F216611D48FEF7C2FCA0
:102F500001212846FFF7FCFBFFF77CFF4FF00072D2
:102F6000184B07465A662046FFF7A4FF4FF48063CC
:102F70004FF04026621E9340DFF844803367736E43
:102F80009A0103D4D6F884309B060AD53846FFF759
:102F900065FF022C0FD12846BDE8F0410021FFF764
:102FA000D7BBD6F884309906E9D540F22461404673
:102FB000FEF790FCE3E7BDE8F08100BF005A620233
:102FC0002A8400080060004007B518B90191FDF798
:102FD000ABFD0199064B1B7843B1064B984205D8CF
:102FE000012003B05DF804EBFFF796BF0220F8E77D
:102FF000E1B00020005A62020278034B0121002058
:103000001A70FFF7E1BF00BFE1B000204FF040228F
:10301000536F417823F4407343EA012353677047A9
:103020004FF04022D36E017923F030030B43D36677
:10303000704700004FF00042144B10B55A664AF634
:10304000CD3313494C6C0B6404F0010478B90120B2
:10305000FFF728FF4B68DB0704D50E4B58600B6B5E
:10306000D807FCD514B10A4B0B4A1A6410BD0B6B80
:103070001A07FCD42022074B9A620122A3F5805341
:103080005A60034A936A9B06FCD5EBE70090004028
:1030900000400940006009403254FFFF4FF00042F9
:1030A00038B5174B01465A664AF6CD334FF04022E9
:1030B000144C656C236443780B205B0043F00103E0
:1030C000D363FFF7EFFE63688A7823F4F87343EA6B
:1030D00002136360CA784B7943EA0223A3600A793A
:1030E0008B7943EA022323610878FFF7A3FFEB07FC
:1030F00048BF054B4FF0010048BF236438BD00BFF7
:1031000000900040004009403254FFFF436D0B42E5
:10311000FCD1704708B54368DA0714D58368DB072C
:1031200002D50369D90707D50A2350218363FFF726
:10313000EDFF836C9A07FCD1012200F500535A6021
:1031400043689B07FCD408BD10B5FFF7E3FF0423D9
:1031500000F5805100F500520B6113610B611361A2
:103160000B6113610B611361202341F202010361C2
:103170000023C360836041614FF4A02183614162F9
:103180000449C36103628362C36243630365D1641C
:10319000036310BDFF3F0D0338B5194B0446984239
:1031A0000D460BD0174B984208D003F58043984248
:1031B00004D040F251111448FEF78CFB25B920468B
:1031C000BDE83840FFF7A6BF012204F580535A60DE
:1031D00040F6FF71204605F00F02FFF797FFA2634C
:1031E0007821FFF793FF05F001036A0748BF43F01A
:1031F0000203A26C02F003029A42FAD138BD00BF6A
:103200000000014B00000A408F840008836C5A06BE
:10321000FCD54164836C1B06FCD5C06B80B2704743
:10322000F8B505460C46174622B940F2F5116B4831
:10323000FEF750FB6A4B9D4200F0C080694B9D42F7
:1032400000F0C18003F580439D4200F0C18040F250
:10325000FF116248FEF73EFB44B9604840F22B3153
:10326000FEF738FB2046FEF71DFE0446AB68D90783
:103270003AD5BC4204D240F209215848FEF72AFB55
:10328000B4FBF7F36E685C1E16F001072AD0282104
:103290002846FFF73BFFAB6C9A071DD1AB6CDB07F1
:1032A0001CD4AE6C16F002061AD140F21A214B481B
:1032B000FEF710FB2846FFF72DFF2B6923F07F4315
:1032C00043EA04632B61002F00F0878031462846D3
:1032D000BDE8F840FFF760BF0526EBE70926E9E700
:1032E0000626E7E73E46E8E76B68012B04D040F28C
:1032F0002D213A48FEF7EEFAA96801F0E0014029D5
:1033000046D009D8B9B1202938D04FF41A71BDE898
:10331000F8403248FEF7DEBA602945D08029F4D162
:1033200007EB4703A34204D940F262212B48FEF782
:10333000D1FA012308E0B7EB141F04D940F24E2163
:103340002648FEF7C7FA10237B436401B4FBF3F36E
:10335000254E203BB6EBC30F4FEAC30404D240F224
:1033600073211E48FEF7B6FA284634400121FFF7C4
:10337000CDFE2C63BDE8F840FFF7C8BEB7EBD40F15
:1033800004D940F253211548FEF7A4FA0823DBE7DD
:103390000626B4FBF6F3BB4204D24FF416710F4875
:1033A000FEF798FA3346CFE7B7EB940F04D940F213
:1033B0005D210A48FEF78EFA0423C5E7002C7FF44E
:1033C00055AF56204FE7002C7FF450AF57204AE707
:1033D000002C7FF44BAF582045E7F8BD8F840008E0
:1033E0000000014B00000A40F8FF7F006F4B70B5F2
:1033F000984204460D460AD06D4B984207D003F51B
:103400008043984203D0D6216A48FEF763FA1DB97B
:10341000D8216848FEF75EFA6A7BAB68002A00F0A4
:103420009880654A934203D9DA216248FEF752FA3E
:103430002B692BB1DB7B1BB1DD215E48FEF74AFA1D
:1034400063682E6923B140F6FF712046FFF75EFEE8
:103450002046FFF779FE22696B7BA97B22F00702E9
:103460000B4313432361AEB12A692369117823F01A
:1034700078030B43117943EA4113517A43EA01136C
:10348000D17B43EA81132361537B117BDB0343EA46
:103490008123E360A368EA7B23F00303134343F033
:1034A0000103A36006B32A69A168538803F4C043EB
:1034B0000B43A3605179A36843EA8123A360937906
:1034C000D079616A127A1B01000203F0700300F4E4
:1034D000E06021F4EE41034321F0700112030B433D
:1034E00002F4E0421343636263692A7B23F00F0313
:1034F00013436361B6B12B695A89A2615A7B3AB111
:103500002A4A94422BD19A7B2C4902F00F024A6638
:10351000DA7B3AB1254A944234D11B7C274A03F026
:103520000F031366D5E901122046FFF779FE052146
:103530002046FFF731FE00212046FFF7E7FD2B78FC
:10354000A363FFF7E3FDA36CDB4313F4405FFAD101
:1035500070BD1B4A93427FF673AFE0216DE7144ABA
:10356000944209D002F580429442D1D19A7B13490A
:1035700002F00F02CA67CBE79A7B104902F00F02F4
:103580000A67C5E70A4A944209D002F5804294428C
:10359000C8D11B7C094A03F00F039367C2E71B7C69
:1035A000064A03F00F03D366BCE700BF0000014BDF
:1035B00000000A408F840008002D31010090034074
:1035C0008096980038B50D460446B0B1012817D052
:1035D000022817D0032803D13F23EB40DB0704D494
:1035E00040F213410948FEF775F9302001214443A8
:1035F000074B01FA05F51D5138BD40F2FF73ECE7AA
:103600000F23EAE740F2FF33E7E700BFE881000855
:1036100040D0034038B50D460446B0B1012817D05C
:10362000022817D0032803D13F23EB40DB0704D443
:103630004FF479710948FEF74DF9302001214443D8
:10364000074B01FA05F51D5138BD40F2FF73ECE759
:103650000F23EAE740F2FF33E7E700BFE881000805
:1036600040E003402DE9F0410D4616461F468046D6
:1036700078B3012830D0022830D0032803D13F236B
:10368000EB40DB0704D440F21D112148FEF722F97C
:1036900026B12946404627B3FFF794FF302404FBA8
:1036A00008F4072D04F1804404F570341CD80F2170
:1036B000636BAA00914023EA010306FA02F2134366
:1036C000636316BB29464046DFB1BDE8F041FFF712
:1036D00079BF40F2FF73D3E70F23D1E740F2FF3306
:1036E000CEE7FFF797FFD9E70F21A5F10803E26BBB
:1036F0009B00994022EA010206FA03F31343E363B5
:10370000DFE7BDE8F041FFF785BFBDE8F08100BF0E
:10371000F78400084369DA01FCD4012300F5005066
:10372000024A436053689B07FCD47047004000493D
:10373000022A10B54FF0000405D9033A022A0CD929
:103740000360047110BD11F4000218BF4FF07F42F6
:1037500021F07F4313430C0EF2E721F0FF03CCB2BC
:10376000EEE7000038B5134B044698420D4604D0EE
:1037700040F295211048FEF7ADF8012104F5805381
:1037800062685960AB7829881B0403F480330B43CB
:10379000E978002914BF4FF4003100210B43C4F82D
:1037A0009830D30704D42046BDE83840FFF7B2BFB5
:1037B00038BD00BF004000495D850008294B70B549
:1037C000984206460C46154604D040F25D21264834
:1037D000FEF780F8A378062B04D94FF4187122481D
:1037E000FEF778F83046FFF795FF2378304603F070
:1037F00007026378002BA37818BF08214FEA031350
:1038000003F0700343EA0203E27808BF0021002AB4
:1038100014BF4FF4807200220B4313433367F26AE4
:10382000237922F48B321B0222F4807203F4E063CA
:10383000134362792946120302F480521343A2799A
:10384000002A14BF4FF4803200221343F362FFF7C3
:1038500089FF012206F580535A60E37903B1F260D3
:1038600070BD00BF004000495D850008F8B52E4BD3
:103870000446984204D040F212312C48FEF72AF850
:10388000012204F580535A60294B2A4AE360636998
:103890001340FCD1A361C4F89830636913F4401F4E
:1038A000FBD16369DA052DD4A36F5BBB63699B050C
:1038B0002AD4D4F8881039BB2046E36FD4F88C3072
:1038C000FFF728FF3023184AA16094420CBF022260
:1038D0000022216142F26005E1620F462162236706
:1038E000C4F880300B46144E934210D100220E4B88
:1038F0009C4201D1102911D1104B04F50054636290
:10390000A362F8BD636FCCE7D4F88430CEE704EB54
:1039100003108564013306654765E5E701F128007A
:1039200044F820200131E3E7004000495D850008AC
:10393000120002005200010000C002808F330F808D
:103940000F4B10B598420C4604D04FF45A710D48F5
:10395000FDF7C0FF34B92A20FEF7A4FA012838BFCA
:1039600001200446084804F5742404F23F24B4FB03
:10397000F0F4601E7F2828BF7F20C0B210BD00BFBA
:10398000004000495D85000840420F0038B5134BE8
:103990000C469842154604D040F29B311048FDF782
:1039A00099FF24B94FF467710D48FDF793FF0D4956
:1039B0008C4228BF0C461DB92A20FEF773FA054633
:1039C000621E1544B5FBF4F0A54228BF00F1FF309C
:1039D000032828BF0320C0B238BD00BF0040004903
:1039E0005D850008005A6202F8B51F46184B0E4666
:1039F0009842144604D040F2D5311648FDF76AFFCC
:103A000026B940F2D6311348FDF764FF124A134D30
:103A1000002F08BF1546B54228BF35461CB92A20DD
:103A2000FEF740FA04469DF8182040F2FF330132B9
:103A3000B4FBF2F46A1E1444B4FBF5F0AC4228BFA8
:103A400000F1FF30984228BF1846C0B2F8BD00BF51
:103A5000004000495D85000880969800404B4C006E
:103A60002DE9F04FB64B044698420E46154685B0F8
:103A700003D0D321B348FDF72DFF0022B2492046E1
:103A8000FFF784FF7379984238BF18465FFA80F8D1
:103A90002046FFF73FFE317919B92046FFF750FF66
:103AA0000146F3784FEA08721B0102F0E04203F08E
:103AB000300313430804327800F4FE0003430AB1D4
:103AC00043F0020372780AB143F00403B2780AB1FA
:103AD00043F008030027A360F388328923617389C8
:103AE000DFF85C9243EA0243DFF880B223624C4580
:103AF00001D1022F06D1012304F58054636005B083
:103B0000BDE8F08F00222B7890489149AE6893422F
:103B100018BF0146CDF8008089480393FFF764FF82
:103B2000F2B2824238BF024604EB0710039B1646EE
:103B3000826C03F0030C02EA0B024CEA020295F8D5
:103B400001C039014FEA8C0C0CF01C0C42EA0C024B
:103B500095F802C04FEA0C3C0CF4E04C42EA0C022F
:103B600095F803C04FEA0C4C0CF4E02C42EA0C022E
:103B700095F810C04FEA4C5C0CF4600C42EA0C0261
:103B800095F804C04FEA0C7C0CF0405C42EA0C0251
:103B90008264826C6F48C2F30232013A042A00F256
:103BA0008980DFE802F0878787030300D0F884214B
:103BB00007F1050A002B40F0BC8009EB0103986C6B
:103BC000C0F30230431E012B624B76D8DFED627AE0
:103BD000D3F8800180B24944896C20F4C043C1F31A
:103BE000820E01210EF1010C01FA0CF107EE101A00
:103BF00002044FEA8343B8EEC76AF6EE006A554AFC
:103C000048BF43F00043BEF1000F74D1D2F88C11CD
:103C100009B207EE101AB8EEC77A77EE877A95EDFB
:103C2000037A9FED4E5AB8EE477AC7EE055AB7EEC3
:103C3000045A85EE257ADFED4A5A67EE277A85EE3B
:103C4000867A9FED486A27EE067AB1EE006AB3F1F4
:103C5000004F07EE867A0BD09FED436A07EE900A7D
:103C600077EE065AFAEEE87AB0EE467A17EEA57AC3
:103C7000B5EEC07AF1EE10FACABFB1EE477A36EE71
:103C8000C77A37EE667AFDEEC77A17EE901AB1F56D
:103C9000003F45DB6FEA53436FEA43434FEA0A11A3
:103CA00049F80130C6F3090609EB0A1256600137DC
:103CB00014351CE7D0F880217AE703280AD1D3F81D
:103CC0008001D3F88C31000C1B1407EE903AF8EE0B
:103CD000E77A80E70428D3F884010BBFD3F88C314E
:103CE000D3F88C311B141B1407BF80B25B00000C8F
:103CF00003EB4303E9E7D2F8901166EE265A09B2C6
:103D000007EE101AB8EEC77A77EE677AD2F8881104
:103D100087EEA57A0AB207EE902AF8EEE77A7CE7FA
:103D200011F5003FAABFC1F3110143F400330B4367
:103D3000B4E74FF4F5710348FDF7CCFDB2E700BFDF
:103D4000004000495D850008005A6202404B4C006B
:103D5000809698000080E00F0000000000007A4488
:103D6000000080430000204400000049E08F18CF8D
:103D700008B50A6F496F02F00702FFF7D9FC08BDCA
:103D800010B5044618B98D211F48FDF7A3FD23780F
:103D90001B0613F0604F03D08E211B48FDF79AFDE0
:103DA000E3780F2B03D99F211748FDF793FD0121DD
:103DB0002020FEF709F801212120FEF705F8012255
:103DC000124B5A60227812069A606178A27842EA11
:103DD00001429A61FF229A6200229A631A644FF0AC
:103DE00000425A654FF0FF324FF4800103F5005353
:103DF0001A65074AC2F88011E3781B01DBB282F82A
:103E00001633116010BD00BFC385000800000440D8
:103E100000E100E02DE9F0410126C3B20728054684
:103E20000C46904606FA03F603DDE6213648FDF718
:103E300051FD1CB9E7213448FDF74CFD236823F4FC
:103E40007C1323F00F031BB1EA212F48FDF742FD3D
:103E5000A37A1B0413F47C0F04D040F203112A4808
:103E6000FDF738FDE37A1B0513F07E6F04D040F2B6
:103E700005112548FDF72EFD237B5B0513F0FE5F42
:103E800004D040F207112048FDF724FD30201F4FD9
:103E9000AB0000FB0575627B216803F1402303F54D
:103EA000802359602A66E37AA27A1B0543EA02431B
:103EB000227B43EA4253EB65154B28F003022A6745
:103EC0001E65FEF7CEFF7B6D33437B65237A13B10E
:103ED0003B6C33433B64637A13B1BB6B3343BB63CB
:103EE0002279A37943EA0243094A93616179E3792C
:103EF00043EA014307498B61044B56639E64BDE866
:103F0000F041FEF7B4BF00BFC385000800000440C5
:103F100000200440001004400B4B984211D003F5E0
:103F2000804398420DD003F58043984209D003F5B1
:103F30008043984205D003F58043C31A5842584144
:103F400070470120704700BF00800440036BDA0710
:103F500002D503695B06F9D47047000038B5054601
:103F60000C46FFF7D9FF18B99A212948FDF7B2FC92
:103F70002846FFF7EBFF012205F500531A632A6B71
:103F800012F00202FBD1237961881B0243EA8143CC
:103F9000617A0B436178002914BF402100210B4353
:103FA000A17A002914BF802100210B43E17A002966
:103FB00014BF202100210B43217B002914BF1021B5
:103FC00000210B43617B002914BF082100210B4312
:103FD000A179002914BF4FF4803100210B43012146
:103FE0006B6005F580531963217809B90223EB60F2
:103FF00000236B62E079237A43EA8003607900282A
:1040000018BF10221A43AA6009B10123EB6038BD22
:104010008E86000870B506460C46154622B94FF448
:1040200022710C48FDF756FC24B94FF42070FDF7BF
:1040300039FF04466D00013CB4FBF5F4064B250244
:1040400013EA042304D040F2A5210248FDF742FC04
:10405000F56170BDF5860008070080FF124B10B5B2
:104060009842044604D040F22E411048FDF732FC3D
:10407000012104F58053596040F6AA6341F205021C
:10408000636100230A48A360E365E26004F500521F
:104090002361E361E36490640348A365844204BF41
:1040A00023656365516010BD00C00540F5860008BA
:1040B000FFFF010038B52A4B044698420D4604D054
:1040C0004FF456712748FDF705FC2046FFF7C6FF61
:1040D0000122A97B04F580535A602A8AA36800292B
:1040E00014BF4FF48061002142F0010213432A7D86
:1040F0000B43002A14BF4FF000520022A360A368B4
:104100001343A360AB7C5BB1154B9C4202BFEA7CBE
:10411000A3F51033C3F8D421E36D43F08003E365C6
:104120002B7B2046D5E9011243F48053E360FFF76F
:1041300071FF6B7B0BB1102363616B7D1BB1A368B7
:1041400043F48033A360AB7DEA7D1B07120503F0C7
:10415000E04302F4E0021343A3652B78636138BDAA
:1041600000C00540F58600082DE9F0470646DDE968
:104170000884154699468A46344F41B9082323706E
:104180004FF4D963A360324B6760E360FEE75AB136
:10419000531E134208D00823237040F2CB63A36060
:1041A0002B4B6760E360FEE7FEF75BFE002D08BF68
:1041B00004254D4538BF4D46D6F808E06B1E13EA7E
:1041C0000E0FC5F1000208BF002502EA0E021544D9
:1041D00009F1FF33AA4413EA0A0FC9F1000208BF2C
:1041E0004FF0000902EA0A0202EB090372688446F2
:1041F0000132A2EB0E01A3EB0E0E714515491AD246
:10420000B8F1000F02D09B1AC8F80030162540F212
:1042100022732570C4E9023160466760FEF727FE0D
:1042200040F2D76325700025A360094B6760E36007
:104230002846BDE8F087B360002323704FF4E563A0
:104240006760C4E90231FEF712FEF1E75C870008FF
:10425000ED870008D587000830B50C461D4611468D
:1042600085B01BB9039200F019F8039900230648A2
:10427000009304220123002C18BF20460195FFF76C
:1042800073FF05B030BD00BF541000200022024B68
:104290001A6001F00BBD00BFE4D40020FEE700006F
:1042A000014B1860704700BFE4D400201FB50C4BD1
:1042B0001B78012B0AD1FEF7DDFD002814BF6FF03B
:1042C00005004FF0FF3005B05DF804FB684600F0D4
:1042D00003FA9DF80000003818BF01204042F2E7C1
:1042E000F0D800201FB5FEF7C5FD48B9074B1B7875
:1042F000012B02D0684600F0F5F84FF0FF3001E0E6
:104300006FF0050005B05DF804FB00BFF0D8002099
:10431000704700002DE9F041224B1B78012B00D0A3
:10432000FEE7214B1F78002F39D1FEF79AFD1F4D74
:10433000044695F8008000F0E5FF402803461C4E37
:1043400028701BD00C2043431A4AB8F1400FD358B1
:10435000336001D100E000BF174F32683B689A42DA
:104360000DD1002001F052FA012802D0386801F086
:10437000EBFC2046BDE8F041FEF779BD37600F4AFF
:104380001368013313602B78402B01D100E000BF8C
:1043900001F09BFD2046FEF76AFDBFF36F8FBDE87D
:1043A000F08100BFF0D80020F1D80020E7D5002030
:1043B00000D90020F0D50020FCD8002004D900202E
:1043C0002DE9F041044608B9FFF768FFFEF752FDFA
:1043D000194E0746194D38B12023237040F2193386
:1043E000C4E902356660FEE7154B1B78012B08D047
:1043F0000223237040F21D336660C4E90235BDE834
:10440000F081DFF8408098F80030F92B05D91E23A1
:104410006660237040F22233EFE7FEF722FD98F842
:104420000030013388F80030FEF721FD40F22D33D3
:1044300027706660E1E700BF08880008CA880008A6
:10444000F0D80020F1D800202DE9F041044608B949
:10445000FFF724FFFEF70EFD1E4F1F4E38B120233D
:10446000237040F24533C4E902366760FEE71B4B18
:104470001B78012B08D00223237040F24933676078
:10448000C4E90236BDE8F081DFF8548098F80030C6
:104490002BB91F236760237040F24E33F0E7FEF71D
:1044A000E0FC98F80050013DEDB288F800503DB1B5
:1044B000FEF7DDFC2D236760237040F25633DFE703
:1044C000FEF7D5FCFFF726FF4FF4587325706760A1
:1044D000D6E700BF08880008BC880008F0D8002094
:1044E000F1D8002070B5044608B9FFF7D7FE254B78
:1044F0001E78012E09D013232370234B636040F2F2
:10450000F633A360214BE360FEE7214B1B884BB9D8
:10451000092323701C4B636040F20143A3601B4BD3
:10452000E360FEE71B4D2B784BB11F232370164B26
:10453000636040F20443A360144BE360FEE7FEF7C0
:10454000A3FC48B11F2323700F4B636040F2074365
:10455000A3600E4BE360FEE700F0D4FE0E4B0F4A63
:1045600018700F4B2E7018700C2358430D4B1B58AE
:1045700013600D4A136001F061FCBDE87040FFF765
:104580008DBE00BFD2D5002008880008B48800087E
:104590000CD90020F0D80020E7D5002000D9002059
:1045A000E6D50020F0D50020FCD8002008B500F0AA
:1045B000A9FEA0F140035842584108BD30B14368FC
:1045C000C1F88C308368DB68C361704791F8303084
:1045D000022B03D0072B05D0034B00E0034BC1F89F
:1045E0008C307047024BFAE78D8800087D88000800
:1045F00084880008044BC1F88C3018B1826802B17D
:10460000D368C361704700BF8D8800080023C0E9EC
:10461000003303817047036810B533B9012202816A
:10462000C1E90933016041601CE0028991F833401F
:104630000132028193F83320A2420CD85B6A002B2E
:10464000F8D14B6243688B625962ECE7C1E90932E9
:104650005162996206E09A6A002AF7D1C1E90932EB
:104660009962016010BDC36A5BB19A68526A4AB927
:10467000C3E902221A8A013A1A820023C0E90933E7
:10468000C3627047D0E9092111B991629A60F1E7DC
:104690004A620AB9D960EDE79162EBE738B5C56ABD
:1046A000AB685B6A4BB1FFF7DEFFC562014605F1FF
:1046B0000800BDE83840FFF7AEBF38BD40220021FA
:1046C000044B013AC3E90011198103F10C03F8D13D
:1046D000704700BFF0D5002070B5044608B9FFF759
:1046E000DDFD424D6A68D2B12B68414E4BB923467D
:1046F000296B40489200FFF7AFFD306023780BB183
:1047000070BD336032683C4B3C491A606B683C4A70
:1047100013603C4A9B0013600A6813440B602A89AB
:10472000BAB10C2623467243296B3748FFF794FD34
:10473000364B18602378002BE2D1354B354A186090
:104740002B892E4913807343334A13600A6813443C
:104750000B6001F0DBFA0023304A29491370304A1C
:104760001370304A1360304A1360304A1370304A75
:1047700013700A6852B12048006838B10546013A02
:1047800045F8043BFBD1096801F054F80025294B9A
:104790001D7000F0AFFDFFF791FF274B1D60274B09
:1047A0001D801C4B1B88D3B90023254A204613606B
:1047B000244A1380244A1360244A1380244A136035
:1047C000244A138000F0CAFF2378002B98D100F010
:1047D00025F9FFF79DFD01221F4B1A7090E7204637
:1047E00000F0F8FC2378002BDED089E76810002069
:1047F000ECD400208F880008F0D40020E8D40020FA
:10480000F4D40020F8D40020A2880008FCD40020B2
:1048100000D5002004D5002008D50020F0D80020C5
:10482000F1D80020FCD8002000D90020E6D50020D7
:10483000E7D500200ED90020CCD50020D0D500200F
:10484000E0D50020E4D50020E8D50020ECD50020FC
:10485000F4D80020F8D80020D2D500200C2290F8FF
:1048600033300B495343CA5830B5CC1832B90125FF
:104870002581C0E90422C850606030BD258901351A
:1048800025810024026144615061C850F5E700BFF2
:10489000F0D500200C2390F833200B495A4330B553
:1048A0008C588B1834B901251D81C0E90444885007
:1048B000586030BD1A8901321A81002202615A689B
:1048C00042611061F4E700BFF0D5002010B5044646
:1048D00090F8330000F026FD074B94F833201B7846
:1048E00020469A4203D1BDE81040FFF7D3BFBDE890
:1048F0001040FFF7B3BF00BFE6D5002038B50C4627
:1049000091F832100546072907D80239052906D83B
:10491000DFE801F0060605051919FF2924D138BD85
:10492000A264A4F84C3015B12046FFF79CFE214646
:104930002846FFF75FFE2046FFF7C8FF00232386C7
:1049400084F83230EBE7A264A4F84C3015B120466D
:10495000FFF789FE21462846FFF74CFE00232386F9
:10496000042384F83230DAE7BDE83840FFF796BC1C
:1049700070B504460C21D4E9043590F83300104A90
:104980009DB953B9414355182B8153506B6000F0CA
:10499000DFFC0023C4E9043370BD48431618318995
:1049A000013931815D611350F3E701FB0022118968
:1049B000013911812B610BB95560EAE75D61E8E7C8
:1049C000F0D5002010B5044631B1FFF767FC204652
:1049D000BDE81040FFF7CCBF022380F83230F6E785
:1049E00038B5002304460C4D286880F8301080F854
:1049F00031301146FFF7E6FF5CB1296804F1080089
:104A0000CC62FFF708FE20462968BDE83840FFF772
:104A1000D5BD2B68DC62F6E7FCD80020754B82B070
:104A20001B78DBB28DF80530734B1B68DBB28DF859
:104A30000730724B1B78DBB28DF80530704B1B785A
:104A4000DBB28DF805306F4B1B68DBB28DF8073099
:104A50006D4B1B6ADBB28DF807306C4B1B78DBB2F9
:104A60008DF805306A4B1B78DBB28DF80530694B49
:104A70001B88DBB28DF80630674B1B88DBB28DF8E4
:104A80000630664B1B78DBB28DF80530644B1B8813
:104A9000DBB28DF80630634B1B88DBB28DF8063035
:104AA000614B1B88DBB28DF80630604B93F82830E1
:104AB000DBB28DF807305E4B1B78DBB28DF805302A
:104AC0005C4B1B88DBB28DF806305B4B1B88DBB27E
:104AD0008DF80630594B1B88DBB28DF80630584BE9
:104AE0001B88DBB28DF80630564B1B88DBB28DF885
:104AF0000630554B1B88DBB28DF80630534B5B8D6F
:104B0000DBB28DF80730524B1B78DBB28DF80530E5
:104B1000504B1B88DBB28DF806304F4B1B78DBB255
:104B20008DF806304D4B1B6ADBB28DF807304C4BCD
:104B30001B78DBB28DF805304A4B1B88DBB28DF851
:104B40000630494B1B88DBB28DF80630474B1B689B
:104B5000DBB28DF80730464B1B78DBB28DF80630A0
:104B6000444B1B78DBB28DF80530434B1B78DBB22E
:104B70008DF80530414B1B78DBB28DF80530404B8A
:104B80001B78DBB28DF805303E4B1B78DBB28DF81D
:104B900005303D4B1B78DBB28DF805303B4B1B8855
:104BA000DBB28DF806303A4B1B78DBB28DF805305E
:104BB000384B1B88DBB28DF80630374B1B88DBB2D5
:104BC0008DF80630354B1B78DBB28DF80530344B51
:104BD0001B88DBB28DF80630324B1B88DBB28DF8B8
:104BE00006309DF805309DF806309DF8073002B07C
:104BF000704700BFA8100020A4100020A0100020C3
:104C00000CD50020AC10002010D50020B0100020E2
:104C100034D50020B2100020B4100020B6100020BF
:104C2000BC100020B8100020BA10002038D5002099
:104C3000BE100020C0100020C2100020C4100020B0
:104C4000C6100020C8100020CA10002064D5002023
:104C5000CC100020CE10002094D5002098D5002044
:104C6000D8100020DA100020D0100020D41000202E
:104C7000DC100020BCD50020BDD50020E0100020B5
:104C8000E1100020E2100020BED50020E41000203A
:104C9000E6100020DE100020E8100020BFD5002024
:104CA000C0D50020EA10002010B4064C2468A4F8F7
:104CB00074200022E166226701211A465DF8044B48
:104CC000FFF78EBEFCD800202DE9F74F0D9C05465E
:104CD0008B4617469A460CB9FFF7E0FA0FFA8AF3AB
:104CE000002B0093C0F23581FEF7C4F8002800F0D5
:104CF0002B8120232370A04B636040F23513A36007
:104D00009E4BE360FEE71F2323709B4B636040F2E2
:104D10003913A360994BE360FEE702232370964B9F
:104D200063604FF49F73A360944BE3604FF00008FF
:104D300056E047F6FF630AEA0303581E01280DD91F
:104D4000042B0BD0082B09D0082323708A4B6360F7
:104D50004FF4A373A360894BE360FEE72868884B98
:104D6000984209D00C232370834B63604FF4AC73DB
:104D7000A360824BE360FEE70AF4807301930C9B0F
:104D800013B100230C9A1360FEF76BF80AF00F09B9
:104D9000B9F1040F064607D0B9F1080F3DD0FEF770
:104DA00066F8FFF77BFA71E02A6A3BEA020302EA3F
:104DB0000B0819D1019B13B122EA08022A62714A39
:104DC00012680AB1C2F870803046FEF750F800222F
:104DD0002270694A62604FF4BB72A260674AE26067
:104DE000404603B0BDE8F08F009B002B08DAFEF7C9
:104DF0003EF81D232370604B636040F27D1392E701
:104E0000614B1B78002B38D0FEF731F82D2323702F
:104E1000594B63604FF4C27385E72A6A12EA0B08A4
:104E200013D0019B13B122EA08022A62554A126884
:104E30000AB1C2F870803046FEF719F800222270DD
:104E40004D4A62604FF4D172C7E7009B002B08DA2D
:104E5000FEF70DF81D222270474A626040F2A91247
:104E6000BBE7494B1B7843B1FEF701F82D222270B6
:104E7000414A62604FF4D872AFE728463B4652463B
:104E80005946FFF711FF3046FDF7F1FF3D4EFFF7A2
:104E900041FAFDF7E6FF336893F831200023032A37
:104EA00041D8DFE802F00222372B2370324B6360D7
:104EB00040F22D23A360314BE3603368D3F8708058
:104EC000019B4BB1B9F1040F02D0B9F1080F34D1F5
:104ED0002A6A22EA08022A62FDF7C9FF002222702C
:104EE000254A626040F26F2277E7FDF7C0FF212379
:104EF0002370214B63604FF40E7314E70C9A02B1D8
:104F00001360FDF7B4FF222323701B4B636040F254
:104F1000412308E7FDF7ABFF31232370164B636095
:104F20004FF41373FFE60090FDF7A1FFFFF7B6F90A
:104F300023780098002BC0D0F8E60090FDF797FF8B
:104F4000FFF7ACF90098C7E7FDF79EFF00287FF454
:104F5000DAAE0E4B1B78012B7FF4DFAE002D7FF411
:104F6000E8AE0A232370044B636040F24313A3604E
:104F7000024BE360FEE700BFD688000856890008B0
:104F8000464C4147FCD80020F1D80020F0D8002042
:104F9000054B064AC36100234361136883610BB963
:104FA000106070475861FBE78D880008CCD5002061
:104FB0002DE9F84F05468B4692461C460BB9FFF784
:104FC0006DF9FDF757FFDFF87C8006461A4F38B1C0
:104FD000202323705523C4E90237C4F80480FEE778
:104FE0003DB90A2323705823C4E90237C4F804806A
:104FF000FEE7FDF736FF814624223146284603F0BE
:10500000C9F80E4B05F10800C5E9003BC5F820A022
:10501000FFF7FCFA2846FFF7BBFF094A484613880A
:1050200001331380FDF723FF70232670C4E9023794
:10503000C4F80480BDE8F88F61890008464C4147F8
:10504000D0D50020D688000838B5002590F8323039
:10505000044601670586072B12D8DFE803F008082D
:10506000040408080D0DFFF731FC84F83250204687
:10507000BDE83840FFF7F7BA042380F83230F6E78E
:10508000FFF70CF9F3E700002DE9F04105460F4664
:1050900016461C460BB9FFF701F94A4B1B78012B4A
:1050A0000CD002232370484B0025636040F232335A
:1050B000A360464BE3602846BDE8F0814DB90A2362
:1050C0002370414B636040F23733A3603F4BE36092
:1050D000FEE747F6FE731E4209D0082323703A4BC1
:1050E000636040F23A33A360384BE360FEE72A681E
:1050F000374B9A4209D00C232370334B63604FF433
:105100005073A360314BE360FEE7FDF7AAFEB6F5EE
:10511000004F80460BD048F201039E4219D036B1B1
:10512000012E16D0FDF7A3FEFFF7B8F802E0296ABA
:1051300039432962AF6887B94046FDF798FE224B94
:105140002770636040F26233A360204B2D6AE360F6
:10515000B1E7296A21EA0701EBE73846B0F8743075
:105160007F6A03F00F03042B07D0082B0ED04046B4
:10517000FDF77DFEFFF792F80CE0C16E2B6A31EA75
:10518000030307D10022FFF75FFF03E0296AC36E24
:105190001940F7D1002FE0D14046FDF768FE3304F7
:1051A00001D4FFF7B7F8FDF75CFE2D6AFDF75FFE4F
:1051B00000232370044B636040F2A333A360034BCE
:1051C000E36078E7F0D80020D68800084B89000813
:1051D000464C4147F0B50025124B1C68124B04F1B8
:1051E0000C011E882B46721E92B2AFB2BA4212D880
:1051F0000C214A43A350A1180C4A4B600B81D38069
:105200001381968014600370094B43605D238360B3
:10521000084BC360F0BD41E9031321F8043C01359C
:105220000C31E2E700D5002004D50020D4D50020C1
:105230006E890008E2890008428910B582B1094BE5
:1052400001681C680C6041681960D988891AD98086
:105250009988114499800023C0E9003343818381F8
:10526000104610BDD4D5002038B504460D46102296
:10527000002102F08FFF258138BD836B00F13802D9
:105280008B42186A01D11060704703F12002034677
:10529000F6E7836B3F2003B970479A6822B192F812
:1052A0003320904228BF10461B6AF4E72DE9F341F2
:1052B000054601260027846B14B902B0BDE8F081D1
:1052C00021462846D4F82080FFF7D7FFA16821B9EE
:1052D00084F8281061624446EEE784F828608B6BFE
:1052E0006562236200238C631A4620460097FFF70D
:1052F00005FBF0E70022024BC3E90022704700BF24
:10530000C4D5002008B5064B186828B9586800F0C5
:1053100089FD2030C0B208BD00F084FDFAE700BF6F
:10532000C4D500201F28094A07D84FF0004323FAAC
:1053300000F013680343136070470123C0F13F007E
:1053400003FA00F05368184350607047C4D500203A
:105350001F280A4B08D84FF0004222FA00F01A68C2
:1053600022EA00021A6070470122C0F13F0002FAEF
:1053700000F05A6822EA00025A607047C4D5002043
:105380002DE9F7430A9C0546884616460CB9FEF7F8
:1053900085FF0FFA86F9B9F1000F0ADABDB90A23C1
:1053A00023705E4B63604FF49373A3605C4BE360C8
:1053B000FEE7FDF75FFD0028F0D020232370574B58
:1053C00063604FF49173A360554BE360FEE7C6F34F
:1053D0000E064EB108232370504B636040F2291330
:1053E000A3604F4BE360FEE72A684E4B9A4209D018
:1053F0000C232370494B636040F22D13A360484B8C
:10540000E360FEE7B9F1000F0CDBFDF73DFD48B1AD
:105410001F232370414B63604FF49873A360404B8C
:10542000E360FEE7404B1B78012B12D1FDF719FD1D
:105430002E6A0746DEB1013E2E62FDF718FD0023FD
:105440002370364B636040F24313A360344BE36038
:1054500009E002232370314B0026636040F23513CC
:10546000A3602F4BE360304603B0BDE8F083B9F191
:10547000000F08DAFDF7FBFC1D232370274B636048
:1054800040F25113E1E7294B1B7843B1FDF7EFFCE4
:105490002D232370214B636040F25D13D5E7424614
:1054A00006212846FFF79CFA3846FDF7E0FCFEF798
:1054B00031FFFDF7D6FC1E4B1B6893F83130032BF0
:1054C00025D8DFE803F0020F1D1600232370134BCD
:1054D00063604FF4BA73A360114BE3602E6AFDF76B
:1054E000C6FCC0E7212323700C4B63604FF4BF73ED
:1054F000F1E722232370094B63604FF4C473EAE79A
:1055000031232370054B63604FF4C973E3E70190C7
:10551000FDF7ADFCFEF7C2FE0198DFE7F189000858
:105520006F8A000853454D41F0D80020F1D8002083
:10553000FCD800202DE9F3470646894614460AB9EF
:10554000FEF7ACFE4EB90A2323703C4B636040F279
:105550002623A3603A4BE360FEE747F6FF5519EABE
:10556000050509D008232370344B636040F22923DA
:10557000A360334BE360FEE73268324B9A4209D0B6
:105580000C2323702D4B636040F22F23A3602C4B20
:10559000E360FEE72C4B1B78012B09D0022323701C
:1055A000264B636040F23323A360254BE36034E075
:1055B000FDF757FCB7688046EFB109F4007A002385
:1055C00039461A467F6A30460095FFF797F9BAF1D7
:1055D000000F01D0002FF2D14046FDF748FC19F42E
:1055E000004F01D1FEF796FE0025144B2570636035
:1055F00040F26523D8E7356ADFF840906B1CDFF88E
:1056000040800ED1FDF733FC1E2323704FF411733D
:105610003D46C4E90238C4F80490284602B0BDE80B
:10562000F08701353562FDF722FC40F24F232770E9
:10563000C4E90238C4F80490EFE700BFF18900081C
:10564000658A000853454D41F0D80020054B064AB5
:10565000C36100234361136883610BB91060704715
:105660005861FBE78D880008F4D800202DE9F84F39
:1056700005468A4693461C460BB9FEF70FFEFDF71A
:10568000F9FBDFF8808006461B4F38B120232370DA
:105690005823C4E90237C4F80480FEE73DB90A2361
:1056A00023705B23C4E90237C4F80480FEE7FDF7EA
:1056B000D8FB814624223146284602F06BFD0F4B71
:1056C00005F108002B60C5F820B0C5F804A0FEF76E
:1056D0009DFF2846FFF7BAFF094A48461388013361
:1056E0001380FDF7C4FB73232670C4E90237C4F8A6
:1056F0000480BDE8F88F00BF798A000853454D410A
:10570000F8D80020F18900080023064AC0F8843048
:105710001368C0F888300BB910607047C3F8840074
:10572000FAE700BF08D90020D0E9212342B90A498D
:105730000B600BB1C3F884200023C0F88830704799
:10574000C2F8883013B9C0F884307047C3F8842099
:105750000023C0F88830F6E708D900200023074A64
:105760001360074A1380074A13600370064B4360B7
:1057700040F621038360054BC360704708D90020C1
:105780000CD9002004D90020858A0008008B00086D
:1057900010B504469022002102F0FCFC114B0021C0
:1057A000E36004F15000FFF75FFD4FF080420023FB
:1057B00022634022C4E91E33C4E91833C4E921330B
:1057C000E366A4F874302367A3666364E36384F834
:1057D0008030A4F84030A363034B84F83420C4F82D
:1057E0008C3010BDFA8A00088D880008064A031F15
:1057F0001C3053F8041F914203D18342F9D1012098
:1058000070470020704700BF4523CDAB08B9084B57
:105810001868026883699A4207D3C16B03EB810061
:10582000824202D21846FFF7E1BF0020704700BF56
:10583000FCD80020034A031F1C3043F8042F834286
:10584000FBD170474523CDAB2DE9F04F89B00493D0
:105850009DF848301A9C0393BDF858300546DDE9A1
:10586000136A0593189B1746DDF85480BDF86490C1
:10587000069107930CB9FEF711FDFDF7FBFA654A97
:105880008346654B30B16260F0222021C4E90223D7
:105890002170FEE735B96260F3220A21C4E90223D0
:1058A0002170FEE737B96260F6220A21C4E90223BB
:1058B0002170FEE736B96260F9220A21C4E90223A9
:1058C0002170FEE755490968414506D96260FC220E
:1058D0000821C4E902232170FEE7D04506D86260A2
:1058E000FF220821C4E902232170FEE703993F2922
:1058F00007D962604FF481720821C4E90223217044
:10590000FEE7474905980988814207D262604FF453
:1059100083720821C4E902232170FEE72846FFF7BD
:1059200037FF3C4A3C4B626040F20B1219F0030F08
:1059300084F800B0A260E36059D12AF0070A06EBB0
:105940008A0A534632463846CDE90089049900F068
:105950000BFA864283460AD9322323702D4B6360AB
:105960004FF49473A3602C4BE360FEF797FC414621
:105970003046FFF75FFF049B05992B62069B05F1FC
:105980005000EB60039BEF6185F8333085F83430CD
:10599000079BC5F800B06B600023C5F808A0C5E9F7
:1059A0001833AB66AE61C5F83C80A5F84090FFF7B0
:1059B0005BFC284600F0D4F9FDF753FA044695F84D
:1059C0003300FFF7AFFC2846FEF764FF2846FFF7D9
:1059D0009BFE144A2046138801331380124B1B7818
:1059E000012B10D009B0BDE8F04FFDF740BA19F017
:1059F000020FA2D000231A4602E046F8232001330A
:105A00004345FAD199E7FDF732FA09B0BDE8F04F06
:105A1000FEF780BC858A0008168B00080488000801
:105A200004D500200CD90020F0D8002070B5044621
:105A30000D4694F83230072B08D8013B062B0BD8C3
:105A4000DFE803F01F22221F1F222200FF2B1AD0A3
:105A5000BDE87040FEF722BC2046FEF789FF2846CD
:105A600084F83350FFF75EFC264B20461B68A342A8
:105A700003D1BDE87040FEF7F1BEBDE87040FEF70F
:105A800009BF84F8335070BD94F8303094F8336017
:105A9000013B84F83350072BDAD801A252F823F0E7
:105AA000C15A0008875A0008515A0008CB5A00080A
:105AB000C15A0008C15A0008875A0008C15A000894
:105AC0002046BDE87040FEF7E9BD2046FEF7E6FD42
:105AD000E36AB5425C6A94F8333002D2AB42A8D88C
