:020000040800F2
:10000000001000208D0700088907000889070008F4
:100010008907000889070008890700088907000880
:100020008907000889070008890700088907000870
:100030008907000889070008A752000889070008F7
:100040008907000889070008890700088907000850
:100050008907000889070008890700088907000840
:100060008907000889070008890700088907000830
:100070008907000889070008890700088907000820
:100080008907000889070008890700088907000810
:1000900089070008890700085D0D00088907000826
:1000A00089070008890700088907000889070008F0
:1000B00089070008890700088907000889070008E0
:1000C00089070008890700088907000889070008D0
:1000D00089070008890700088907000889070008C0
:1000E00089070008890700088907000889070008B0
:1000F000890700081D5A00088907000889070008B9
:1001000089070008890700083102000889070008EC
:10011000890700088907000889070008890700087F
:10012000890700088907000889070008890700086F
:10013000890700088907000889070008890700085F
:10014000890700088907000889070008890700084F
:100150008907000889070008636900088907000803
:10016000890700088907000889070008890700082F
:1001700010B5054C237833B9044B13B1044800E0A3
:1001800000BF0123237010BD4811002000000000B3
:100190006080000808B5034B1BB10349034800E029
:1001A00000BF08BD000000004C1100206080000866
:1001B000A3F5803A704700BF174B002B08BF134BC5
:1001C0009D46FFF7F5FF00218B460F461348144A62
:1001D000121A07F0A7F90E4B002B00D098470D4BD1
:1001E000002B00D098470020002104000D000D488E
:1001F000002802D00C4800E000BF07F06FF9200093
:10020000290000F03FF907F055F900BF0000080091
:100210000000000000000000001000204811002035
:10022000ACD9002000000000000000000000000029
:10023000F7B56E46144C154D21463046676A02F0FC
:10024000F8FF96E8030085E80300286806F016FD2D
:1002500009A3D3E9002306F08BFD09A3D3E900230A
:1002600006F0B0FE0A4B04F50054C3E900016762D2
:1002700003B0F0BDAFF300806666666666660A404E
:100280000000000000FEAF40004000496411002063
:10029000701100200821062000F046B81FB500228A
:1002A0006B460121024804F0D3F805B05DF804FB69
:1002B000781100201FB519B96A46034804F01EFBE7
:1002C00005B05DF804FB00BF8CAE002000B58FB018
:1002D0000AAB02220893002342F21071CDE90632E4
:1002E0004FF47A72CDE902210A4ACDE90433019232
:1002F0001422094900920948094A04F089FC9DF832
:1003000028301BB17B21074801F07EF80FB05DF863
:1003100004FB00BFA011002050750008E0AD0020D4
:10032000F10300085A7500080B4600B5124989B060
:100330004B70124B087012480093124A0223006857
:1003400001F040F820B14FF49B710F4801F05CF8C8
:10035000002204AB0093114603AB0C4804F0F4F9FF
:100360009DF8103023B140F23F11074801F04CF8DE
:1003700009B05DF804FB00BF88AE0020B50200089C
:10038000041000209D1100205A7500088CAE00203A
:1003900008B505210820FFF7C7FF07210820FFF750
:1003A000C3FF04210820FFF7BFFF11210A20FFF738
:1003B000BBFF00210846FFF7B7FF02210420FFF72B
:1003C000B3FF00210620FFF7AFFF00210C20FFF74D
:1003D000ABFF00210E20FFF7A7FF74210E20FFF7CF
:1003E000A3FFBDE8084000211020FFF79DBF0000DB
:1003F00080B58AB000221B491B4802AB04F01AFBEF
:1004000006AEFFF7C5FF19491948002202AB03F0F9
:10041000B3FF314642F2107006F030F940B90123C3
:10042000144ACDE9000306990346134806F08FF8F5
:100430000F4F124C00254FF484732A460121384691
:100440000196009503F024FE2570FFF723FF0A2094
:1004500006F0F8F80A2006F0F5F823780133237047
:10046000E8E700BF697500088CAE00207C750008C5
:10047000781100209D02000870AE00209C11002021
:10048000FFF724BF08B506F089FAFFF7F9FF06F079
:1004900092FA002008BD00F0B7B808B5032180200B
:1004A00001F070FF03214FF4806001F06BFF092120
:1004B0004FF4C06001F066FF09214FF4F06001F0D5
:1004C00061FF09213E2001F05DFF09212D2001F08F
:1004D00059FF0921512001F055FF002008BD10B53A
:1004E00001213A2001F0F8F90023042218460721DF
:1004F00002F02EFEBDE8104000230422052118461C
:1005000002F026BE4FF480302649274A4B6E10B5C4
:100510005066486E4FF000414AF6CD34516623498B
:1005200003F480334A6C0C6402F001024C6BE40764
:10053000FCD401241E494C601C4C216BC907FCD51E
:100540001C49D1F8081689075EBF4FF4802418496A
:10055000CC6512B1154A184911640028A2BF4FF0AA
:100560000041164A51661BB94FF48032134B5A664C
:1005700005F046F800F05CF804F0CAFF05F05EF8FC
:1005800004F0ECFF05F026F8FFF787FF04F0D4FF36
:1005900000F043F803F05EF803F06CF8BDE810409B
:1005A00005F0F0BA00800040009000400040094093
:1005B0000060094000C007403254FFFF00A0004027
:1005C00003F074B808B5FFF78AFF00F00DF8BDE836
:1005D000084000F00FB808B505F0E4FEBDE808409B
:1005E00005F02EB870477047014800F096B900BF7B
:1005F0008C750008024B0349186800F035BD00BF38
:10060000041000200810002008B500230422194619
:10061000012002F09DFD002008BD08B501213A200F
:1006200001F05AF9FFF737FFBDE8084000F014B8B1
:1006300001213A2001F050B91022024BC3F8A0204A
:10064000704700BF00D003401022024BC3F8A02027
:10065000704700BF00E0034070B5464D8AB005AC5E
:100660000FCD0FC42B68122223600124002168469D
:1006700006F058FF21463A208DF804408DF81040CE
:1006800001F02AF92146572001F026F94FF4807332
:10069000394EADF80430394B304605A90793CDF8F3
:1006A00024D002F019FC234621460422022002F045
:1006B0004FFD022122460846002302F049FD234651
:1006C00004220321022002F043FD042223461146A6
:1006D000022002F03DFD2A4D2A4B4FF44870C5F828
:1006E000F8344FF00213C5F8F434A3F58033C5F89D
:1006F000FC341C23C5F8E43406F060F91420FFF73D
:10070000A3FF06F05BF92320FFF796FF06F056F9EA
:10071000B9213046FFF798FF02F0EEFAFFF78CFFA1
:10072000002321461A46022002F012FD0023022176
:100730001A46084602F00CFD23460022032102203F
:1007400002F006FD234600220421022002F000FDF3
:10075000304602F06FFA00215720C5F8F814C5F8AA
:10076000F414C5F8FC14C5F8E41401F0B5F80AB0A7
:1007700070BD00BFA475000800000A40E070720060
:1007800000C0034002000300FEE7000008B500F0CF
:1007900013F8064B064A07498B4201D3FFF70CFDBD
:1007A00052F8040B43F8040BF6E700BF00100020DA
:1007B0006880000848110020044B054A9A60D3F86D
:1007C000882042F47002C3F88820704700ED00E0F2
:1007D00000000008014B1868704700BF2C10002073
:1007E000084B1B6F03F00703022B04D0032B05D02B
:1007F000012B05D0FEE7044B18687047034BFBE75D
:1008000003487047008000402C100020301000206A
:10081000002D310108B5FFF7E3FF054B1B6FC3F354
:1008200003330133B0FBF3F0024B186008BD00BF87
:1008300000800040281000200048704700B4C40425
:10084000014B1868704700BF30100020054B18603E
:10085000054B1B6F03F00703032B01D1FFF7DABF32
:10086000704700BF3010002000800040002070471B
:1008700000487047002D31014FF094439868C0F351
:1008800004400C2822D8DFE800F009212121212191
:10089000071719211B1D1F000F4870479B6803F0A5
:1008A0004073B3F1807F13D0B3F1007F12D00B4AB5
:1008B000002B08BF10467047094870470948704729
:1008C0000948704709487047094870470020704739
:1008D0000848704708487047405DC60000093D0061
:1008E0000024F400C0EA210180BA8C010048E8012C
:1008F000005A620280841E0040420F004FF4004004
:1009000070474FF47A707047014B1868704700BF0A
:1009100034100020002303607047D0E9000318471B
:1009200038B50D460446B0B1012817D0022817D0BB
:10093000032803D13F23EB40DB0704D44FF4797144
:10094000094800F061FD302001214443074B01FAC2
:1009500005F51D5138BD40F2FF73ECE70F23EAE7C0
:1009600040F2FF33E7E700BFB875000840E00340FE
:1009700038B50D460446B0B1012817D0022817D06B
:10098000032803D13F23EB40DB0704D440F213419B
:10099000094800F039FD302001214443074B01FA9A
:1009A00005F51D5138BD40F2FF73ECE70F23EAE770
:1009B00040F2FF33E7E700BFB875000840D00340BE
:1009C00010B5044601213A2000F086FFA378207874
:1009D000B3FA83F3042261785B0902F0B9FB0020CB
:1009E00010BD034659789B7800780BB9FFF798BF84
:1009F000FFF7BEBF034659789B7800780BB9FFF725
:100A0000B7BFFFF78DBF000038B504784578ACB1AB
:100A1000012C16D0022C16D0032C03D13F23EB401F
:100A2000DB0704D440F22E41084800F0EDFC3023EF
:100A300001225C43064BAA401A5138BD40F2FF73B5
:100A4000EDE70F23EBE740F2FF33E8E7B875000866
:100A500040F0034070B5047805464678F4B1012CA7
:100A60001FD0022C1FD0032C03D13F22F240D3070A
:100A700004D440F2FE310D4800F0C6FC30235C4344
:100A800003F18043103403F57033E358F34003F06F
:100A90000100AB780BB980F0010070BD40F2FF722D
:100AA000E4E70F22E2E740F2FF32DFE7B875000823
:100AB0002DE9F04F9A46564B85B01B7806460F46F7
:100AC0001546DDF83C909DF844B0DDF85080002BD1
:100AD00000F08D80072A00F28C800E9B002B00F026
:100AE0008880B9F1000F00F08480129BB3F5006F8D
:100AF0007FDC012802D1109B002B7AD0454B03EB01
:100B000005131B7B002B76D0434C10220021684636
:100B100006F008FD04EB45141022002F59D1394688
:100B2000204606F0FFFC43F210036380BBF1000F88
:100B300003D1E37843F00303E370374A0E9B02EBE3
:100B4000451CCCE90193129B6901013BC3F30A00E8
:100B50009DF84C30012E03F003034FEA836343EA10
:100B6000001E53582D48CDF800A000EA03004EEABD
:100B70000003535041D113230CF1100ECCF80C306C
:100B80009CE80F008EE80F006FF00301DCF81C20DA
:100B9000109B61F39F02012FCCF81C20CCF814307D
:100BA00003D1CCF81890CCF804300027194A290159
:100BB00002EB051342F80180159A28465A606946EF
:100BC00022469F605E7302F087FB384605B0BDE8A1
:100BD000F08F0021204606F0A5FC4FF4447363809B
:100BE000BBF1000FA9D1E37843F03003A4E70C4830
:100BF000ECE70C48EAE70C48E8E7B8F1000FD4D17D
:100C00009CF8023068F304138CF80230CDE700BF83
:100C1000A4B0002024AF0020A4AF00200F80FFF379
:100C2000028000F0018000F0078000F038B5124B20
:100C300005461B78DBB1E0B101F089FE0F4A0023C5
:100C40001146147B54B92B6001251A0101EB0313E3
:100C50001D738C5001F081FE204638BD0133082BF6
:100C600002F11002EDD101F078FE0548F5E70548E4
:100C7000F3E70548F1E700BFA4B0002024AF00204F
:100C8000048000F0028000F0018000F0154B13B5E5
:100C90001868002301908DF8043001F058FE124BC3
:100CA0001C7824B101F059FE104802B010BD012299
:100CB0001A7001F052FE0E4B01A81C731C7783F8CA
:100CC0002C4083F83C4083F84C4083F85C4083F828
:100CD0006C4083F87C4008238DF8073002F0B2FAAC
:100CE0002046E2E71E760008A4B00020038000F052
:100CF00024AF002010B588B00E9C009207940D9C84
:100D0000024606949DF8304005940B9C04949DF88F
:100D1000284003940024CDE9013420460B462146A7
:100D2000FFF7C6FE08B010BD10B588B00E9C00924B
:100D300007940D9C024606949DF8304005940B9C48
:100D400004949DF8284003940024CDE90134204602
:100D50000B460121FFF7ACFE08B010BD2DE9F843AA
:100D6000174B1F6D5B6D1F4000D5FEE70126002568
:100D7000144CDFF85480DFF85490374217D02368C2
:100D8000C8F850609BB1A168284601316268A16033
:100D90009847637B012B0AD148B909EB45131A7BAD
:100DA00060F341021A731A7F60F341021A7701352A
:100DB000082D4FEA460604F11004DED1BDE8F883A1
:100DC0000000044024AF002000200440A4AF002015
:100DD0004FF480738363836C9A01FCD4836C1B068D
:100DE00000D47047C36BF9E72DE9F34104460B4685
:100DF000E27B94F80BC0007A677AA57A217B94F89D
:100E00000D80A67B84F844C084F84520002B3DD09B
:100E1000237F0BBB0422019302F09AF9019B01226C
:100E20004146384602F094F9A27F3146012A8CBF30
:100E30000123019B0422284602F08AF9E37F3BB993
:100E40000123042294F8451094F8440002F080F93C
:100E5000002002B0BDE8F0810023012202F078F901
:100E6000002304224146384602F072F9A37F022291
:100E7000012B94BF002301233146284602F068F974
:100E8000E37F002BE4D101230222DBE7022201935E
:100E900002F05EF9019B02224146384602F058F901
:100EA000A27F3146012A8CBF0123019B02222846E2
:100EB00002F04EF9E37F002BCAD11A46C2E70000C8
:100EC00038B50546B0B1B9B1B2B1B2F5006F13DCB7
:100ED00001F03DFD95F84C3003F0FF041BB101F02B
:100EE0003CFD064838BD012385F84C3001F035FD46
:100EF0002046F7E70248F5E70248F3E7032000F051
:100F0000012000F0022000F0436D70B5002B054673
:100F100003DC9E210C4800F077FA01F018FD6C6D9F
:100F20000646013C6C654CB901F00AFD05462146B8
:100F3000012004F057FE284601F006FD3046BDE8CA
:100F4000704001F00ABD00BF2276000838B5144693
:100F500001F0FDFC0023A36484F84C302364237F5C
:100F60000546012B03D104F15C0005F06FFA636BB9
:100F70001BB100212046E26B9847284601F0EDFCAA
:100F80002046FFF7C1FF012038BD70B5044601F0CF
:100F9000DEFC636D05464BB901F0D2FC012106462B
:100FA000084604F01FFE304601F0CEFC636D284673
:100FB00001336365BDE8704001F0CFBC2DE9F04F0F
:100FC0001E46002387B080F85030109B04464363D0
:100FD00090F8583089469246C663002B38D14FF4BA
:100FE000406305686B614369092B03D905F12C083F
:100FF000443506E00BBF05F1200805F1240838351B
:101000003C3567694FF0010B082F94BF002701277B
:101010002046FFF7BAFF134B5246CDE90273216B0E
:101020004346A06A04940196CDF800B0FFF77CFE19
:1010300000232A46CDE90333CDE901674B46E16A37
:10104000606ACDF800B0FFF755FE07B0BDE8F08F3D
:10105000012BFAD10068FFF7BBFE256805F13C08BB
:10106000C6E700BF4D0F00082DE9F0430B68B74AF3
:10107000054693420C468DB007D0B54A934204D042
:1010800002F58042934240F0DB804FF001080DF101
:101090000409B04E12220021484606AF06F042FA7B
:1010A0000FCE8DF808800FC78DF81480CDF82890EA
:1010B000002D00F08281002674220021284606F0CF
:1010C00031FA2368A14A6E65934240F08E80562221
:1010D000A5F84E204FF48012DFF8A4C2C5E90BC278
:1010E0002B600123A44685F858302F1DBCE80F0063
:1010F0000FC79CE80F0087E80F00637E012B08BF35
:101100008DF80930A37E002B40F08D808DF82630BD
:10111000237E0121012B03BF00238DF825304FF4DE
:101120007A73E3683A20089300F0D6FB0121B5F802
:101130004E0000F0D1FB2369DA1F092A65D8063B6F
:101140008DF82430A36923F47F0323F47F4313B97C
:1011500001238DF80830206806A901F0BDFE7E4B02
:10116000E07E06F1260103EB4113002866D11D2223
:101170005A60237A227942EA0342774B03EB461600
:10118000C6F8DC24677A627942EA0742C6F8D424BA
:10119000A77AA27942EA0742C6F8D82430B9E07AA1
:1011A000E27903EB411342EA00429A6001212846AA
:1011B000FFF71AFE50BB01F0CAFB684B1A78002AF1
:1011C00040F0F08001221A7001F0C7FB05F0EAF848
:1011D000FFF75CFD002105F12400FFF727FD014624
:1011E000002800F0E2805E4810E0594A934209D19D
:1011F0005722A5F84E204FF488125A4F4646C5E9AB
:101200000B726DE7584A934203D058480DB0BDE8C1
:10121000F0835822A5F84E204FF49012544EC5E9A1
:101220000B6202265CE7012B01D104236EE7022B3F
:101230003FF46CAF032BE8D1062367E71C2297E746
:101240004C4F06AE0FCF0FC697E8030086E80300A9
:10125000002D00F0B28074220021284606F062F9C9
:101260000023226844496B658A42CED12921274652
:10127000A5F84E104FF48021404885F858302E1DB7
:10128000C5E90B012A600FCF0FC697E80F0086E86B
:101290000F00637E012B08BF8DF82630A37E002B44
:1012A0004AD1ADF82830237E0121012B03BF002352
:1012B0008DF825304FF47A73E3683A20089300F0F4
:1012C0000BFB0121B5F84E0000F006FB23691A1F45
:1012D0000C2A9AD8033B206806A98DF8243002F026
:1012E000CDF8A36923F47F0323F47F4323B92A684D
:1012F000936843F480339360237A2079617940EADC
:101300000340637AA27941EA0341E67EA37A42EA86
:101310000342114B002E3BD11D26C3F89867C3F83A
:10132000B007C3F8A817C3F8AC27E17AE27942EA1C
:101330000142C3F89C2739E7012B02D14FF4007317
:10134000AFE7022B1ED14FF48073AAE70000014BD8
:1013500000000A409076000800C00340A5B00020BD
:10136000092000F00100110000400A40022000F0B6
:1013700001001200A476000800C00540020004002D
:1013800001001000032B7FF440AF4FF4407388E757
:101390001C24C3F89847C3F8B007C3F8A817C3F8CC
:1013A000AC2703E701F0D9FA12E705F12800FFF7AF
:1013B0003DFC00283FF42AAF15E7014826E700BFAF
:1013C000012000F0F0B51646027F0546012A0F46BF
:1013D00085B011D01A460393FFF772FD044640B959
:1013E00066B10A9A3946009228463246039BFFF7B7
:1013F000E5FD204605B0F0BD014CFAE7014CF8E7E9
:10140000082000F0022000F0FEE74FF04023D3F860
:101410008420D206FBD4D3F88400C0F38110704737
:1014200038B5194B0546D3F820310C4603F00703B5
:10143000013B052B20D8DFE803F0030B130F171B2C
:10144000FFF7C8F9052305B1286004B1237038BD42
:10145000FFF7F6F90323F6E7FFF70EFA0723F2E7A3
:10146000FFF706FA0223EEE7FFF7B4F90623EAE7EF
:10147000FFF7E6F90423E6E7044840F67B61FFF74F
:10148000C3FF00231846DEE700800040BC7600085A
:1014900038B5154B0546D3F828310C4603F0070341
:1014A000013B032B17D8DFE803F0020E120AFFF707
:1014B00091F9052305B1286004B1237038BDFFF709
:1014C000DBF90723F6E7FFF7BBF90323F2E7FFF7A2
:1014D000CFF90223EEE705484FF42871FFF794FF98
:1014E00000231846E6E700BF00800040BC760008F5
:1014F000F7B50024154B0194D3F88051074605F049
:101500000305022D0E4614D0032D0DD0012D15D14B
:10151000214601A8FFF784FF0F230FB1019A3A601B
:1015200006B1337003B0F0BDFFF7A6F907230190B1
:10153000F3E7FFF79DF92B460190EEE740F6B67111
:101540000348FFF761FF2346E7E700BF0080004044
:10155000BC76000838B50F4B0546D3F890320C46E0
:1015600003F00303012B09D0022B0BD1FFF784F901
:10157000072305B1286004B1237038BDFFF778F95F
:101580000223F6E7044840F28B31FFF73DFF0023CA
:101590001846EEE700800040BC760008002337B50F
:1015A0000193184B0546D3F820320C4603F007038D
:1015B000013B032B1ED8DFE803F0020E13180021B5
:1015C00001A8FFF765FF11230DB1019A2A6004B14C
:1015D000237003B030BDFFF74FF907230190F3E705
:1015E000FFF78CF90A230190EEE7FFF78DF9092345
:1015F0000190E9E740F26E210348FFF705FF002361
:10160000E2E700BF00800040BC76000838B5124B0E
:101610000546D3F840310C4603F00303022B0BD0F0
:10162000032B0DD0012B0FD1FFF768F90A2305B169
:10163000286004B1237038BDFFF766F90923F6E787
:10164000FFF75FF90B23F2E7044840F6A961FFF7C3
:10165000DBFE00231846EAE700800040BC76000865
:10166000002337B50193184B0546D3F860320C467A
:1016700003F00703013B032B1FD8DFE803F0020E42
:101680001914002101A8FFF7CBFE0F230DB1019A19
:101690002A6004B1237003B030BD002101A8FFF718
:1016A000B5FF1023F2E7FFF7E7F807230190EDE716
:1016B000FFF7DEF802230190E8E740F20331034828
:1016C000FFF7A2FE0023E1E700800040BC7600089F
:1016D00073B500240F4B0194D3F87032064603F023
:1016E0000303012B0D4607D0022B11D040F26131CC
:1016F0000948FFF789FE04E0214601A8FFF786FFAD
:1017000010240EB1019B336005B12C7002B070BD86
:101710001424F6E700800040BC76000838B5154B6D
:101720000546D3F800320C4603F00703013B032BB8
:1017300018D8DFE803F0020A0E12FFF7DFF80A23D9
:1017400005B1286004B1237038BDFFF7DDF8092327
:10175000F6E7FFF7D6F80B23F2E7FFF75BF80E2367
:10176000800AEDE7044841F26B01FFF74DFE0023CC
:101770001846E5E700800040BC76000838B5154BF8
:101780000546D3F808320C4603F00703013B032B50
:1017900018D8DFE803F0020A0E12FFF7AFF80A23A9
:1017A00005B1286004B1237038BDFFF7ADF80923F7
:1017B000F6E7FFF7A6F80B23F2E7FFF72BF80E2367
:1017C000800AEDE7044840F2EC41FFF71DFE0023DC
:1017D0001846E5E700800040BC76000838B5124B9B
:1017E0000546D3F840320C4603F00303022B0BD01E
:1017F000032B0DD0012B0FD1FFF780F80A2305B181
:10180000286004B1237038BDFFF77EF80923F6E79E
:10181000FFF777F80B23F2E7044841F22E01FFF7B8
:10182000F3FD00231846EAE700800040BC7600087C
:1018300038B5124B0546D3F850320C4603F003037B
:10184000022B0FD0032B05D0012B0FD1FFF756F839
:101850000A2302E0FFF755F80B2305B1286004B115
:10186000237038BDFFF750F80923F6E7044840F22B
:10187000CF21FFF7C9FD00231846EEE700800040A6
:10188000BC76000838B5124B0546D3F860310C46DB
:1018900003F00303022B0BD0032B0DD0012B0FD130
:1018A000FFF72CF80A2305B1286004B1237038BD76
:1018B000FFF72AF80923F6E7FFF723F80B23F2E7EF
:1018C000044840F6F661FFF79FFD00231846EAE75B
:1018D00000800040BC76000870B5440905460E46FD
:1018E0000ED140F205110F48FFF78EFD05F01F05E0
:1018F000AEB104F58053012000FA05F51D6070BDFE
:10190000012C08D0022C08D040F20F110548FFF737
:101910007BFD0024EAE7044CE8E7044CE6E704F525
:101920000053E8E7BC76000864800040688000400F
:10193000B0F5207F10B534D009D8B0F5007F2AD09B
:1019400003D898B1B0F5C07F10D0002421E0B0F5E5
:10195000607FFAD1154BD3F88030C3F301149B0696
:1019600017D5032C15D04FF4CE610FE00F4B1C6F31
:10197000230B13F00E0FC4F303340AD0032C08D04A
:10198000072C06D00F2C04D04FF4CC610848FFF789
:101990003BFD601C10BD054BD3F89040C4F30464BC
:1019A000F7E7024B1C6FC4F38024F2E7008000408D
:1019B000BC760008002330B5B0F5807F85B00446C2
:1019C000029300F004816CD8002800F0E080A0F1C0
:1019D0002004A3B2602B74D8602C72D8DFE814F016
:1019E000D700DA00D700DA00ED00ED00ED00ED00E1
:1019F000ED00DA00F2007D009A0009017D00DA00B6
:101A0000DA00DA007100710071007100710071007C
:101A100071001D01DA00DA00DA00AD001301DA000E
:101A2000710071007100710071007100710071002E
:101A30007100710071007100B500ED00D700D70092
:101A4000D7000E017D007D001801C1009200CC007E
:101A5000CC007100710071007100710071007100A3
:101A600071007100710071007100710071007100EE
:101A700071007100710071007100710071007100DE
:101A800071007100710071007100710071007100CE
:101A900071007100710071007100710071007100BE
:101AA000D100B0F5D06F00F0A48038D8B0F5607FD9
:101AB0007AD01DD8B0F5007F76D008D8B0F5C07FB9
:101AC00065D040F2DB115748FFF79EFC5CE0B0F5B3
:101AD000207F5FD0B0F5407FF3D1FEF79BFE044638
:101AE0004FF42070FFF724FFB4FBF0F040084AE009
:101AF000B0F5B06F66D00AD8B0F5806F5DD0B0F5A4
:101B0000A06FDED1002102A8FFF748FD3CE0B0F550
:101B1000C06FD6D1002102A8FFF778FD34E0B0F500
:101B2000206F75D016D8B0F5106F67D00AD8B0F511
:101B3000E06F68D0B0F5F06FC3D1002102A8FFF7C5
:101B4000A1FE21E0B0F5186FBBD1002102A8FFF77C
:101B50006FFE19E0B0F5306F5FD007D8B0F5286F91
:101B6000AFD1002102A8FFF7B3FD0DE0B0F5386F4B
:101B7000D0D0B0F5406FA4D1002102A8FFF788FCB7
:101B800002E0FEF72DFE0290029805B030BDFEF790
:101B900041FEF8E7FEF73EFE04464FF42070FFF7E3
:101BA000C7FEB4FBF0F0EEE7FEF71AFE054620464E
:101BB000FFF7BEFEB5FBF0F0E5E7002102A8FFF756
:101BC0002FFCE1E7002102A8FFF792FCDCE703937A
:101BD0004FF0E0231B695B0705D5FEF71BFE039062
:101BE000039B0293D0E70DF1070103A8FFF70EFD59
:101BF000F6E7002102A8FFF791FDC5E7002102A842
:101C0000FFF7BCFDC0E7002102A8FFF7E7FDBBE737
:101C1000002102A8FFF724FDB6E7002102A8FFF784
:101C200099FCB1E7BC76000808B58020FFF7C2FE3A
:101C3000034B98429EBF4FF48032024B1A6708BD97
:101C4000005A620200A000404FF480320F4B70B582
:101C50009A66064600200D46FFF76AFE41F671328D
:101C60000B4B7043DC690B49DA635A68884204F411
:101C7000803422F4401203D9012D18BF42F480129F
:101C80005A600CB10022DA6370BD00BF00900040C2
:101C900000000340005A620208B5FEF7CDFDBDE822
:101CA00008400021FFF7D0BF002307B5B0F5807FC3
:101CB0008DF8023000F0E08077D8582868D83828AE
:101CC00006D8243883B2092B48D940F2A371C5E065
:101CD00039381F28F9D801A353F820F0411E000815
:101CE000CB1C0008CB1C0008CB1C0008AD1E000854
:101CF000031F0008CB1C0008CB1C0008CB1C0008ED
:101D0000CB1C0008CB1C0008CB1C0008CB1C000817
:101D1000CB1C0008CB1C0008CB1C0008CB1C000807
:101D2000CB1C0008CB1C00080F1F0008D31D0008A7
:101D3000CB1C0008CB1C0008CB1C0008211E00088F
:101D4000CB1C0008CB1C00081B1F0008271F000825
:101D5000EB1E0008F71E0008F71E00080928B4D87B
:101D600001A353F820F000BFD31D0008D31D0008C5
:101D7000D31D0008D31D0008D31D0008CB1C00088C
:101D8000651E0008CB1C0008A11E0008F51D0008F8
:101D900080289AD1674B1B6F03F00703013B032B8D
:101DA0005AD8DFE803F05753969EB0F5086F00F05D
:101DB000838025D8B0F5C06F72D010D8B0F5A06F71
:101DC00000F09380B0F5B06F4CD0B0F5806F7FF429
:101DD0007CAF00200DF10201FFF722FB47E0B0F5D8
:101DE000E06F00F08E80B0F5F06F5FD0B0F5D06F8F
:101DF0007FF46BAF00200DF10201FFF78FFC36E09E
:101E0000B0F5286F00F08F8010D8B0F5186F7ED035
:101E1000B0F5206F00F08180B0F5106F7FF455AF02
:101E200000200DF10201FFF7A9FC20E0B0F5386FAA
:101E300036D0B0F5406F5ED0B0F5306F7FF445AF6F
:101E400000200DF10201FFF785FB10E005238DF85E
:101E500002300CE00223FAE740F20B713648FFF73C
:101E6000D3FA04E000200DF10201FFF741FB9DF8D9
:101E7000020003B05DF804FB01934FF0E0231B69FF
:101E80005B0707D5FEF7C6FC0C238DF803309DF8E1
:101E90000330DCE70DF1030101A8FFF7B7FBF6E71C
:101EA00000200DF10201FFF7B1FBE0E700200DF18A
:101EB0000201FFF7E7FCDAE71E4BD3F8003103F02D
:101EC0000303022B07D0032B09D0012B0BD1FEF704
:101ED000B7FC0323BBE7FEF717FD0923B7E7FEF7BF
:101EE000C5FC0823B3E70123B1E700200DF102018F
:101EF000FFF754FBBBE700200DF10201FFF7C8FA22
:101F0000B5E700200DF10201FFF768FCAFE7002004
:101F10000DF10201FFF78CFCA9E700200DF1020191
:101F2000FFF79EFBA3E700200DF10201FFF7D0FBB6
:101F30009DE700BF00800040BC760008F8B503783C
:101F400004460F2B04D940F601417E48FFF75CFAA6
:101F500063780F2B04D940F604417A48FFF754FA0E
:101F6000A3780F2B04D940F607417648FFF74CFAC7
:101F7000E3780F2B04D940F60A417248FFF744FA80
:101F800023790F2B04D940F60D416E48FFF73CFA38
:101F900063793F2B04D94FF441616A48FFF734FA63
:101FA000A3793F2B04D940F613416648FFF72CFA7A
:101FB000E379032B04D940F616416248FFF724FA6F
:101FC000237A032B04D940F619415E48FFF71CFA27
:101FD000637B032B04D940F61C415A48FFF714FADF
:101FE0008020FFF761FE032800F0A1804FF48012EB
:101FF000554B564D5A6645F60E034FF08072C5F8A4
:102000008030534B9A624FF4803203F580539A62CA
:10201000AE6D16F48036FBD14E4BD3F87C7100F0D8
:102020008FFC2B6C83EA171707F00F075F402F64B4
:1020300000F08AFC637822781B0543EA0263A279E8
:10204000454F1343E27843EA0243227943EA0233DD
:10205000627943EA82132B61AB69E27A03F00043B1
:102060001343E27943EA8263227A43EA0263627AA3
:1020700043EA0243A27A43EA0223AB6100F060FC28
:10208000AB6923F0407343F00073AB6100F05CFC7C
:1020900000F056FCAB6B23F4406343F40063AB6386
:1020A00000F052FC637B2A6A002B18BF0826217BB4
:1020B00022F00F0243EA020343EA8103234946EA7E
:1020C00003060E62A37BA67C257C607C8A6A4FEAAD
:1020D00043134FEAC6062BD194F80FC03A4043EAA7
:1020E0000C131343334343F480338B621B4B8A6DD1
:1020F00033EA0202FBD14FF08073154EB3620A69D6
:10210000A77822F4700242EA07520A614FF00042B7
:10211000B2610DB9124A936218B94FF48032104B74
:102120009A62E37C1BB1094B0E4AC3F88020F8BDCC
:102130003A403343134343EA056343EA00438B6267
:10214000EFE700BFBC760008009000400040004A66
:102150000050004A0080E00FC7FFFEFE03000100B0
:102160000060004AF1A7FFFF014B93F900007047A0
:102170003810002010B583780446072B04D940F6A8
:10218000E9412A48FFF740F9E378032B04D940F6E8
:10219000EB412648FFF738F92378032B04D940F6A2
:1021A000ED412248FFF730F994F90130002B04DAB1
:1021B00040F6EF411D48FFF727F94FF400011C4A94
:1021C000637851664FF4D151022002F5B832516262
:1021D00018494F2B48604FF0010028BF4F2301F5ED
:1021E000805148601169C903FCD4217843EA012376
:1021F0005361E378A1781B0143EA012361790B4322
:10220000217943EA41039360E379A1791B0143EA11
:102210004113617A0B43217A43EA41035360A37A65
:1022200013B16FF4D153536210BD00BFBC760008E8
:102230000090004000100240014B1880704700BF22
:102240003A1000200029CCBF01210021FFF7FCBC7F
:10225000B0F5207F10B565D00ED8B0F5007F4FD017
:1022600003D800B3B0F5C07F1DD040F2E161BDE8F6
:1022700010403448FFF7C8B8B0F5607FF5D14C1E68
:10228000012C06D9042904D040F2C7612D48FFF77C
:10229000BBF82D4AD2F8803023F0300343EA041310
:1022A000C2F8803010BD102901F1FF3404D8274B4B
:1022B00023FA01F1CB0704D440F29E612148FFF7D5
:1022C000A3F8FFF7E9FC00F045F84FF48031204B0C
:1022D0001D4A1967136F23F4704343EA04331367ED
:1022E000FEF798FA0446FFF790F8C0F10201204685
:1022F000FFF7A8FF00F034F8BDE81040FFF794BCEA
:102300004C1E1F2C04D940F2D5610E48FFF77CF813
:102310000D4BD3F8901021F0F85141EA0461C3F855
:102320009010BFE74C1E012C04D940F2DB61054838
:10233000FFF76AF8044B196F21F4806141EA8421A8
:102340001967AFE7BC760008008000401601010065
:102350000090004002214FF42070FFF779BF000089
:1023600008B54FF4C070FFF725FBBDE808400449ED
:1023700088428CBF022101214FF42070FFF768BF13
:1023800080F0FA02B0F5807FF8B50C4600F05D8170
:1023900076D8582868D8382806D8243883B2092B2C
:1023A00048D940F6662172E139381F28F9D801A3CF
:1023B00053F820F04F250008A3230008A3230008AA
:1023C000A3230008F126000861280008A3230008C1
:1023D000A3230008A3230008A3230008A3230008C5
:1023E000A3230008A3230008A3230008A3230008B5
:1023F000A3230008A3230008A3230008A3230008A5
:102400008D280008AD240008A3230008A32300089A
:10241000A32300081F250008A3230008A323000806
:10242000B9280008F9280008DF2700082328000839
:10243000232800080928B4D801A353F820F000BFCE
:10244000AD240008AD240008AD240008AD24000828
:10245000AD240008A32300080B260008A3230008CE
:10246000C5260008E524000880289AD18B1E062B7B
:1024700000F2C080DFE803F0BBACBEC6BEBE800089
:10248000B0F5086F00F08C8138D8B0F5C06F00F05F
:1024900019811BD8B0F5A06F00F0A181B0F5B06F25
:1024A00000F0B380B0F5806F7FF47BAF023CE4B204
:1024B000052C00F2C380B04B195DB04AD2F8203130
:1024C00023F007030B43C2F8203180E0B0F5E06F42
:1024D00000F0C681B0F5F06F00F00A81B0F5D06F62
:1024E0007FF45FAF093C052C00F22681DFE814F091
:1024F00016012B012001240124012201B0F5286FCF
:1025000000F0FA8117D8B0F5186F00F0BF81B0F570
:10251000206F00F0D181B0F5106F7FF442AF093C1D
:10252000052C00F22081DFE814F0100125011A01CA
:102530001E011E011C01B0F5386F00F0C380B0F51C
:10254000406F00F06E81B0F5306F7FF42AAF022C3F
:1025500000F0E981072C00F0E88140F65E21884810
:10256000FEF752FF00228549D1F8903223F0030391
:102570001343C1F890322AE0002504264FF4803737
:102580000121022000F03EFAFFF786FBFFF7E2FE92
:102590007C4B7A4A1F67136F23F00703334313679B
:1025A000FEF738F90646FEF730FFC0F1020130466B
:1025B000FFF748FE0121002000F07CFAFFF7D0FE73
:1025C000FFF732FB1DB9032C01D16F4B9F62F8BDA1
:1025D0004FF480126B4B03265A664FF480326B4BDC
:1025E0009D6A03F58053C5F300659A62C6E700252E
:1025F0000126C3E7002540F2DD716148FEF704FFC4
:102600002E46BBE700250226B8E7072C12D00F2C78
:1026100012D0022C05D040F621015948FEF7F4FEF5
:102620000024564AD2F8803123F003031C43C2F839
:102630008041CCE70324F4E70124F2E740F652019D
:102640004F48FEF7E1FE002137E70C2924D01AD8C5
:10265000A1F10904022C18D84FF48032474B4C49A1
:10266000586E03F580535A664B6A43F001034B6280
:10267000C1035CBF474B5A664FF0E022136923F059
:1026800004031361A3E71029E6D040F67A01BDE800
:10269000F8403B48FEF7B8BE4FF48032374B3C4918
:1026A000586E03F580535A664B6A23F001034B6260
:1026B000C3035CBF374B5A664FF0E022136943F007
:1026C0000403DEE7093CE4B2022C0AD8324B195D60
:1026D0002A4AD2F8403123F003030B43C2F84031B9
:1026E00075E740F695012648FEF78EFE0021EFE7DC
:1026F000093CE4B2022C0AD8284B195D1F4AD2F8D3
:10270000603123F003030B43C2F860315FE74FF4FD
:102710000B611B48FEF778FE0021EFE70222174904
:10272000D1F8003223F007031343C1F800324EE71B
:102730000322F4E70422F2E740F6F5011048FEF721
:1027400063FE0022EBE70122E9E702220B49D1F800
:10275000083223F007031343C1F8083237E7032296
:10276000F4E70422F2E740F615110548FEF74CFEA7
:102770000022EBE70122E9E7217700080080004012
:10278000BC760008009000400060004A0040004A0B
:1027900000C0074000A00040277700082777000806
:1027A0004C1E082C12D8DFE804F016111811111174
:1027B000110F050002225E49D1F8003123F0030316
:1027C0001343C1F8003102E70322F4E740F6311168
:1027D0005848FEF719FE0022EDE70122EBE7073C1F
:1027E0000A2C15D8DFE804F006141210141414147F
:1027F00014141B0002224E49D1F8203223F00703A3
:102800001343C1F82032E2E60322F4E70422F2E7A0
:1028100040F691114748FEF7F7FD0022EBE7012251
:10282000E9E7023C052C12D8DFE804F00D0F11187F
:10283000110304223E49D1F8283123F00703134342
:10284000C1F82831C3E60322F4E70222F2E740F69A
:10285000AD113848FEF7D8FD0022EBE70122E9E789
:10286000093CE4B2022C0AD8334B195D304AD2F845
:10287000403223F003030B43C2F84032A7E640F690
:10288000E6112C48FEF7C0FD0021EFE7093CE4B259
:10289000022C0AD8294B195D254AD2F8503223F070
:1028A00003030B43C2F8503291E640F6022121485F
:1028B000FEF7AAFD0021EFE70F2C17D012D8022C4B
:1028C00016D0072C16D040F61C211A48FEF79CFDA6
:1028D00000221749D1F8603223F007031343C1F8EF
:1028E000603274E6102CEED10222F2E70122F0E70A
:1028F0000322EEE70422ECE7102C10D0142C10D0A9
:1029000040F64A210B48FEF77FFD00220849D1F826
:10291000703223F003031343C1F8703257E60122EB
:10292000F4E70222F2E701221DE602221BE600BFC5
:1029300000800040BC760008277700082777000851
:10294000EFF3108072B6704700B962B67047EFF3CC
:102950001180302383F31188704780F3118870470A
:10296000034B5868C0F30800003818BF01207047B7
:1029700000ED00E0EFF31083DB0706D4EFF31180E6
:102980002F2894BF002001207047012070470000CD
:10299000024A536B0342FCD1704700BF004009401C
:1029A00070477047704700000A4A10B51369044623
:1029B00043F00403136103F07DFBFFF7F2FF30BF28
:1029C000FFF7F0FF03F08AFB1CB9BDE81040FDF7EC
:1029D00021BF10BD00ED00E0084A10B513690446A0
:1029E00043F00403136103F065FB30BF03F076FB93
:1029F0001CB9BDE81040FDF70DBF10BD00ED00E0B3
:102A0000704770472DE9F0414FF040230446D3F85A
:102A10008420D006FBD4D3F88430C3F381139C42C6
:102A20003FD0FDF7DDFE012C05460BD11E4B984231
:102A300004D940F216611D48FEF7E6FC0121284644
:102A4000FFF700FCFFF77CFF4FF00072184B0746C2
:102A50005A662046FFF7A4FF4FF480634FF04026EC
:102A6000621E9340DFF844803367736E9A0103D48B
:102A7000D6F884309B060AD53846FFF765FF022C4E
:102A80000FD12846BDE8F0410021FFF7DBBBD6F8A7
:102A900084309906E9D540F224614046FEF7B4FC43
:102AA000E3E7BDE8F08100BF005A62022A77000820
:102AB0000060004007B518B90191FDF791FE01993A
:102AC000064B1B7843B1064B984205D8012003B052
:102AD0005DF804EBFFF796BF0220F8E7A6B00020F0
:102AE000005A62020278034B012100201A70FFF79E
:102AF000E1BF00BFA6B000204FF04022536F4178E5
:102B000023F4407343EA0123536770474FF0402298
:102B1000D36E017923F030030B43D3667047000076
:102B20004FF00042144B10B55A664AF6CD331349A4
:102B30004C6C0B6404F0010478B90120FFF728FF06
:102B40004B68DB0704D50E4B58600B6BD807FCD5E0
:102B500014B10A4B0B4A1A6410BD0B6B1A07FCD454
:102B60002022074B9A620122A3F580535A60034A40
:102B7000936A9B06FCD5EBE70090004000400940BB
:102B8000006009403254FFFF4FF0004238B5174B48
:102B900001465A664AF6CD334FF04022144C656C1C
:102BA000236443780B205B0043F00103D363FFF7FA
:102BB000EFFE63688A7823F4F87343EA02136360D4
:102BC000CA784B7943EA0223A3600A798B7943EAF6
:102BD000022323610878FFF7A3FFEB0748BF054BEB
:102BE0004FF0010048BF236438BD00BF0090004093
:102BF000004009403254FFFF436D0B42FCD1704747
:102C000008B54368DA0714D58368DB0702D5036982
:102C1000D90707D50A2350218363FFF7EDFF836CA3
:102C20009A07FCD1012200F500535A6043689B07C4
:102C3000FCD408BD10B5FFF7E3FF042300F5805175
:102C400000F500520B6113610B6113610B6113619D
:102C50000B611361202341F2020103610023C36071
:102C6000836041614FF4A021836141620449C361E3
:102C700003628362C36243630365D164036310BD6F
:102C8000FF3F0D0338B5194B044698420D460BD053
:102C9000174B984208D003F58043984204D040F285
:102CA00051111448FEF7B0FB25B92046BDE8384065
:102CB000FFF7A6BF012204F580535A6040F6FF716A
:102CC000204605F00F02FFF797FFA2637821FFF778
:102CD00093FF05F001036A0748BF43F00203A26CAB
:102CE00002F003029A42FAD138BD00BF0000014B46
:102CF00000000A408F770008836C5A06FCD54164B7
:102D0000836C1B06FCD5C06B80B27047F8B50546D6
:102D10000C46174622B940F2F5116B48FEF774FBDA
:102D20006A4B9D4200F0C080694B9D4200F0C1801B
:102D300003F580439D4200F0C18040F2FF116248DC
:102D4000FEF762FB44B9604840F22B31FEF75CFBB2
:102D50002046FEF72FFE0446AB68D9073AD5BC42A1
:102D600004D240F209215848FEF74EFBB4FBF7F3BA
:102D70006E685C1E16F001072AD028212846FFF74E
:102D80003BFFAB6C9A071DD1AB6CDB071CD4AE6C60
:102D900016F002061AD140F21A214B48FEF734FB16
:102DA0002846FFF72DFF2B6923F07F4343EA046396
:102DB0002B61002F00F0878031462846BDE8F8409F
:102DC000FFF760BF0526EBE70926E9E70626E7E7F8
:102DD0003E46E8E76B68012B04D040F22D213A48CB
:102DE000FEF712FBA96801F0E001402946D009D89E
:102DF000B9B1202938D04FF41A71BDE8F8403248F3
:102E0000FEF702BB602945D08029F4D107EB4703C8
:102E1000A34204D940F262212B48FEF7F5FA0123C0
:102E200008E0B7EB141F04D940F24E212648FEF704
:102E3000EBFA10237B436401B4FBF3F3254E203BF4
:102E4000B6EBC30F4FEAC30404D240F273211E480D
:102E5000FEF7DAFA284634400121FFF7CDFE2C6355
:102E6000BDE8F840FFF7C8BEB7EBD40F04D940F275
:102E700053211548FEF7C8FA0823DBE70626B4FB02
:102E8000F6F3BB4204D24FF416710F48FEF7BCFABA
:102E90003346CFE7B7EB940F04D940F25D210A48DF
:102EA000FEF7B2FA0423C5E7002C7FF455AF562095
:102EB0004FE7002C7FF450AF57204AE7002C7FF4F7
:102EC0004BAF582045E7F8BD8F7700080000014B55
:102ED00000000A40F8FF7F006F4B70B5984204462F
:102EE0000D460AD06D4B984207D003F580439842B7
:102EF00003D0D6216A48FEF787FA1DB9D821684861
:102F0000FEF782FA6A7BAB68002A00F09880654A77
:102F1000934203D9DA216248FEF776FA2B692BB186
:102F2000DB7B1BB1DD215E48FEF76EFA63682E691C
:102F300023B140F6FF712046FFF75EFE2046FFF703
:102F400079FE22696B7BA97B22F007020B431343B6
:102F50002361AEB12A692369117823F078030B430A
:102F6000117943EA4113517A43EA0113D17B43EAD1
:102F700081132361537B117BDB0343EA8123E360ED
:102F8000A368EA7B23F00303134343F00103A36028
:102F900006B32A69A168538803F4C0430B43A360B6
:102FA0005179A36843EA8123A3609379D079616A58
:102FB000127A1B01000203F0700300F4E06021F4B8
:102FC000EE41034321F0700112030B4302F4E0428F
:102FD0001343636263692A7B23F00F031343636126
:102FE000B6B12B695A89A2615A7B3AB12A4A9442F6
:102FF0002BD19A7B2C4902F00F024A66DA7B3AB158
:10300000254A944234D11B7C274A03F00F031366F0
:10301000D5E901122046FFF779FE05212046FFF78A
:1030200031FE00212046FFF7E7FD2B78A363FFF771
:10303000E3FDA36CDB4313F4405FFAD170BD1B4A80
:1030400093427FF673AFE0216DE7144A944209D0B2
:1030500002F580429442D1D19A7B134902F00F02CB
:10306000CA67CBE79A7B104902F00F020A67C5E7EF
:103070000A4A944209D002F580429442C8D11B7C8E
:10308000094A03F00F039367C2E71B7C064A03F06B
:103090000F03D366BCE700BF0000014B00000A40ED
:1030A0008F770008002D3101009003408096980032
:1030B00038B50D460446B0B1012817D0022817D004
:1030C000032803D13F23EB40DB0704D440F2134134
:1030D0000948FEF799F9302001214443074B01FAD2
:1030E00005F51D5138BD40F2FF73ECE70F23EAE709
:1030F00040F2FF33E7E700BFB875000840D0034057
:1031000038B50D460446B0B1012817D0022817D0B3
:10311000032803D13F23EB40DB0704D44FF479713C
:103120000948FEF771F9302001214443074B01FAA9
:1031300005F51D5138BD40F2FF73ECE70F23EAE7B8
:1031400040F2FF33E7E700BFB875000840E00340F6
:103150002DE9F0410D4616461F46804678B30128FA
:1031600030D0022830D0032803D13F23EB40DB07C7
:1031700004D440F21D112148FEF746F926B1294634
:10318000404627B3FFF794FF302404FB08F4072DD3
:1031900004F1804404F570341CD80F21636BAA003D
:1031A000914023EA010306FA02F21343636316BB5C
:1031B00029464046DFB1BDE8F041FFF779BF40F254
:1031C000FF73D3E70F23D1E740F2FF33CEE7FFF7DA
:1031D00097FFD9E70F21A5F10803E26B9B00994007
:1031E00022EA010206FA03F31343E363DFE7BDE8D3
:1031F000F041FFF785BFBDE8F08100BFF777000819
:10320000022A10B54FF0000405D9033A022A0CD95E
:103210000360047110BD11F4000218BF4FF07F422B
:1032200021F07F4313430C0EF2E721F0FF03CCB2F1
:10323000EEE708B50A6F496F02F00702FFF7E0FFFB
:1032400008BD000010B5044618B98D211F48FEF7CF
:10325000DBF823781B0613F0604F03D08E211B4848
:10326000FEF7D2F8E3780F2B03D99F211748FEF71A
:10327000CBF801212020FEF72FFB01212120FEF7B2
:103280002BFB0122124B5A60227812069A60617859
:10329000A27842EA01429A61FF229A6200229A636E
:1032A0001A644FF000425A654FF0FF324FF480012C
:1032B00003F500531A65074AC2F88011E3781B0131
:1032C000DBB282F81633116010BD00BF5D780008D4
:1032D0000000044000E100E02DE9F0410126C3B206
:1032E000072805460C46904606FA03F603DDE6215C
:1032F0003648FEF789F81CB9E7213448FEF784F810
:10330000236823F47C1323F00F031BB1EA212F4819
:10331000FEF77AF8A37A1B0413F47C0F04D040F272
:1033200003112A48FEF770F8E37A1B0513F07E6F4D
:1033300004D040F205112548FEF766F8237B5B05B3
:1033400013F0FE5F04D040F207112048FEF75CF84E
:1033500030201F4FAB0000FB0575627B216803F135
:10336000402303F5802359602A66E37AA27A1B057D
:1033700043EA0243227B43EA4253EB65154B28F0B4
:1033800003022A671E65FFF7E2FA7B6D33437B6514
:10339000237A13B13B6C33433B64637A13B1BB6B49
:1033A0003343BB632279A37943EA0243094A936119
:1033B0006179E37943EA014307498B61044B566322
:1033C0009E64BDE8F041FFF7C8BA00BF5D78000811
:1033D00000000440002004400010044070B5064680
:1033E0000C46154622B94FF422710C48FEF70CF832
:1033F00024B94FF42070FEF7DDFA04466D00013C5D
:10340000B4FBF5F4064B250213EA042304D040F282
:10341000A5210248FDF7F8FFF56170BD2879000885
:10342000070080FF124B10B59842044604D040F2CA
:103430002E411048FDF7E8FF012104F58053596043
:1034400040F6AA6341F20502636100230A48A360C3
:10345000E365E26004F500522361E361E364906494
:103460000348A365844204BF23656365516010BDB2
:1034700000C0054028790008FFFF010038B52A4B3D
:10348000044698420D4604D04FF456712748FDF784
:10349000BBFF2046FFF7C6FF0122A97B04F580533E
:1034A0005A602A8AA368002914BF4FF48061002162
:1034B00042F0010213432A7D0B43002A14BF4FF050
:1034C00000520022A360A3681343A360AB7C5BB1EE
:1034D000154B9C4202BFEA7CA3F51033C3F8D421FC
:1034E000E36D43F08003E3652B7B2046D5E90112B1
:1034F00043F48053E360FFF771FF6B7B0BB1102344
:1035000063616B7D1BB1A36843F48033A360AB7D23
:10351000EA7D1B07120503F0E04302F4E0021343C7
:10352000A3652B78636138BD00C005402879000889
:103530002DE9F0470646DDE90884154699468A4696
:10354000344F41B9082323704FF4D963A360324B41
:103550006760E360FEE75AB1531E134208D00823A8
:10356000237040F2CB63A3602B4B6760E360FEE700
:10357000FFF7EDF9002D08BF04254D4538BF4D4636
:10358000D6F808E06B1E13EA0E0FC5F1000208BF63
:10359000002502EA0E02154409F1FF33AA4413EA9A
:1035A0000A0FC9F1000208BF4FF0000902EA0A023F
:1035B00002EB0903726884460132A2EB0E01A3EB11
:1035C0000E0E714515491AD2B8F1000F02D09B1AA0
:1035D000C8F80030162540F222732570C4E9023184
:1035E00060466760FFF7B9F940F2D76325700025A0
:1035F000A360094B6760E3602846BDE8F087B360CD
:10360000002323704FF4E5636760C4E90231FFF7DC
:10361000A4F9F1E78F790008207A0008087A0008F9
:1036200030B50C461D46114685B01BB9039200F01B
:1036300019F8039900230648009304220123002C63
:1036400018BF20460195FFF773FF05B030BD00BFDE
:103650003C1000200022024B1A6001F00BBD00BF9D
:10366000A8D40020FEE70000014B1860704700BF9F
:10367000A8D400201FB50C4B1B78012B0AD1FFF7F3
:103680006FF9002814BF6FF005004FF0FF3005B050
:103690005DF804FB684600F003FA9DF8000000386E
:1036A00018BF01204042F2E7B4D800201FB5FFF751
:1036B00057F948B9074B1B78012B02D0684600F038
:1036C000F5F84FF0FF3001E06FF0050005B05DF850
:1036D00004FB00BFB4D80020704700002DE9F04182
:1036E000224B1B78012B00D0FEE7214B1F78002FC7
:1036F00039D1FFF72CF91F4D044695F8008000F0F2
:10370000E5FF402803461C4E28701BD00C20434385
:103710001A4AB8F1400FD358336001D100E000BF1E
:10372000174F32683B689A420DD1002001F052FADF
:10373000012802D0386801F0EBFC2046BDE8F041DA
:10374000FFF70BB937600F4A1368013313602B780A
:10375000402B01D100E000BF01F09BFD2046FFF7A8
:10376000FCF8BFF36F8FBDE8F08100BFB4D8002034
:10377000B5D80020ABD50020C4D80020B4D5002097
:10378000C0D80020C8D800202DE9F041044608B96F
:10379000FFF768FFFFF7E4F8194E0746194D38B1F7
:1037A0002023237040F21933C4E902356660FEE736
:1037B000154B1B78012B08D00223237040F21D33D8
:1037C0006660C4E90235BDE8F081DFF8408098F812
:1037D0000030F92B05D91E236660237040F2223396
:1037E000EFE7FFF7B4F898F80030013388F80030BD
:1037F000FFF7B3F840F22D3327706660E1E700BFB2
:103800003C7A0008FE7A0008B4D80020B5D8002021
:103810002DE9F041044608B9FFF724FFFFF7A0F8AF
:103820001E4F1F4E38B12023237040F24533C4E9A8
:1038300002366760FEE71B4B1B78012B08D0022382
:10384000237040F249336760C4E90236BDE8F08175
:10385000DFF8548098F800302BB91F23676023707D
:1038600040F24E33F0E7FFF772F898F80050013D50
:10387000EDB288F800503DB1FFF76FF82D23676077
:10388000237040F25633DFE7FFF767F8FFF726FFB4
:103890004FF4587325706760D6E700BF3C7A000884
:1038A000F07A0008B4D80020B5D8002070B50446DE
:1038B00008B9FFF7D7FE254B1E78012E09D0132338
:1038C0002370234B636040F2F633A360214BE36027
:1038D000FEE7214B1B884BB9092323701C4B636007
:1038E00040F20143A3601B4BE360FEE71B4D2B78C6
:1038F0004BB11F232370164B636040F20443A36057
:10390000144BE360FEE7FFF735F848B11F2323703F
:103910000F4B636040F20743A3600E4BE360FEE78A
:1039200000F0D4FE0E4B0F4A18700F4B2E7018701B
:103930000C2358430D4B1B5813600D4A136001F0C4
:1039400061FCBDE87040FFF78DBE00BF96D500203A
:103950003C7A0008E87A0008D0D80020B4D80020CB
:10396000ABD50020C4D80020AAD50020B4D50020B3
:10397000C0D8002008B500F0A9FEA0F140035842CD
:10398000584108BD30B14368C1F88C308368DB68AA
:10399000C361704791F83030022B03D0072B05D05C
:1039A000034B00E0034BC1F88C307047024BFAE741
:1039B000C17A0008B17A0008B87A0008044BC1F84F
:1039C0008C3018B1826802B1D368C361704700BF00
:1039D000C17A00080023C0E90033038170470368FF
:1039E00010B533B901220281C1E909330160416098
:1039F0001CE0028991F833400132028193F83320B0
:103A0000A2420CD85B6A002BF8D14B6243688B62F0
:103A10005962ECE7C1E909325162996206E09A6A9B
:103A2000002AF7D1C1E909329962016010BDC36A69
:103A30005BB19A68526A4AB9C3E902221A8A013A0A
:103A40001A820023C0E90933C3627047D0E9092113
:103A500011B991629A60F1E74A620AB9D960EDE75B
:103A60009162EBE738B5C56AAB685B6A4BB1FFF7AB
:103A7000DEFFC562014605F10800BDE83840FFF7EA
:103A8000AEBF38BD40220021044B013AC3E900110A
:103A9000198103F10C03F8D1704700BFB4D50020A1
:103AA00070B5044608B9FFF7DDFD424D6A68D2B132
:103AB0002B68414E4BB92346296B40489200FFF7D3
:103AC000AFFD306023780BB170BD336032683C4B82
:103AD0003C491A606B683C4A13603C4A9B00136087
:103AE0000A6813440B602A89BAB10C262346724334
:103AF000296B3748FFF794FD364B18602378002B6D
:103B0000E2D1354B354A18602B892E491380734317
:103B1000334A13600A6813440B6001F0DBFA002398
:103B2000304A29491370304A1370304A1360304AC2
:103B30001360304A1370304A13700A6852B120483B
:103B4000006838B10546013A45F8043BFBD10968E5
:103B500001F054F80025294B1D7000F0AFFDFFF770
:103B600091FF274B1D60274B1D801C4B1B88D3B931
:103B70000023254A20461360244A1380244A1360F8
:103B8000244A1380244A1360244A138000F0CAFF99
:103B90002378002B98D100F025F9FFF79DFD012235
:103BA0001F4B1A7090E7204600F0F8FC2378002B9A
:103BB000DED089E750100020B0D40020C37A00087E
:103BC000B4D40020ACD40020B8D40020BCD4002051
:103BD000D67A0008C0D40020C4D40020C8D4002065
:103BE000CCD40020B4D80020B5D80020C0D8002004
:103BF000C4D80020AAD50020ABD50020D2D8002000
:103C000090D5002094D50020A4D50020A8D5002070
:103C1000ACD50020B0D50020B8D80020BCD80020FA
:103C200096D500200C2290F833300B495343CA58E4
:103C300030B5CC1832B901252581C0E90422C8501D
:103C4000606030BD25890135258100240261446111
:103C50005061C850F5E700BFB4D500200C2390F8A0
:103C600033200B495A4330B58C588B1834B9012591
:103C70001D81C0E904448850586030BD1A89013262
:103C80001A81002202615A6842611061F4E700BFA4
:103C9000B4D5002010B5044690F8330000F026FD9E
:103CA000074B94F833201B7820469A4203D1BDE895
:103CB0001040FFF7D3BFBDE81040FFF7B3BF00BF10
:103CC000AAD5002038B50C4691F8321005460729D0
:103CD00007D80239052906D8DFE801F006060505F0
:103CE0001919FF2924D138BDA264A4F84C3015B1AC
:103CF0002046FFF79CFE21462846FFF75FFE204640
:103D0000FFF7C8FF0023238684F83230EBE7A26474
:103D1000A4F84C3015B12046FFF789FE214628460D
:103D2000FFF74CFE00232386042384F83230DAE7C1
:103D3000BDE83840FFF796BC70B504460C21D4E9C5
:103D4000043590F83300104A9DB953B941435518D2
:103D50002B8153506B6000F0DFFC0023C4E9043377
:103D600070BD484316183189013931815D611350A6
:103D7000F3E701FB00221189013911812B610BB995
:103D80005560EAE75D61E8E7B4D5002010B5044668
:103D900031B1FFF767FC2046BDE81040FFF7CCBF0C
:103DA000022380F83230F6E738B5002304460C4D84
:103DB000286880F8301080F831301146FFF7E6FFB0
:103DC0005CB1296804F10800CC62FFF708FE2046C8
:103DD0002968BDE83840FFF7D5BD2B68DC62F6E7FF
:103DE000C0D80020754B82B01B78DBB28DF805304F
:103DF000734B1B68DBB28DF80730724B1B78DBB25C
:103E00008DF80530704B1B78DBB28DF805306F4BA9
:103E10001B68DBB28DF807306D4B1B6ADBB28DF887
:103E200007306C4B1B78DBB28DF805306A4B1B7882
:103E3000DBB28DF80530694B1B88DBB28DF806309C
:103E4000674B1B88DBB28DF80630664B1B78DBB204
:103E50008DF80530644B1B88DBB28DF80630634B60
:103E60001B88DBB28DF80630614B1B88DBB28DF806
:103E70000630604B93F82830DBB28DF807305E4B8C
:103E80001B78DBB28DF805305C4B1B88DBB28DF8FC
:103E900006305B4B1B88DBB28DF80630594B1B8814
:103EA000DBB28DF80630584B1B88DBB28DF806303C
:103EB000564B1B88DBB28DF80630554B1B88DBB2A6
:103EC0008DF80630534B5B8DDBB28DF80730524BCB
:103ED0001B78DBB28DF80530504B1B88DBB28DF8B8
:103EE00006304F4B1B78DBB28DF806304D4B1B6A0A
:103EF000DBB28DF807304C4B1B78DBB28DF8053008
:103F00004A4B1B88DBB28DF80630494B1B88DBB26D
:103F10008DF80630474B1B68DBB28DF80730464BF7
:103F20001B78DBB28DF80630444B1B78DBB28DF882
:103F30000530434B1B78DBB28DF80530414B1B78C5
:103F4000DBB28DF80530404B1B78DBB28DF80530C5
:103F50003E4B1B78DBB28DF805303D4B1B78DBB256
:103F60008DF805303B4B1B88DBB28DF806303A4BA1
:103F70001B78DBB28DF80530384B1B88DBB28DF82F
:103F80000630374B1B88DBB28DF80630354B1B787B
:103F9000DBB28DF80530344B1B88DBB28DF8063070
:103FA000324B1B88DBB28DF806309DF805309DF84A
:103FB00006309DF8073002B0704700BF9010002017
:103FC0008C10002088100020D0D4002094100020F5
:103FD000D4D4002098100020F8D400209A1000209B
:103FE0009C1000209E100020A4100020A010002093
:103FF000A2100020FCD40020A6100020A810002051
:10400000AA100020AC100020AE100020B01000203C
:10401000B210002028D50020B4100020B6100020D7
:1040200058D500205CD50020C0100020C210002010
:10403000B8100020BC100020C410002080D5002043
:1040400081D50020C8100020C9100020CA1000200F
:1040500082D50020CC100020CE100020C6100020F9
:10406000D010002083D5002084D50020D21000205D
:1040700010B4064C2468A4F874200022E16622677C
:1040800001211A465DF8044BFFF78EBEC0D8002010
:104090002DE9F74F0D9C05468B4617469A460CB9FD
:1040A000FFF7E0FA0FFA8AF3002B0093C0F2358194
:1040B000FEF756FC002800F02B8120232370A04B34
:1040C000636040F23513A3609E4BE360FEE71F235D
:1040D00023709B4B636040F23913A360994BE360FC
:1040E000FEE702232370964B63604FF49F73A36037
:1040F000944BE3604FF0000856E047F6FF630AEA8E
:104100000303581E01280DD9042B0BD0082B09D00E
:10411000082323708A4B63604FF4A373A360894B19
:10412000E360FEE72868884B984209D00C2323708F
:10413000834B63604FF4AC73A360824BE360FEE794
:104140000AF4807301930C9B13B100230C9A136043
:10415000FEF7FDFB0AF00F09B9F1040F064607D080
:10416000B9F1080F3DD0FEF7F8FBFFF77BFA71E0DD
:104170002A6A3BEA020302EA0B0819D1019B13B138
:1041800022EA08022A62714A12680AB1C2F87080F3
:104190003046FEF7E2FB00222270694A62604FF46B
:1041A000BB72A260674AE260404603B0BDE8F08F90
:1041B000009B002B08DAFEF7D0FB1D232370604B19
:1041C000636040F27D1392E7614B1B78002B38D07F
:1041D000FEF7C3FB2D232370594B63604FF4C2736A
:1041E00085E72A6A12EA0B0813D0019B13B122EA71
:1041F00008022A62554A12680AB1C2F87080304635
:10420000FEF7ABFB002222704D4A62604FF4D17280
:10421000C7E7009B002B08DAFEF79FFB1D222270E8
:10422000474A626040F2A912BBE7494B1B7843B191
:10423000FEF793FB2D222270414A62604FF4D87240
:10424000AFE728463B4652465946FFF711FF304636
:10425000FEF783FB3D4EFFF741FAFEF778FB33682C
:1042600093F831200023032A41D8DFE802F002222C
:10427000372B2370324B636040F22D23A360314B08
:10428000E3603368D3F87080019B4BB1B9F1040F40
:1042900002D0B9F1080F34D12A6A22EA08022A6250
:1042A000FEF75BFB00222270254A626040F26F221B
:1042B00077E7FEF752FB21232370214B63604FF415
:1042C0000E7314E70C9A02B11360FEF746FB22232B
:1042D00023701B4B636040F2412308E7FEF73DFB70
:1042E00031232370164B63604FF41373FFE6009085
:1042F000FEF733FBFFF7B6F923780098002BC0D008
:10430000F8E60090FEF729FBFFF7ACF90098C7E745
:10431000FEF730FB00287FF4DAAE0E4B1B78012B42
:104320007FF4DFAE002D7FF4E8AE0A232370044B48
:10433000636040F24313A360024BE360FEE700BFFB
:104340000A7B00088A7B0008464C4147C0D8002001
:10435000B5D80020B4D80020054B064AC36100231D
:104360004361136883610BB9106070475861FBE7C4
:10437000C17A000890D500202DE9F84F05468B46FC
:1043800092461C460BB9FFF76DF9FEF7E9FADFF824
:104390007C8006461A4F38B1202323705523C4E988
:1043A0000237C4F80480FEE73DB90A23237058237E
:1043B000C4E90237C4F80480FEE7FEF7C8FA814674
:1043C00024223146284603F0ADF80E4B05F10800D3
:1043D000C5E9003BC5F820A0FFF7FCFA2846FFF727
:1043E000BBFF094A4846138801331380FEF7B5FA2C
:1043F00070232670C4E90237C4F80480BDE8F88F42
:10440000957B0008464C414794D500200A7B000864
:1044100038B5002590F83230044601670586072B31
:1044200012D8DFE803F00808040408080D0DFFF7B0
:1044300031FC84F832502046BDE83840FFF7F7BA27
:10444000042380F83230F6E7FFF70CF9F3E70000B9
:104450002DE9F04105460F4616461C460BB9FFF7FD
:1044600001F94A4B1B78012B0CD002232370484BD7
:104470000025636040F23233A360464BE360284678
:10448000BDE8F0814DB90A232370414B636040F2CF
:104490003733A3603F4BE360FEE747F6FE731E42EF
:1044A00009D0082323703A4B636040F23A33A3608B
:1044B000384BE360FEE72A68374B9A4209D00C2359
:1044C0002370334B63604FF45073A360314BE36050
:1044D000FEE7FEF73CFAB6F5004F80460BD048F2F7
:1044E00001039E4219D036B1012E16D0FEF735FADF
:1044F000FFF7B8F802E0296A39432962AF6887B943
:104500004046FEF72AFA224B2770636040F262337E
:10451000A360204B2D6AE360B1E7296A21EA070115
:10452000EBE73846B0F874307F6A03F00F03042BD2
:1045300007D0082B0ED04046FEF70FFAFFF792F88F
:104540000CE0C16E2B6A31EA030307D10022FFF7AA
:104550005FFF03E0296AC36E1940F7D1002FE0D155
:104560004046FEF7FAF9330401D4FFF7B7F8FEF737
:10457000EEF92D6AFEF7F1F900232370044B636016
:1045800040F2A333A360034BE36078E7B4D8002084
:104590000A7B00087F7B0008464C4147F0B50025A8
:1045A000124B1C68124B04F10C011E882B46721E24
:1045B00092B2AFB2BA4212D80C214A43A350A1180A
:1045C0000C4A4B600B81D38013819680146003707A
:1045D000094B43605D238360084BC360F0BD41E934
:1045E000031321F8043C01350C31E2E7C4D4002068
:1045F000C8D4002098D50020A27B0008167C0008B3
:10460000428910B582B1094B01681C680C60416891
:104610001960D988891AD980998811449980002312
:10462000C0E9003343818381104610BD98D5002036
:1046300038B504460D461022002102F073FF258193
:1046400038BD836B00F138028B42186A01D11060CB
:10465000704703F120020346F6E7836B3F2003B95E
:1046600070479A6822B192F83320904228BF1046D2
:104670001B6AF4E72DE9F341054601260027846B08
:1046800014B902B0BDE8F08121462846D4F8208054
:10469000FFF7D7FFA16821B984F82810616244466A
:1046A000EEE784F828608B6B6562236200238C63DD
:1046B0001A4620460097FFF705FBF0E70022024B61
:1046C000C3E90022704700BF88D5002008B5064B1B
:1046D000186828B9586800F089FD2030C0B208BDBC
:1046E00000F084FDFAE700BF88D500201F28094AA2
:1046F00007D84FF0004323FA00F013680343136018
:1047000070470123C0F13F0003FA00F053681843DB
:104710005060704788D500201F280A4B08D84FF0FA
:10472000004222FA00F01A6822EA00021A6070477A
:104730000122C0F13F0002FA00F05A6822EA0002AA
:104740005A60704788D500202DE9F7430A9C05463A
:10475000884616460CB9FEF785FF0FFA86F9B9F1BF
:10476000000F0ADABDB90A2323705E4B63604FF471
:104770009373A3605C4BE360FEE7FEF7F1F800285B
:10478000F0D020232370574B63604FF49173A360E4
:10479000554BE360FEE7C6F30E064EB108232370C7
:1047A000504B636040F22913A3604F4BE360FEE778
:1047B0002A684E4B9A4209D00C232370494B636000
:1047C00040F22D13A360484BE360FEE7B9F1000F00
:1047D0000CDBFEF7CFF848B11F232370414B636019
:1047E0004FF49873A360404BE360FEE7404B1B78A7
:1047F000012B12D1FEF7ABF82E6A0746DEB1013E5F
:104800002E62FEF7AAF800232370364B636040F255
:104810004313A360344BE36009E002232370314B60
:104820000026636040F23513A3602F4BE3603046EF
:1048300003B0BDE8F083B9F1000F08DAFEF78DF898
:104840001D232370274B636040F25113E1E7294B8E
:104850001B7843B1FEF781F82D232370214B636051
:1048600040F25D13D5E7424606212846FFF79CFA41
:104870003846FEF772F8FEF731FFFEF768F81E4B78
:104880001B6893F83130032B25D8DFE803F0020FC3
:104890001D1600232370134B63604FF4BA73A3609B
:1048A000114BE3602E6AFEF758F8C0E7212323700E
:1048B0000C4B63604FF4BF73F1E722232370094B65
:1048C00063604FF4C473EAE731232370054B6360E0
:1048D0004FF4C973E3E70190FEF73FF8FEF7C2FE1D
:1048E0000198DFE7257C0008A37C000853454D4173
:1048F000B4D80020B5D80020C0D800202DE9F34757
:104900000646894614460AB9FEF7ACFE4EB90A239C
:1049100023703C4B636040F22623A3603A4BE36074
:10492000FEE747F6FF5519EA050509D0082323706D
:10493000344B636040F22923A360334BE360FEE70E
:104940003268324B9A4209D00C2323702D4B63609E
:1049500040F22F23A3602C4BE360FEE72C4B1B7827
:10496000012B09D002232370264B636040F23323CE
:10497000A360254BE36034E0FDF7E9FFB7688046AC
:10498000EFB109F4007A002339461A467F6A3046AF
:104990000095FFF797F9BAF1000F01D0002FF2D17F
:1049A0004046FDF7DAFF19F4004F01D1FEF796FEFD
:1049B0000025144B2570636040F26523D8E7356A03
:1049C000DFF840906B1CDFF840800ED1FDF7C5FF8B
:1049D0001E2323704FF411733D46C4E90238C4F816
:1049E0000490284602B0BDE8F08701353562FDF736
:1049F000B4FF40F24F232770C4E90238C4F8049092
:104A0000EFE700BF257C0008997C000853454D4125
:104A1000B4D80020054B064AC361002343611368E4
:104A200083610BB9106070475861FBE7C17A0008D9
:104A3000B8D800202DE9F84F05468A4693461C4613
:104A40000BB9FEF70FFEFDF78BFFDFF880800646FF
:104A50001B4F38B1202323705823C4E90237C4F810
:104A60000480FEE73DB90A2323705B23C4E90237C3
:104A7000C4F80480FEE7FDF76AFF81462422314630
:104A8000284602F04FFD0F4B05F108002B60C5F8DA
:104A900020B0C5F804A0FEF79DFF2846FFF7BAFF37
:104AA000094A4846138801331380FDF756FF7323E4
:104AB0002670C4E90237C4F80480BDE8F88F00BF4F
:104AC000AD7C000853454D41BCD80020257C000832
:104AD0000023064AC0F884301368C0F888300BB948
:104AE00010607047C3F88400FAE700BFCCD80020FC
:104AF000D0E9212342B90A490B600BB1C3F88420E5
:104B00000023C0F888307047C2F8883013B9C0F865
:104B100084307047C3F884200023C0F88830F6E75B
:104B2000CCD800200023074A1360074A1380074AA5
:104B300013600370064B436040F621038360054B0E
:104B4000C3607047CCD80020D0D80020C8D800203F
:104B5000B97C0008347D000810B50446902200217D
:104B600002F0E0FC114B0021E36004F15000FFF77C
:104B70005FFD4FF08042002322634022C4E91E33D0
:104B8000C4E91833C4E92133E366A4F87430236719
:104B9000A3666364E36384F88030A4F84030A363C1
:104BA000034B84F83420C4F88C3010BD2E7D0008EF
:104BB000C17A0008064A031F1C3053F8041F9142B3
:104BC00003D18342F9D1012070470020704700BF14
:104BD0004523CDAB08B9084B1868026883699A422F
:104BE00007D3C16B03EB8100824202D21846FFF764
:104BF000E1BF0020704700BFC0D80020034A031F58
:104C00001C3043F8042F8342FBD170474523CDABC2
:104C10002DE9F04F89B004939DF848301A9C039316
:104C2000BDF858300546DDE9136A0593189B174611
:104C3000DDF85480BDF86490069107930CB9FEF737
:104C400011FDFDF78DFE654A8346654B30B162600C
:104C5000F0222021C4E902232170FEE735B9626009
:104C6000F3220A21C4E902232170FEE737B962600A
:104C7000F6220A21C4E902232170FEE736B96260F8
:104C8000F9220A21C4E902232170FEE75549096887
:104C9000414506D96260FC220821C4E90223217043
:104CA000FEE7D04506D86260FF220821C4E902234E
:104CB0002170FEE703993F2907D962604FF48172A2
:104CC0000821C4E902232170FEE7474905980988B5
:104CD000814207D262604FF483720821C4E9022343
:104CE0002170FEE72846FFF737FF3C4A3C4B6260E5
:104CF00040F20B1219F0030F84F800B0A260E360D9
:104D000059D12AF0070A06EB8A0A5346324638463A
:104D1000CDE90089049900F00BFA864283460AD94E
:104D2000322323702D4B63604FF49473A3602C4B9C
:104D3000E360FEF797FC41463046FFF75FFF049BB8
:104D400005992B62069B05F15000EB60039BEF6118
:104D500085F8333085F83430079BC5F800B06B60B8
:104D60000023C5F808A0C5E91833AB66AE61C5F8E5
:104D70003C80A5F84090FFF75BFC284600F0D4F992
:104D8000FDF7E5FD044695F83300FFF7AFFC284634
:104D9000FEF764FF2846FFF79BFE144A204613885F
:104DA00001331380124B1B78012B10D009B0BDE8E2
:104DB000F04FFDF7D2BD19F0020FA2D000231A4622
:104DC00002E046F8232001334345FAD199E7FDF785
:104DD000C4FD09B0BDE8F04FFEF780BCB97C000807
:104DE0004A7D0008387A0008C8D40020D0D80020B6
:104DF000B4D8002070B504460D4694F83230072B25
:104E000008D8013B062B0BD8DFE803F01F22221F36
:104E10001F222200FF2B1AD0BDE87040FEF722BCF3
:104E20002046FEF789FF284684F83350FFF75EFCE2
:104E3000264B20461B68A34203D1BDE87040FEF715
:104E4000F1BEBDE87040FEF709BF84F8335070BD75
:104E500094F8303094F83360013B84F83350072BDA
:104E6000DAD801A252F823F0894E00084F4E00080C
:104E7000194E0008934E0008894E0008894E00081C
:104E80004F4E0008894E00082046BDE87040FEF7EE
:104E9000E9BD2046FEF7E6FDE36AB5425C6A94F898
:104EA000333002D2AB42A8D8D1E7B342A5D12046D5
:104EB000FFF7D3FB94F83430984228BF184694F893
:104EC0003330C5B2AB4298D1C1E700BFC0D8002093
:104ED0002DE9F04105460C4609B9FEF7C3FBFDF785
:104EE0003FFD48B120232370564B63604FF4DB73C2
:104EF000A360554BE360FEE7544B1B78012B0AD0AF
:104F0000022323704F4B63604FF4DD73A3604E4B5D
:104F1000E360BDE8F0812DB9FDF719FD4C4B1D682C
:104F2000FDF71BFDFDF713FD95F832308046072B8A
:104F300008D8013B062B0DD8DFE803F00F35350FFD
:104F40000F353500FF2B74D0FDF707FDBDE8F041AC
:104F5000FEF788BB2846FEF7EFFEAB6B13B1284681
:104F6000FFF788FB05F15000FFF74AFB284600F0E9
:104F7000DCF82846FFF7BCFD364A40461388013B63
:104F80001380FF2385F83230FDF7E7FC0023237000
:104F90002C4B636040F23323A3602B4BE360BDE8EE
:104FA000F041FEF79BBB95F83030082B3ED801A2AC
:104FB00052F823F05B4F0008D94F00085B4F000800
:104FC0002D500008E14F0008D94F0008D94F0008C4
:104FD0005B4F0008D94F00082846FEF728FDBCE7C4
:104FE000EB6A28465E6A96F83370FEF720FD96F865
:104FF000333096F834209A420CD095F833209A42F8
:1050000008D13046FFF729FB96F83410814228BFBB
:105010000146CFB2002385F8303096F83330BB42DA
:105020009BD039463046FFF7E5FE96E7FEF71AFBC0
:1050300093E7FDF792FC1F232370024B636040F25D
:10504000092363E7B97C0008407D0008B4D800203C
:10505000C0D80020D0D800201FB5054B186800F03C
:1050600065F869460020FFF733FF05B05DF804FBE3
:10507000C0D8002008B5FBF7CDFB4FF0E022D2F8F6
:10508000FC3D43F08073C2F8FC3D0022044B5A60A3
:105090001A6842F001021A60BDE80840FEF7E4BA5F
:1050A000001000E01FB56846FEF76EFB9DF800306B
:1050B00003B1FEE700F03EFE6846FEF7A9FB9DF84F
:1050C000003003B1FEE705B05DF804FB08B5FFF75B
:1050D000E9FF08BD0B4B1A680B4B02F180421B68BD
:1050E000013A03EB8203094A23F0070313604FF0F0
:1050F000E023D3F8343F03F04043B3F1404F00D0F6
:10510000FEE77047B8D40020B4D40020D4D80020E3
:1051100007B5FDF71CFC0190FEF7A4FA019803B057
:105120005DF804EBFDF719BC70477047704700004D
:1051300010B5029C6FF0020C02EB84024FF08074F9
:1051400022F0070242E9020415484FF0123442F8F7
:105150000C0C4FF0033042E905044FF0023042E9F5
:1051600007304FF0113342F8201C42E90A3C4FF05F
:1051700010314FF009334FF0083042E90C314FF055
:1051800007334FF0063442E90E304FF00533104636
:1051900042E910344FF0043340F8443D10BD00BFE5
:1051A0005950000810B5074C23684BB10020FFF799
:1051B00011FD012804D02068BDE81040FFF7A8BF0A
:1051C00010BD00BFC0D8002008B5FEF7D3FB0038E3
:1051D00018BF012008BD08B5FFF7F6FF08BD08B5E8
:1051E000FEF7C8FB003818BF012008BDB0FA80F0F8
:1051F000704790FAA0F0B0FA80F0704790FAA0F0F3
:10520000704700BF72B64EF62250CEF2000040F258
:10521000FF01C0F200010170002080F309884DF603
:10522000D400C2F20000016881F30888FFF7BAFFDA
:105230004DF2AA50C2F200004DF2AB51C2F2000191
:105240000A7802704DF6C000C2F200004DF6C401AB
:10525000C2F200010A680260002080F30B88106827
:1052600080F3098802F10802116881F30B88EFF3DB
:10527000148040F0020020F0040080F31488BFF393
:105280006F8FBDE8F04F0FBCBDE8005006BC62B6A2
:10529000084737484FF080510160704734484FF05D
:1052A000805101607047302080F311884DF6C002B4
:1052B000C2F20002116800290ED0EFF309801EF03F
:1052C000100F08BF20ED108A20E9F04F4DF6C00501
:1052D000C2F20005296808607446FFF763FF4DF6C7
:1052E000C001C2F200014DF6C400C2F20000036822
:1052F0000B604DF2AA52C2F200024DF2AB51C2F263
:1053000000010878107044F0040E002080F30B8830
:10531000002B0DD01868B0E8F04F1EF0100F08BF3A
:10532000B0EC108A80F30988996881F30B881BE040
:105330004DF6D401C2F200010868A0F11C0080F310
:10534000088840F20001C0F20011C16145F2CD01B0
:10535000C0F60001816145F25901C0F600014161CA
:105360004FF6F97ECFF6FF7E002080F3118870475C
:1053700004ED00E0054B9A689107FCD45A68920747
:10538000F9D4DA69002AF6D1704700BF00800A40DC
:1053900008B5FFF7EFFF0122024B03F580514A6089
:1053A0001A6108BD00800A40074B5A68012A0AD1D9
:1053B0005A68D20702D5DA69002AF9D102221A61A5
:1053C0000122024B5A60704700800A4000A00A4048
:1053D00010B5064CFFF7CEFF6368012B03D1FFF732
:1053E000E3FFFFF7C7FF0378E36010BD00800A40CA
:1053F00018B171211048FCF707B84A680B7812B150
:10540000127843EAC2034A78002A14BF022200221B
:1054100013438A6812B1127843EA82138A78002A09
:1054200014BF042200221343CA6812B1127843EA5F
:105430004223024A93647047577D000800800A4067
:1054400020B14FF482710348FBF7DEBF024B596471
:10545000704700BF577D000800900A4020B14FF40C
:10546000A0710348FBF7D0BF024B5964704700BFDF
:10547000577D000800A00A4020B14FF4BE710348D8
:10548000FBF7C2BF024B1964704700BF577D00088D
:1054900000A00A4008B530B1044840F2B711FBF74C
:1054A000B3FF002008BD024B186CFBE7577D0008D6
:1054B00000800A4008B548B1084840F26621FBF771
:1054C000A3FF002008BD064BD86CFBE70029FAD0EB
:1054D0000129F7D1024B186DF4E700BF577D000892
:1054E00000800A4050B14FF441710748FBF78CBF70
:1054F000064BDA647047054B1A6570470029F7D0F0
:105500000129F8D0704700BF577D000800800A408D
:1055100007B5084B18689A889B7900906846ADF8E3
:1055200004208DF80630FDF72FFB002003B05DF856
:1055300004FB00BFCC7D00084FF0402213B50024CF
:10554000536F684643F00103536700948DF804409D
:10555000FDF7DCFA204602B010BD000070B586B041
:1055600001AA1546174B03F110061446186859682E
:10557000083303C4B3422246F7D11868124B2060A7
:10558000D3F84C21120314D4D3F85041E4B28DF86F
:105590000E40FCF7E9FD204480F308008DF80D0073
:1055A0000A48FBF753F92846FCF7C8FC002006B070
:1055B00070BD074B1C884FF6FF739C4208BF6F24D9
:1055C000E5E700BFD37D00080080E00FC01753025D
:1055D0000001E00F1FB5094A01AB1068516803C311
:1055E0001189927A01A819809A70FCF7C3FD642092
:1055F000FCF722FE002005B05DF804FBE77D000803
:105600006FF00402502110B50A480B4C12F0800FC5
:10561000D3B21BBF03F00F03043BA3181B1802F106
:1056200001020CBF83F8001319764C2AEED100203A
:1056300010BD00BF00ED00E000E100E000F07EB82A
:1056400038B500F0AFFE0446E0B900F0E9FF4FF4D2
:10565000167343430C4803F5742303F23F23B3FB53
:10566000F0F30A4A0A4913600A220D680948013A10
:1056700012F0FF0240F8043BF9D103EBC3022B44C4
:1056800013440B60204638BD40420F0014D900205F
:10569000E0D80020E4D8002085210148FBF7B4BE03
:1056A000F27D0008012208B5034B1A7000F0ACFF30
:1056B000024B186008BD00BFDCD8002010D90020C4
:1056C000F8B5144C237823B300F09EFF124B134D12
:1056D0001B68134EC01A012838BF0120114B124F0E
:1056E00018602B7856F8232046F82300111A3A68E0
:1056F0000E48521A0A213A600932B2FBF1F2013324
:10570000DBB20260B3FBF1F201FB12332B7000231A
:105710002370F8BDDCD8002010D900200CD900205F
:10572000E4D80020D8D80020E0D8002014D90020E8
:10573000014B1868704700BF14D9002020234FF494
:1057400080120A4981F82D33094B5A66094B0A4ADF
:1057500003F50050426702674FF4005003F5805391
:10576000C1F8840148605A67704700BF00E100E05B
:10577000009000400040004A010000A0054B064A8E
:105780001B78916DC90700D513B10028F9D1704776
:10579000012070472CD900200040004A2DE9F84331
:1057A0008F4B1E6F9D6A9C6AF00705F0807504F4AC
:1057B000803451D54FF001098A498B4A91F8008015
:1057C0008A4FC2F87090B8F1000F00F0FB80002003
:1057D00008703978494500F2EF804FF480319162CA
:1057E0004FF08071A2F5805291629A6DD103FCD482
:1057F0007F49DA6A096822F470620A43DA627D48F6
:105800007D4A99690068126821F47F01024321F4FE
:105810007F410A439A617948794A19691268006898
:1058200021F47F6121F00F0102430A431A61754997
:105830009A69096822F0FF020A439A614FF0807367
:10584000002D40F0B580684A93624FF48033002CFD
:1058500000F0B0806C4A936216F0005200F0848031
:10586000614B604F1A673B7823B140F215116748CE
:10587000FBF7CAFD01235D4A3B7013785C49013395
:105880001370574B5B4FDA6ADFF878C102F470602F
:1058900008609869584900F47F40086099694FF0A2
:1058A000807E01F47F0139609F69FFB2CCF80070FF
:1058B0001F69DFF84CC107F47C67CCF800701F69E2
:1058C000DFF838C107F03F07CCF800704FF4803C98
:1058D000454FC7F828C0DFF830C1CCF828E04FF0BA
:1058E000004ECCF828E0D3F858C01CF4803FFAD121
:1058F0004FF0004C22F4706242F40072B0F5C84FD1
:10590000C7F828C0DA6202D8B1F5C80F0CD9344AFA
:105910003F499369096823F47F0323F47F4343EAF3
:10592000012343EA014393612D4A3A491369096807
:1059300023F47F6323F00F03880843EA910343EACB
:1059400080131361936923F0FF030B4393614FF0BE
:105950008073002D3DD102F5005293624FF48033E5
:10596000002C38D0284A9362002E1FDA4FF00042F4
:105970001D4B1B491A67284A1278BAB14FF480327E
:105980009A624FF08072A3F580539A628A6DD203B7
:10599000FCD44FF000429A614FF0807205B9124B6F
:1059A0009A624FF48033C4B1174A9362BDE8F8831A
:1059B000154A49E70C4A4EE7FFF76EFE164B83F88F
:1059C000009049E7FFF77CFE00F0ACFA87F8008012
:1059D00042E70D4AC1E7044AC5E7034AE5E700BFCD
:1059E0000040004A2CD900200060004A2DD9002038
:1059F00030D9002028D9002024D9002020D9002027
:105A00001CD9002018D900200050004A6F7E0008E1
:105A1000D8100020D41000202ED90020FFF7BEBEE1
:105A2000034B1B78002B14BF01200220704700BFDE
:105A300060D900200329F8B505460E4607D8174B54
:105A40005C5C032D19D8DFE805F0090F121540F250
:105A50009D211348FBF7D8FC0024F2E744F0020430
:105A6000104B1F687FB9F8BD44F00804F8E744F014
:105A70002004F5E744F08004F2E740F2B221084840
:105A8000FBF7C2FCECE77B681A68144203D031468E
:105A900028465B6898473F68E4E700BF727F0008CC
:105AA000F37E00085CD9002038B5104D2B78ABB1DF
:105AB0000F4C23781BB100F03DFB00232370002026
:105AC00000F05CFB0B4C50B100F062FB00230121A5
:105AD00020782B70FFF7AEFF0123237038BD012221
