S01C00004E4753415F46697265416E67656C5F436F72655F342E73333768
S3150800000000100020890C0008850C0008850C0008E3
S31508000010850C0008850C0008850C0008850C00086E
S31508000020850C0008850C0008850C0008850C00085E
S31508000030850C0008850C00089F6C0008850C0008D4
S31508000040850C0008850C0008850C0008850C00083E
S31508000050850C0008850C0008850C0008850C00082E
S31508000060850C0008850C0008850C0008850C00081E
S31508000070850C0008D10A0008DD0A0008850C00086E
S31508000080850C0008850C0008850C0008850C0008FE
S31508000090850C0008850C0008E5120008850C000888
S315080000A0850C0008850C0008850C0008850C0008DE
S315080000B0850C0008850C0008850C0008850C0008CE
S315080000C0850C0008850C0008850C0008850C0008BE
S315080000D0850C0008850C0008850C0008850C0008AE
S315080000E0850C0008850C0008850C0008850C00089E
S315080000F0850C000815740008850C0008850C000896
S31508000100850C0008850C000821030008850C0008EA
S31508000110850C0008850C0008850C0008850C00086D
S31508000120850C0008850C0008850C0008850C00085D
S31508000130850C0008850C0008850C0008850C00084D
S31508000140850C0008850C0008850C0008850C00083D
S31508000150850C0008850C0008BF8D0008850C000872
S31508000160850C0008850C0008850C0008850C00081D
S3150800017010B5054C237833B9044B13B1044800E095
S3150800018000BF0123237010BD5C1100200000000091
S3150800019060B9000808B5034B1BB10349034800E0E2
S315080001A000BF08BD000000006011002060B900080B
S315080001B0A3F5803A704700BF174B002B08BF134BB7
S315080001C09D46FFF7F5FF00218B460F461348144A54
S315080001D0121A09F0E7FB0E4B002B00D098470D4B7F
S315080001E0002B00D098470020002104000D000D4880
S315080001F0002802D00C4800E000BF09F09FFB200051
S31508000200290000F073FB09F085FB00BF0000080019
S315080002100000000000000000001000205C11002013
S3150800022018DB00200000000000000000F0B5354D86
S3150800023093B008AC0FCD0FC40FCD0FC495E80300DB
S3150800024001250026032784E803002F4C29462A2087
S31508000250CDE90366CDE9056607968DF80E708DF82B
S3150800026008508DF809608DF80A608DF80B6001F06A
S31508000270F7FD29463A2001F0F3FD204603F0A2FCDB
S3150800028002214FF4B06002F041FB022332462046B9
S315080002901E498DF8173003F025FD334632468DF892
S315080002A019000090194920468DF8237003F048FD7F
S315080002B0A523174A0A908DF830708DF809308DF805
S315080002C00850D2F82833204643F48033C2F828333E
S315080002D005A908AA03F070FD02AA204603A903F09F
S315080002E019FC0C4A04F500535A624FF48022A36A9B
S315080002F043F40073A362084BC3F884215A6013B011
S31508000300F0BD00BF18AA0008004000498096980072
S3150800031000C003408F330F8000E100E000000000BA
S31508000320F0B587B06E46184C184D21463046676AB8
S3150800033003F0C8FE96E8030085E80300286808F07D
S31508000340CDFE0DA3D3E9002308F042FF0CA3D3E9A1
S31508000350002309F067F80E4B0022C3E900010221C9
S3150800036002AB0C4805F07AF904F50054676207B049
S31508000370F0BD00BFAFF300806666666666660A4033
S315080003800000000000FEAF40004000497811002040
S31508000390801100208C11002008B5FFF747FF0122C5
S315080003A0014BDA6008BD00BF0040004908B50021CE
S315080003B02A2001F055FDBDE808400021352001F04E
S315080003C04FBD00007FB5002202AB019302214FF416
S315080003D084730092034804F061FF034B186807B062
S315080003E05DF804FB8C1100207811002010B5FFF78A
S315080003F0D3FFFFF7E7FF0446034803F0E3FBFFF7E5
S31508000400D5FFA0B210BD00BF0040004908B50321C2
S31508000410002000F02BF90021062000F027F914210E
S31508000420082000F023F90A2000F0BAF93421082040
S3150800043000F01CF9012000F0B3F9BDE8084000F00F
S31508000440B3B9142108B5082000F010F90A2000F005
S31508000450A7F9BDE808400021084600F007B908B525
S315080004601421082000F002F9BDE8084000F09CB904
S3150800047007B500200321ADF8060000F0F7F80520BF
S3150800048000F090F93421082000F0F0F8052000F07B
S3150800049089F90120FFF7AAFF80B2ADF806001421FA
S315080004A0082000F0E3F8BDF8060080B203B05DF856
S315080004B004FB13B5002403212046ADF80440ADF82B
S315080004C0064000F0D3F800F072F92146062000F045
S315080004D0CDF81421082000F0C9F80A2000F060F9C8
S315080004E03421082000F0C2F800F05EF940F21450FA
S315080004F000F056F90120FFF779FF80B28021ADF8A8
S315080005000400062000F0B2F80A2000F04BF9A021FA
S31508000510062000F0ABF84FF4FA7000F041F980219C
S31508000520062000F0A3F8322000F03CF92146062008
S3150800053000F09CF840F2145000F032F90120FFF761
S3150800054055FF80B21421ADF80600082000F08EF899
S315080005500A2000F025F98021062000F087F80A20F5
S3150800056000F01EF92046214600F080F8BDF8040088
S3150800057080B202B010BD0821062000F077B800212D
S31508000580062000F073B800001FB500226B46012153
S31508000590024805F063F805B05DF804FB8C110020ED
S315080005A01FB519B96A46034805F0B4FD05B05DF8EC
S315080005B004FB00BFA0AE002040F2FF73C340DB0778
S315080005C010B5044604D440F21341044801F0E0F99A
S315080005D00120034B00FA04F41C6410BD40AA00086D
S315080005E000D0034040F2FF73C340DB0710B5044652
S315080005F004D44FF47971044801F0CAF90120034B79
S3150800060000FA04F41C6410BD40AA000800E0034088
S3150800061000B58FB00AAB02220893002342F210718C
S31508000620CDE906324FF47A72CDE902210A4ACDE9BC
S31508000630043301921422094900920948094A05F02F
S31508000640E3FF9DF828301BB18121074801F0A0F986
S315080006500FB05DF804FB00BFB4110020A6AA00087D
S31508000660F4AD0020C1070008B0AA00080B4600B583
S31508000670124989B04B70124B087012480093124AFF
S315080006800223006801F062F920B140F285110F4893
S3150800069001F07EF9002204AB0093114603AB0C4827
S315080006A005F05EFC9DF8103023B14FF4C77107487A
S315080006B001F06EF909B05DF804FB00BF9CAE00209E
S315080006C0A105000804100020B1110020B0AA0008F6
S315080006D0A0AE002008B515210820FFF7C7FF17218F
S315080006E00820FFF7C3FF14210820FFF7BFFFD12119
S315080006F00A20FFF7BBFF00210846FFF7B7FF0021D6
S315080007000420FFF7B3FF00210620FFF7AFFF002103
S315080007100C20FFF7ABFF00210E20FFF7A7FF0021F3
S315080007201020FFF7A3FFBDE80840FFF798BE0000BA
S31508000730FF2310B50C46144960F07F004B70134B2D
S3150800074088B0087012480093124A0223006801F024
S31508000750FDF820B14FF4D1710F4801F019F90022C4
S3150800076004AB0093114603AB0C4805F0F9FB9DF862
S31508000770103023B140F2AB11074801F009F9054BD7
S315080007805B78237008B010BD9CAE0020A105000858
S3150800079004100020B1110020B0AA0008A0AE002065
S315080007A008F07EB908F038BB0720FFF705BF072019
S315080007B0FFF718BF0620FFF7FFBE0620FFF712BF98
S315080007C0F0B58FB000223D493D4806AB05F04EFD19
S315080007D00AAE3C493C48002206AB04F0D3FE31463B
S315080007E042F2107008F078F940B90123374ACDE98A
S315080007F000030A990346364808F0D7F8FFF76AFF58
S31508000800314F344D00244FF4847322460121384673
S315080008100196009404F042FDFFF7CFFF2B78032BD7
S315080008200AD92C70FFF7A7FE0A2008F039F9FFF756
S31508000830A6FE0A2008F034F92B78274C01332B70D2
S31508000840FFF799FE0A2008F02BF9FFF798FE2378A0
S31508000850062B0CD1FFF7DAFDFFF70AFE0390FFF728
S31508000860F0FD03991D4809F04BF900232370217800
S315080008701B480131C9B221701A4C09F041F9237895
S31508000880122B16D1FFF796FFFFF713FE00230DF183
S31508000890150106202370FFF74BFF0DF116010820FE
S315080008A0FFF746FF0DF117010A20FFF741FFFFF793
S315080008B084FF237801332370A4E700BFBFAA00088A
S315080008C0A0AE0020D2AA00088C11002089050008D5
S315080008D084AE0020B011002088110020E2AA00088A
S315080008E0F4AA000889110020FFF792BE08B508F09F
S315080008F083FAFFF7F9FF08F08CFA002008BD704765
S3150800090008B50321802002F001F803214FF4806026
S3150800091001F0FCFF09214FF4C06001F0F7FF09213F
S315080009204FF4F06001F0F2FF09213E2001F0EEFFDE
S3150800093009212D2001F0EAFF0921512001F0E6FFE7
S31508000940002008BD10B501213A2001F089FA0023DC
S3150800095004221846072103F031F80023042218461A
S31508000960062103F02BF8BDE81040002304220521D8
S31508000970184603F023B800004FF480302649274A6A
S315080009804B6E10B55066486E4FF000414AF6CD34AE
S315080009905166234903F480334A6C0C6402F0010261
S315080009A04C6BE407FCD401241E494C601C4C216B9B
S315080009B0C907FCD51C49D1F8081689075EBF4FF44C
S315080009C080241849CC6512B1154A184911640028C3
S315080009D0A2BF4FF00041164A51661BB94FF4803248
S315080009E0134B5A6606F008FB00F0A0F806F08CFADE
S315080009F006F020FB06F0AEFA06F0E8FAFFF780FFED
S31508000A0006F096FA00F085F803F06CFD03F07AFD1F
S31508000A10BDE8104007F0B8BA0080004000900040DA
S31508000A20004009400060094000C007403254FFFFFB
S31508000A3000A0004003F09ABD08B5FFF783FF00F059
S31508000A404FF8BDE8084000F051B808B507F0D8FEE1
S31508000A5006F0F2FA00F03AF8BDE8084006F022BFC0
S31508000A607047704770B5154C9AB007AD0FCC0FC5D7
S31508000A7094E80F0004F1100685E80F000FCE0FADBD
S31508000A800FC50FCE0FC596E807003C3485E807006A
S31508000A9094E80F0003AD85E80F00094B294600933B
S31508000AA008480FAB07AA06F08DFD044618B1602169
S31508000AB0054800F06DFF20461AB070BD40AB00082F
S31508000AC0C4AE0020D0AF00200EAB0008FFF7CABFA7
S31508000AD0014B186806F088BED0AF0020FFF7F8BFB4
S31508000AE0014800F0DDB900BF9CAB0008024B034982
S31508000AF0186800F07DBD00BF041000200810002013
S31508000B0008B5012304221846002102F057FF0020E9
S31508000B1008BD08B501213A2001F0A2F9FFF7EFFE5A
S31508000B20FFF7EEFFBDE8084000F014B801213A20AF
S31508000B3001F096B91022024BC3F8A020704700BFF7
S31508000B4000D003401022024BC3F8A020704700BF14
S31508000B5000E0034070B5464D8AB005AC0FCD0FC412
S31508000B602B681222236001240021684608F01AFF28
S31508000B7021463A208DF804408DF8104001F070F9AE
S31508000B802146572001F06CF94FF48073394EADF8C1
S31508000B900430394B304605A90793CDF824D002F026
S31508000BA06BFC234621460422022002F007FF02219D
S31508000BB022460846002302F001FF234604220321A9
S31508000BC0022002F0FBFE042223461146022002F010
S31508000BD0F5FE2A4D2A4B4FF44870C5F8F8344FF005
S31508000BE00213C5F8F434A3F58033C5F8FC341C2386
S31508000BF0C5F8E43408F010F91420FFF7A3FF08F04D
S31508000C000BF92320FFF796FF08F006F9B9213046BD
S31508000C10FFF798FF02F03FFBFFF78CFF0023214602
S31508000C201A46022002F0CAFE002302211A46084686
S31508000C3002F0C4FE234600220321022002F0BEFE73
S31508000C40234600220421022002F0B8FE304602F0B4
S31508000C50B5FA00215720C5F8F814C5F8F414C5F8F4
S31508000C60FC14C5F8E41401F0FBF80AB070BD00BF27
S31508000C70B4AB000800000A40E070720000C00340F0
S31508000C8002000300FEE7000008B500F013F8064B63
S31508000C90064A07498B4201D3FFF78EFA52F8040B2E
S31508000CA043F8040BF6E700BF0010002068B90008F7
S31508000CB05C110020044B054A9A60D3F8882042F458
S31508000CC07002C3F88820704700ED00E000000008B5
S31508000CD0014B1868704700BF2C100020084B1B6F8B
S31508000CE003F00703022B04D0032B05D0012B05D0F4
S31508000CF0FEE7044B18687047034BFBE70348704749
S31508000D00008000402C10002030100020002D3101FA
S31508000D1008B5FFF7E3FF054B1B6FC3F30333013336
S31508000D20B0FBF3F0024B186008BD00BF008000401E
S31508000D30281000200048704700B4C404014B186806
S31508000D40704700BF30100020054B1860054B1B6F1D
S31508000D5003F00703032B01D1FFF7DABF704700BF83
S31508000D60301000200080004000207047004870477F
S31508000D70002D31014FF094439868C0F304400C28C5
S31508000D8022D8DFE800F0092121212121071719219E
S31508000D901B1D1F000F4870479B6803F04073B3F193
S31508000DA0807F13D0B3F1007F12D00B4A002B08BF07
S31508000DB01046704709487047094870470948704700
S31508000DC00948704709487047002070470848704727
S31508000DD008487047405DC60000093D000024F4003D
S31508000DE0C0EA210180BA8C010048E801005A620273
S31508000DF080841E0040420F004FF4004070474FF4B5
S31508000E007A707047014B1868704700BF341000208D
S31508000E10002303607047000038B504460D4601B14B
S31508000E2018B93821034800F0B3FD23682B60256004
S31508000E3038BD00BFC8AB000838B504460D4601B139
S31508000E4018B97C21054800F0A3FD23681BB1AB4205
S31508000E5002D12B68236038BD1C46F6E7C8AB0008EC
S31508000E601FB5144652B16A4605F0FCFA20609DF893
S31508000E700000003818BF012004B010BD0120FBE7B0
S31508000E8005490A681318054883428CBF4FF0FF329C
S31508000E900B601046704700BF381000200000012084
S31508000EA0D0E900031847000038B50D460446B0B12E
S31508000EB0012817D0022817D0032803D13F23EB4077
S31508000EC0DB0704D44FF47971094800F061FD30203E
S31508000ED001214443074B01FA05F51D5138BD40F27F
S31508000EE0FF73ECE70F23EAE740F2FF33E7E700BFBB
S31508000EF040AA000840E0034038B50D460446B0B1A4
S31508000F00012817D0022817D0032803D13F23EB4026
S31508000F10DB0704D440F21341094800F039FD3020BC
S31508000F2001214443074B01FA05F51D5138BD40F22E
S31508000F30FF73ECE70F23EAE740F2FF33E7E700BF6A
S31508000F4040AA000840D0034010B5044601213A20C3
S31508000F5000F086FFA3782078B3FA83F30422617839
S31508000F605B0902F02BFD002010BD034659789B78DB
S31508000F7000780BB9FFF798BFFFF7BEBF034659784D
S31508000F809B7800780BB9FFF7B7BFFFF78DBF000056
S31508000F9038B504784578ACB1012C16D0022C16D099
S31508000FA0032C03D13F23EB40DB0704D440F22E4148
S31508000FB0084800F0EDFC302301225C43064BAA40AA
S31508000FC01A5138BD40F2FF73EDE70F23EBE740F205
S31508000FD0FF33E8E740AA000840F0034070B50478FC
S31508000FE005464678F4B1012C1FD0022C1FD0032CDD
S31508000FF003D13F22F240D30704D440F2FE310D4814
S3150800100000F0C6FC30235C4303F18043103403F53B
S315080010107033E358F34003F00100AB780BB980F066
S31508001020010070BD40F2FF72E4E70F22E2E740F2EA
S31508001030FF32DFE740AA00082DE9F04F9A46564BE3
S3150800104085B01B7806460F461546DDF83C909DF898
S3150800105044B0DDF85080002B00F08D80072A00F29E
S315080010608C800E9B002B00F08880B9F1000F00F0F1
S315080010708480129BB3F5006F7FDC012802D1109B98
S31508001080002B7AD0454B03EB05131B7B002B76D040
S31508001090434C10220021684608F084FC04EB4514F2
S315080010A01022002F59D13946204608F07BFC43F21E
S315080010B010036380BBF1000F03D1E37843F0030309
S315080010C0E370374A0E9B02EB451CCCE90193129B51
S315080010D06901013BC3F30A009DF84C30012E03F069
S315080010E003034FEA836343EA001E53582D48CDF89D
S315080010F000A000EA03004EEA0003535041D113232F
S315080011000CF1100ECCF80C309CE80F008EE80F009E
S315080011106FF00301DCF81C20109B61F39F02012F7E
S31508001120CCF81C20CCF8143003D1CCF81890CCF8A5
S3150800113004300027194A290102EB051342F80180F9
S31508001140159A28465A60694622469F605E7303F0E0
S315080011500BF8384605B0BDE8F08F0021204608F0A8
S3150800116021FC4FF444736380BBF1000FA9D1E378E7
S3150800117043F03003A4E70C48ECE70C48EAE70C48D0
S31508001180E8E7B8F1000FD4D19CF8023068F30413ED
S315080011908CF80230CDE700BFECB100206CB000201F
S315080011A0ECB000200F80FFF3028000F0018000F011
S315080011B0078000F038B5124B05461B78DBB1E0B165
S315080011C001F089FE0F4A00231146147B54B92B609F
S315080011D001251A0101EB03131D738C5001F081FEE2
S315080011E0204638BD0133082B02F11002EDD101F07B
S315080011F078FE0548F5E70548F3E70548F1E700BF37
S31508001200ECB100206CB00020048000F0028000F0F1
S31508001210018000F0154B13B51868002301908DF86E
S31508001220043001F058FE124B1C7824B101F059FE27
S31508001230104802B010BD01221A7001F052FE0E4B82
S3150800124001A81C731C7783F82C4083F83C4083F86C
S315080012504C4083F85C4083F86C4083F87C40082354
S315080012608DF8073002F036FF2046E2E730AC00087A
S31508001270ECB10020038000F06CB0002010B588B0F7
S315080012800E9C009207940D9C024606949DF83040E9
S3150800129005940B9C04949DF8284003940024CDE9FA
S315080012A0013420460B462146FFF7C6FE08B010BD9E
S315080012B010B588B00E9C009207940D9C02460694C1
S315080012C09DF8304005940B9C04949DF8284003949F
S315080012D00024CDE9013420460B460121FFF7ACFE78
S315080012E008B010BD2DE9F843174B1F6D5B6D1F4005
S315080012F000D5FEE701260025144CDFF85480DFF8F8
S315080013005490374217D02368C8F850609BB1A1683B
S31508001310284601316268A1609847637B012B0AD190
S3150800132048B909EB45131A7B60F341021A731A7F11
S3150800133060F341021A770135082D4FEA460604F193
S315080013401004DED1BDE8F883000004406CB000202C
S3150800135000200440ECB000204FF480738363836C54
S315080013609A01FCD4836C1B0600D47047C36BF9E75B
S315080013702DE9F34104460B46E27B94F80BC0007A4C
S31508001380677AA57A217B94F80D80A67B84F844C0F9
S3150800139084F84520002B3DD0237F0BBB0422019304
S315080013A002F00CFB019B01224146384602F006FB7F
S315080013B0A27F3146012A8CBF0123019B04222846BD
S315080013C002F0FCFAE37F3BB90123042294F84510A6
S315080013D094F8440002F0F2FA002002B0BDE8F08169
S315080013E00023012202F0EAFA002304224146384685
S315080013F002F0E4FAA37F0222012B94BF0023012303
S315080014003146284602F0DAFAE37F002BE4D10123BD
S315080014100222DBE70222019302F0D0FA019B0222A4
S315080014204146384602F0CAFAA27F3146012A8CBFE5
S315080014300123019B0222284602F0C0FAE37F002B13
S31508001440CAD11A46C2E7000038B50546B0B1B9B1E7
S31508001450B2B1B2F5006F13DC01F03DFD95F84C30E2
S3150800146003F0FF041BB101F03CFD064838BD01231B
S3150800147085F84C3001F035FD2046F7E70248F5E7D8
S315080014800248F3E7032000F0012000F0022000F0F4
S31508001490436D70B5002B054603DC9E210C4800F011
S315080014A077FA01F018FD6C6D0646013C6C654CB97F
S315080014B001F00AFD05462146012006F095FD28465D
S315080014C001F006FD3046BDE8704001F00ABD00BFD8
S315080014D034AC000838B5144601F0FDFC0023A364BB
S315080014E084F84C302364237F0546012B03D104F18D
S315080014F05C0007F0D9F9636B1BB100212046E26B4B
S315080015009847284601F0EDFC2046FFF7C1FF012069
S3150800151038BD70B5044601F0DEFC636D05464BB96F
S3150800152001F0D2FC01210646084606F05DFD30466C
S3150800153001F0CEFC636D284601336365BDE8704053
S3150800154001F0CFBC2DE9F04F1E46002387B080F886
S315080015505030109B0446436390F8583089469246AB
S31508001560C663002B38D14FF4406305686B61436945
S31508001570092B03D905F12C08443506E00BBF05F104
S31508001580200805F1240838353C3567694FF0010B0A
S31508001590082F94BF002701272046FFF7BAFF134BF1
S315080015A05246CDE90273216B4346A06A049401961C
S315080015B0CDF800B0FFF77CFE00232A46CDE90333B9
S315080015C0CDE901674B46E16A606ACDF800B0FFF7DE
S315080015D055FE07B0BDE8F08F012BFAD10068FFF77A
S315080015E0BBFE256805F13C08C6E700BFD514000810
S315080015F02DE9F0430B68B74A054693420C468DB071
S3150800160007D0B54A934204D002F58042934240F08F
S31508001610DB804FF001080DF10409B04E12220021BB
S31508001620484606AF08F0BEF90FCE8DF808800FC7FA
S315080016308DF81480CDF82890002D00F082810026C0
S3150800164074220021284608F0ADF92368A14A6E6580
S31508001650934240F08E805622A5F84E204FF4801211
S31508001660DFF8A4C2C5E90BC22B600123A44685F89E
S3150800167058302F1DBCE80F000FC79CE80F0087E8FD
S315080016800F00637E012B08BF8DF80930A37E002B5F
S3150800169040F08D808DF82630237E0121012B03BF73
S315080016A000238DF825304FF47A73E3683A200893BF
S315080016B000F0D6FB0121B5F84E0000F0D1FB2369F6
S315080016C0DA1F092A65D8063B8DF82430A36923F466
S315080016D07F0323F47F4313B901238DF8083020686C
S315080016E006A901F0C9FE7E4BE07E06F1260103EB52
S315080016F04113002866D11D225A60237A227942EACC
S315080017000342774B03EB4616C6F8DC24677A627900
S3150800171042EA0742C6F8D424A77AA27942EA0742DF
S31508001720C6F8D82430B9E07AE27903EB411342EAE5
S3150800173000429A6001212846FFF71AFE50BB01F0C5
S31508001740CAFB684B1A78002A40F0F08001221A700A
S3150800175001F0C7FB07F054F8FFF75CFD002105F11F
S315080017602400FFF727FD0146002800F0E2805E48C6
S3150800177010E0594A934209D15722A5F84E204FF452
S3150800178088125A4F4646C5E90B726DE7584A934286
S3150800179003D058480DB0BDE8F0835822A5F84E206E
S315080017A04FF49012544EC5E90B6202265CE7012BF2
S315080017B001D104236EE7022B3FF46CAF032BE8D16B
S315080017C0062367E71C2297E74C4F06AE0FCF0FC6D6
S315080017D097E8030086E80300002D00F0B280742223
S315080017E00021284608F0DEF80023226844496B6584
S315080017F08A42CED129212746A5F84E104FF48021DA
S31508001800404885F858302E1DC5E90B012A600FCFD0
S315080018100FC697E80F0086E80F00637E012B08BF06
S315080018208DF82630A37E002B4AD1ADF82830237ECA
S315080018300121012B03BF00238DF825304FF47A735D
S31508001840E3683A20089300F00BFB0121B5F84E0037
S3150800185000F006FB23691A1F0C2A9AD8033B206856
S3150800186006A98DF8243002F051FDA36923F47F03FD
S3150800187023F47F4323B92A68936843F4803393603B
S31508001880237A2079617940EA0340637AA27941EAAA
S315080018900341E67EA37A42EA0342114B002E3BD16E
S315080018A01D26C3F89867C3F8B007C3F8A817C3F886
S315080018B0AC27E17AE27942EA0142C3F89C2739E784
S315080018C0012B02D14FF40073AFE7022B1ED14FF460
S315080018D08073AAE70000014B00000A40A0AC00088C
S315080018E000C00340EDB10020092000F001001100FE
S315080018F000400A40022000F001001200B4AC0008C3
S3150800190000C005400200040001001000032B7FF40C
S3150800191040AF4FF4407388E71C24C3F89847C3F8D0
S31508001920B007C3F8A817C3F8AC2703E701F0D9FA3C
S3150800193012E705F12800FFF73DFC00283FF42AAF1F
S3150800194015E7014826E700BF012000F0F0B5164666
S31508001950027F0546012A0F4685B011D01A46039321
S31508001960FFF772FD044640B966B10A9A39460092F5
S3150800197028463246039BFFF7E5FD204605B0F0BD35
S31508001980014CFAE7014CF8E7082000F0022000F0C5
S31508001990FEE74FF04023D3F88420D206FBD4D3F8D1
S315080019A08400C0F38110704738B5194B0546D3F843
S315080019B020310C4603F00703013B052B20D8DFE84E
S315080019C003F0030B130F171BFFF782F9052305B165
S315080019D0286004B1237038BDFFF7B0F90323F6E792
S315080019E0FFF7C8F90723F2E7FFF7C0F90223EEE786
S315080019F0FFF76EF90623EAE7FFF7A0F90423E6E7FF
S31508001A00044840F67B61FFF7C3FF00231846DEE76C
S31508001A1000800040CCAC000838B5154B0546D3F815
S31508001A2028310C4603F00703013B032B17D8DFE8E0
S31508001A3003F0020E120AFFF74BF9052305B12860D9
S31508001A4004B1237038BDFFF795F90723F6E7FFF7CA
S31508001A5075F90323F2E7FFF789F90223EEE705484C
S31508001A604FF42871FFF794FF00231846E6E700BFF6
S31508001A7000800040CCAC0008F7B50024154B019453
S31508001A80D3F88051074605F00305022D0E4614D0FB
S31508001A90032D0DD0012D15D1214601A8FFF784FF8E
S31508001AA00F230FB1019A3A6006B1337003B0F0BD47
S31508001AB0FFF760F907230190F3E7FFF757F92B467D
S31508001AC00190EEE740F6B6710348FFF761FF23463B
S31508001AD0E7E700BF00800040CCAC000838B50F4BE4
S31508001AE00546D3F890320C4603F00303012B09D0C0
S31508001AF0022B0BD1FFF73EF9072305B1286004B185
S31508001B00237038BDFFF732F90223F6E7044840F29E
S31508001B108B31FFF73DFF00231846EEE700800040B3
S31508001B20CCAC0008002337B50193184B0546D3F80B
S31508001B3020320C4603F00703013B032B1ED8DFE8CF
S31508001B4003F0020E1318002101A8FFF765FF112301
S31508001B500DB1019A2A6004B1237003B030BDFFF7B6
S31508001B6009F907230190F3E7FFF746F90A230190DD
S31508001B70EEE7FFF747F909230190E9E740F26E21FE
S31508001B800348FFF705FF0023E2E700BF0080004097
S31508001B90CCAC000838B5124B0546D3F840310C4694
S31508001BA003F00303022B0BD0032B0DD0012B0FD10F
S31508001BB0FFF722F90A2305B1286004B1237038BD5E
S31508001BC0FFF720F90923F6E7FFF719F90B23F2E7E0
S31508001BD0044840F6A961FFF7DBFE00231846EAE74A
S31508001BE000800040CCAC0008002337B50193184BA1
S31508001BF00546D3F860320C4603F00703013B032B76
S31508001C001FD8DFE803F0020E1914002101A8FFF718
S31508001C10CBFE0F230DB1019A2A6004B1237003B0DD
S31508001C2030BD002101A8FFF7B5FF1023F2E7FFF743
S31508001C30A1F807230190EDE7FFF798F80223019032
S31508001C40E8E740F203310348FFF7A2FE0023E1E785
S31508001C5000800040CCAC000873B500240F4B0194FB
S31508001C60D3F87032064603F00303012B0D4607D05E
S31508001C70022B11D040F261310948FFF789FE04E0D2
S31508001C80214601A8FFF786FF10240EB1019B336099
S31508001C9005B12C7002B070BD1424F6E70080004030
S31508001CA0CCAC000838B5154B0546D3F800320C46BF
S31508001CB003F00703013B032B18D8DFE803F0020AF9
S31508001CC00E12FFF799F80A2305B1286004B12370AC
S31508001CD038BDFFF797F80923F6E7FFF790F80B23C7
S31508001CE0F2E7FFF715F80E23800AEDE7044841F2FC
S31508001CF06B01FFF74DFE00231846E5E7008000401C
S31508001D00CCAC000838B5154B0546D3F808320C4656
S31508001D1003F00703013B032B18D8DFE803F0020A98
S31508001D200E12FFF769F80A2305B1286004B123707B
S31508001D3038BDFFF767F80923F6E7FFF760F80B23C6
S31508001D40F2E7FEF7E5FF0E23800AEDE7044840F2C6
S31508001D50EC41FFF71DFE00231846E5E7008000402A
S31508001D60CCAC000838B5124B0546D3F840320C46C1
S31508001D7003F00303022B0BD0032B0DD0012B0FD13D
S31508001D80FFF73AF80A2305B1286004B1237038BD75
S31508001D90FFF738F80923F6E7FFF731F80B23F2E7E0
S31508001DA0044841F22E01FFF7F3FD00231846EAE73F
S31508001DB000800040CCAC000838B5124B0546D3F875
S31508001DC050320C4603F00303022B0FD0032B05D029
S31508001DD0012B0FD1FFF710F80A2302E0FFF70FF8DF
S31508001DE00B2305B1286004B1237038BDFFF70AF844
S31508001DF00923F6E7044840F2CF21FFF7C9FD00237F
S31508001E001846EEE700800040CCAC000838B5124B07
S31508001E100546D3F860310C4603F00303022B0BD0BA
S31508001E20032B0DD0012B0FD1FEF7E6FF0A2305B1D0
S31508001E30286004B1237038BDFEF7E4FF0923F6E7EE
S31508001E40FEF7DDFF0B23F2E7044840F6F661FFF7DD
S31508001E509FFD00231846EAE700800040CCAC000846
S31508001E6070B5440905460E460ED140F205110F48D5
S31508001E70FFF78EFD05F01F05AEB104F5805301206E
S31508001E8000FA05F51D6070BD012C08D0022C08D09B
S31508001E9040F20F110548FFF77BFD0024EAE7044CE2
S31508001EA0E8E7044CE6E704F50053E8E7CCAC00089D
S31508001EB06480004068800040B0F5207F10B534D0BB
S31508001EC009D8B0F5007F2AD003D898B1B0F5C07FFD
S31508001ED010D0002421E0B0F5607FFAD1154BD3F875
S31508001EE08030C3F301149B0617D5032C15D04FF485
S31508001EF0CE610FE00F4B1C6F230B13F00E0FC4F3CC
S31508001F0003340AD0032C08D0072C06D00F2C04D093
S31508001F104FF4CC610848FFF73BFD601C10BD054B2C
S31508001F20D3F89040C4F30464F7E7024B1C6FC4F37C
S31508001F308024F2E700800040CCAC0008002330B5CE
S31508001F40B0F5807F85B00446029300F004816CD812
S31508001F50002800F0E080A0F12004A3B2602B74D81A
S31508001F60602C72D8DFE814F0D700DA00D700DA0060
S31508001F70ED00ED00ED00ED00ED00DA00F2007D0069
S31508001F809A0009017D00DA00DA00DA0071007100B2
S31508001F90710071007100710071001D01DA00DA002C
S31508001FA0DA00AD001301DA007100710071007100EA
S31508001FB0710071007100710071007100710071008B
S31508001FC0B500ED00D700D700D7000E017D007D00D3
S31508001FD01801C1009200CC00CC007100710071009C
S31508001FE0710071007100710071007100710071005B
S31508001FF0710071007100710071007100710071004B
S31508002000710071007100710071007100710071003A
S31508002010710071007100710071007100710071002A
S315080020207100710071007100D100B0F5D06F00F039
S31508002030A48038D8B0F5607F7AD01DD8B0F5007F77
S3150800204076D008D8B0F5C07F65D040F2DB11574886
S31508002050FFF79EFC5CE0B0F5207F5FD0B0F5407FCF
S31508002060F3D1FEF755FE04464FF42070FFF724FF20
S31508002070B4FBF0F040084AE0B0F5B06F66D00AD875
S31508002080B0F5806F5DD0B0F5A06FDED1002102A853
S31508002090FFF748FD3CE0B0F5C06FD6D1002102A895
S315080020A0FFF778FD34E0B0F5206F75D016D8B0F597
S315080020B0106F67D00AD8B0F5E06F68D0B0F5F06F4A
S315080020C0C3D1002102A8FFF7A1FE21E0B0F5186FE1
S315080020D0BBD1002102A8FFF76FFE19E0B0F5306FFB
S315080020E05FD007D8B0F5286FAFD1002102A8FFF757
S315080020F0B3FD0DE0B0F5386FD0D0B0F5406FA4D180
S31508002100002102A8FFF788FC02E0FEF7E7FD02902F
S31508002110029805B030BDFEF7FBFDF8E7FEF7F8FDBF
S3150800212004464FF42070FFF7C7FEB4FBF0F0EEE765
S31508002130FEF7D4FD05462046FFF7BEFEB5FBF0F0D8
S31508002140E5E7002102A8FFF72FFCE1E7002102A836
S31508002150FFF792FCDCE703934FF0E0231B695B076C
S3150800216005D5FEF7D5FD0390039B0293D0E70DF145
S31508002170070103A8FFF70EFDF6E7002102A8FFF7FF
S3150800218091FDC5E7002102A8FFF7BCFDC0E70021C5
S3150800219002A8FFF7E7FDBBE7002102A8FFF724FD29
S315080021A0B6E7002102A8FFF799FCB1E7CCAC000816
S315080021B008B58020FFF7C2FE034B98429EBF4FF436
S315080021C08032024B1A6708BD005A620200A000401E
S315080021D04FF480320F4B70B59A66064600200D46BE
S315080021E0FFF76AFE41F671320B4B7043DC690B4907
S315080021F0DA635A68884204F4803422F4401203D918
S31508002200012D18BF42F480125A600CB10022DA631D
S3150800221070BD00BF0090004000000340005A6202F3
S3150800222008B5FEF787FDBDE808400021FFF7D0BFD7
S31508002230002307B5B0F5807F8DF8023000F0E08006
S3150800224077D8582868D8382806D8243883B2092B6E
S3150800225048D940F2A371C5E039381F28F9D801A337
S3150800226053F820F0C9230008532200085322000817
S3150800227053220008352400088B240008532200083E
S31508002280532200085322000853220008532200084C
S31508002290532200085322000853220008532200083C
S315080022A0532200085322000853220008532200082C
S315080022B0972400085B2300085322000853220008CD
S315080022C053220008A92300085322000853220008B5
S315080022D0A3240008AF240008732400087F240008FC
S315080022E07F2400080928B4D801A353F820F000BFBA
S315080022F05B2300085B2300085B2300085B230008B8
S315080023005B23000853220008ED2300085322000827
S31508002310292400087D23000880289AD1674B1B6F63
S3150800232003F00703013B032B5AD8DFE803F05753A2
S31508002330969EB0F5086F00F0838025D8B0F5C06F7B
S3150800234072D010D8B0F5A06F00F09380B0F5B06FDA
S315080023504CD0B0F5806F7FF47CAF00200DF1020100
S31508002360FFF722FB47E0B0F5E06F00F08E80B0F58E
S31508002370F06F5FD0B0F5D06F7FF46BAF00200DF132
S315080023800201FFF78FFC36E0B0F5286F00F08F806A
S3150800239010D8B0F5186F7ED0B0F5206F00F08180A8
S315080023A0B0F5106F7FF455AF00200DF10201FFF76D
S315080023B0A9FC20E0B0F5386F36D0B0F5406F5ED096
S315080023C0B0F5306F7FF445AF00200DF10201FFF73D
S315080023D085FB10E005238DF802300CE00223FAE7AE
S315080023E040F20B713648FFF7D3FA04E000200DF1EE
S315080023F00201FFF741FB9DF8020003B05DF804FBFC
S3150800240001934FF0E0231B695B0707D5FEF780FCB5
S315080024100C238DF803309DF80330DCE70DF103013A
S3150800242001A8FFF7B7FBF6E700200DF10201FFF759
S31508002430B1FBE0E700200DF10201FFF7E7FCDAE760
S315080024401E4BD3F8003103F00303022B07D0032BEE
S3150800245009D0012B0BD1FEF771FC0323BBE7FEF76E
S31508002460D1FC0923B7E7FEF77FFC0823B3E701236E
S31508002470B1E700200DF10201FFF754FBBBE700208E
S315080024800DF10201FFF7C8FAB5E700200DF10201C8
S31508002490FFF768FCAFE700200DF10201FFF78CFC9F
S315080024A0A9E700200DF10201FFF79EFBA3E7002034
S315080024B00DF10201FFF7D0FB9DE700BF0080004049
S315080024C0CCAC0008F8B5037804460F2B04D940F6BF
S315080024D001417E48FFF75CFA63780F2B04D940F672
S315080024E004417A48FFF754FAA3780F2B04D940F62B
S315080024F007417648FFF74CFAE3780F2B04D940F6E4
S315080025000A417248FFF744FA23790F2B04D940F69B
S315080025100D416E48FFF73CFA63793F2B04D94FF417
S3150800252041616A48FFF734FAA3793F2B04D940F68C
S3150800253013416648FFF72CFAE379032B04D940F6D2
S3150800254016416248FFF724FA237A032B04D940F68A
S3150800255019415E48FFF71CFA637B032B04D940F642
S315080025601C415A48FFF714FA8020FFF761FE03283A
S3150800257000F0A1804FF48012554B564D5A6645F629
S315080025800E034FF08072C5F88030534B9A624FF4B1
S31508002590803203F580539A62AE6D16F48036FBD10D
S315080025A04E4BD3F87C7100F08FFC2B6C83EA17171F
S315080025B007F00F075F402F6400F08AFC63782278E3
S315080025C01B0543EA0263A279454F1343E27843EABF
S315080025D00243227943EA0233627943EA82132B6182
S315080025E0AB69E27A03F000431343E27943EA826374
S315080025F0227A43EA0263627A43EA0243A27A43EA08
S315080026000223AB6100F060FCAB6923F0407343F032
S315080026100073AB6100F05CFC00F056FCAB6B23F476
S31508002620406343F40063AB6300F052FC637B2A6AA1
S31508002630002B18BF0826217B22F00F0243EA02036B
S3150800264043EA8103234946EA03060E62A37BA67C76
S31508002650257C607C8A6A4FEA43134FEAC6062BD16B
S3150800266094F80FC03A4043EA0C131343334343F438
S3150800267080338B621B4B8A6D33EA0202FBD14FF023
S315080026808073154EB3620A69A77822F4700242EA8B
S3150800269007520A614FF00042B2610DB9124A9362BD
S315080026A018B94FF48032104B9A62E37C1BB1094B80
S315080026B00E4AC3F88020F8BD3A403343134343EA31
S315080026C0056343EA00438B62EFE700BFCCAC000822
S315080026D0009000400040004A0050004A0080E00F89
S315080026E0C7FFFEFE030001000060004AF1A7FFFFD6
S315080026F0014B93F9000070473C10002010B5837811
S315080027000446072B04D940F6E9412A48FFF740F961
S31508002710E378032B04D940F6EB412648FFF738F94E
S315080027202378032B04D940F6ED412248FFF730F908
S3150800273094F90130002B04DA40F6EF411D48FFF703
S3150800274027F94FF400011C4A637851664FF4D151BA
S31508002750022002F5B832516218494F2B48604FF0F3
S31508002760010028BF4F2301F5805148601169C9034C
S31508002770FCD4217843EA01235361E378A1781B014D
S3150800278043EA012361790B43217943EA41039360C4
S31508002790E379A1791B0143EA4113617A0B43217A54
S315080027A043EA41035360A37A13B16FF4D1535362DA
S315080027B010BD00BFCCAC00080090004000100240DD
S315080027C0014B1880704700BF3E1000200029CCBF7F
S315080027D001210021FFF7FCBCB0F5207F10B565D0BC
S315080027E00ED8B0F5007F4FD003D800B3B0F5C07F40
S315080027F01DD040F2E161BDE810403448FFF7C8B883
S31508002800B0F5607FF5D14C1E012C06D9042904D0F9
S3150800281040F2C7612D48FFF7BBF82D4AD2F8803041
S3150800282023F0300343EA0413C2F8803010BD1029A0
S3150800283001F1FF3404D8274B23FA01F1CB0704D45E
S3150800284040F29E612148FFF7A3F8FFF7E9FC00F084
S3150800285045F84FF48031204B1D4A1967136F23F44E
S31508002860704343EA04331367FEF752FA0446FFF748
S3150800287090F8C0F102012046FFF7A8FF00F034F8EF
S31508002880BDE81040FFF794BC4C1E1F2C04D940F23B
S31508002890D5610E48FFF77CF80D4BD3F8901021F060
S315080028A0F85141EA0461C3F89010BFE74C1E012CA9
S315080028B004D940F2DB610548FFF76AF8044B196F43
S315080028C021F4806141EA84211967AFE7CCAC00089E
S315080028D000800040160101000090004002214FF4DC
S315080028E02070FFF779BF000008B54FF4C070FFF7F6
S315080028F025FBBDE80840044988428CBF0221012116
S315080029004FF42070FFF768BF80F0FA02B0F5807FB9
S31508002910F8B50C4600F05D8176D8582868D838286E
S3150800292006D8243883B2092B48D940F6662172E1C5
S3150800293039381F28F9D801A353F820F0D72A0008F8
S315080029402B2900082B2900082B290008792C0008B8
S31508002950E92D00082B2900082B2900082B29000837
S315080029602B2900082B2900082B2900082B290008E9
S315080029702B2900082B2900082B2900082B290008D9
S315080029802B2900082B290008152E0008352A0008CF
S315080029902B2900082B2900082B290008A72A00083C
S315080029A02B2900082B290008412E0008812E000833
S315080029B0672D0008AB2D0008AB2D00080928B4D8F0
S315080029C001A353F820F000BF352A0008352A00086D
S315080029D0352A0008352A0008352A00082B29000858
S315080029E0932B00082B2900084D2C00086D2A000897
S315080029F080289AD18B1E062B00F2C080DFE803F0F0
S31508002A00BBACBEC6BEBE8000B0F5086F00F08C81B8
S31508002A1038D8B0F5C06F00F019811BD8B0F5A06F93
S31508002A2000F0A181B0F5B06F00F0B380B0F5806F0B
S31508002A307FF47BAF023CE4B2052C00F2C380B04BB6
S31508002A40195DB04AD2F8203123F007030B43C2F8C8
S31508002A50203180E0B0F5E06F00F0C681B0F5F06F88
S31508002A6000F00A81B0F5D06F7FF45FAF093C052C02
S31508002A7000F22681DFE814F016012B01200124015B
S31508002A8024012201B0F5286F00F0FA8117D8B0F5B5
S31508002A90186F00F0BF81B0F5206F00F0D181B0F556
S31508002AA0106F7FF442AF093C052C00F22081DFE865
S31508002AB014F0100125011A011E011E011C01B0F5B2
S31508002AC0386F00F0C380B0F5406F00F06E81B0F546
S31508002AD0306F7FF42AAF022C00F0E981072C00F052
S31508002AE0E88140F65E218848FEF752FF00228549B4
S31508002AF0D1F8903223F003031343C1F890322AE049
S31508002B00002504264FF480370121022000F03EFA02
S31508002B10FFF786FBFFF7E2FE7C4B7A4A1F67136FC7
S31508002B2023F0070333431367FEF7F2F80646FEF76A
S31508002B3030FFC0F102013046FFF748FE01210020B0
S31508002B4000F07CFAFFF7D0FEFFF732FB1DB9032C25
S31508002B5001D16F4B9F62F8BD4FF480126B4B032671
S31508002B605A664FF480326B4B9D6A03F58053C5F362
S31508002B7000659A62C6E700250126C3E7002540F2EC
S31508002B80DD716148FEF704FF2E46BBE700250226E5
S31508002B90B8E7072C12D00F2C12D0022C05D040F61D
S31508002BA021015948FEF7F4FE0024564AD2F880312E
S31508002BB023F003031C43C2F88041CCE70324F4E75F
S31508002BC00124F2E740F652014F48FEF7E1FE0021E4
S31508002BD037E70C2924D01AD8A1F10904022C18D8F1
S31508002BE04FF48032474B4C49586E03F580535A666A
S31508002BF04B6A43F001034B62C1035CBF474B5A66FD
S31508002C004FF0E022136923F004031361A3E71029A8
S31508002C10E6D040F67A01BDE8F8403B48FEF7B8BE74
S31508002C204FF48032374B3C49586E03F580535A6649
S31508002C304B6A23F001034B62C3035CBF374B5A66EA
S31508002C404FF0E022136943F00403DEE7093CE4B2DF
S31508002C50022C0AD8324B195D2A4AD2F8403123F0A1
S31508002C6003030B43C2F8403175E740F69501264841
S31508002C70FEF78EFE0021EFE7093CE4B2022C0AD8E3
S31508002C80284B195D1F4AD2F8603123F003030B4322
S31508002C90C2F860315FE74FF40B611B48FEF778FE18
S31508002CA00021EFE702221749D1F8003223F0070383
S31508002CB01343C1F800324EE70322F4E70422F2E791
S31508002CC040F6F5011048FEF763FE0022EBE7012205
S31508002CD0E9E702220B49D1F8083223F00703134328
S31508002CE0C1F8083237E70322F4E70422F2E740F690
S31508002CF015110548FEF74CFE0022EBE70122E9E72D
S31508002D0031AD000800800040CCAC000800900040BF
S31508002D100060004A0040004A00C0074000A000408A
S31508002D2037AD000837AD00084C1E082C12D8DFE86E
S31508002D3004F0161118111111110F050002225E492F
S31508002D40D1F8003123F003031343C1F8003102E739
S31508002D500322F4E740F631115848FEF719FE00221F
S31508002D60EDE70122EBE7073C0A2C15D8DFE804F06B
S31508002D70061412101414141414141B0002224E49BB
S31508002D80D1F8203223F007031343C1F82032E2E6D4
S31508002D900322F4E70422F2E740F691114748FEF7CA
S31508002DA0F7FD0022EBE70122E9E7023C052C12D8E1
S31508002DB0DFE804F00D0F1118110304223E49D1F87B
S31508002DC0283123F007031343C1F82831C3E6032249
S31508002DD0F4E70222F2E740F6AD113848FEF7D8FDCF
S31508002DE00022EBE70122E9E7093CE4B2022C0AD803
S31508002DF0334B195D304AD2F8403223F003030B43B4
S31508002E00C2F84032A7E640F6E6112C48FEF7C0FDA8
S31508002E100021EFE7093CE4B2022C0AD8294B195DD8
S31508002E20254AD2F8503223F003030B43C2F8503236
S31508002E3091E640F602212148FEF7AAFD0021EFE7B8
S31508002E400F2C17D012D8022C16D0072C16D040F605
S31508002E501C211A48FEF79CFD00221749D1F860325A
S31508002E6023F007031343C1F8603274E6102CEED141
S31508002E700222F2E70122F0E70322EEE70422ECE75A
S31508002E80102C10D0142C10D040F64A210B48FEF70F
S31508002E907FFD00220849D1F8703223F0030313435B
S31508002EA0C1F8703257E60122F4E70222F2E701225E
S31508002EB01DE602221BE600BF00800040CCAC0008DD
S31508002EC037AD000837AD0008EFF3108072B67047CB
S31508002ED000B962B67047EFF31180302383F3118887
S31508002EE0704780F311887047034B5868C0F3080091
S31508002EF0003818BF0120704700ED00E0EFF310839B
S31508002F00DB0706D4EFF311802F2894BF0020012099
S31508002F107047012070470000024A536B0342FCD1F8
S31508002F20704700BF0040094070477047704700006F
S31508002F300A4A10B51369044643F00403136105F001
S31508002F40E7FAFFF7F2FF30BFFFF7F0FF05F0F4FAF4
S31508002F501CB9BDE81040FDF7DBBE10BD00ED00E072
S31508002F60084A10B51369044643F00403136105F0D3
S31508002F70CFFA30BF05F0E0FA1CB9BDE81040FDF7FE
S31508002F80C7BE10BD00ED00E0704770472DE9F0415F
S31508002F904FF040230446D3F88420D006FBD4D3F858
S31508002FA08430C3F381139C423FD0FDF797FE012C72
S31508002FB005460BD11E4B984204D940F216611D48AE
S31508002FC0FEF7E6FC01212846FFF700FCFFF77CFF29
S31508002FD04FF00072184B07465A662046FFF7A4FFC3
S31508002FE04FF480634FF04026621E9340DFF844801A
S31508002FF03367736E9A0103D4D6F884309B060AD5D4
S315080030003846FFF765FF022C0FD12846BDE8F04188
S315080030100021FFF7DBBBD6F884309906E9D540F2E4
S3150800302024614046FEF7B4FCE3E7BDE8F08100BF43
S31508003030005A62023AAD00080060004007B518B9A8
S315080030400191FDF74BFE0199064B1B7843B1064BE0
S31508003050984205D8012003B05DF804EBFFF796BF48
S315080030600220F8E7EEB10020005A62020278034B0C
S31508003070012100201A70FFF7E1BF00BFEEB1002062
S315080030804FF04022536F417823F4407343EA0123FB
S31508003090536770474FF04022D36E017923F030030F
S315080030A00B43D366704700004FF00042144B10B52F
S315080030B05A664AF6CD3313494C6C0B6404F0010486
S315080030C078B90120FFF728FF4B68DB0704D50E4BBC
S315080030D058600B6BD807FCD514B10A4B0B4A1A6417
S315080030E010BD0B6B1A07FCD42022074B9A620122EB
S315080030F0A3F580535A60034A936A9B06FCD5EBE70F
S315080031000090004000400940006009403254FFFF2B
S315080031104FF0004238B5174B01465A664AF6CD338A
S315080031204FF04022144C656C236443780B205B00F7
S3150800313043F00103D363FFF7EFFE63688A7823F44D
S31508003140F87343EA02136360CA784B7943EA0223A9
S31508003150A3600A798B7943EA022323610878FFF78B
S31508003160A3FFEB0748BF054B4FF0010048BF236498
S3150800317038BD00BF00900040004009403254FFFFB0
S31508003180436D0B42FCD1704708B54368DA0714D57E
S315080031908368DB0702D50369D90707D50A235021B7
S315080031A08363FFF7EDFF836C9A07FCD1012200F5D4
S315080031B000535A6043689B07FCD408BD10B5FFF757
S315080031C0E3FF042300F5805100F500520B611361FB
S315080031D00B6113610B6113610B611361202341F2CB
S315080031E0020103610023C360836041614FF4A0219B
S315080031F0836141620449C36103628362C3624363B4
S315080032000365D164036310BDFF3F0D0338B5194B41
S31508003210044698420D460BD0174B984208D003F542
S315080032208043984204D040F251111448FEF7B0FB8F
S3150800323025B92046BDE83840FFF7A6BF012204F5A8
S3150800324080535A6040F6FF71204605F00F02FFF7DB
S3150800325097FFA2637821FFF793FF05F001036A073A
S3150800326048BF43F00203A26C02F003029A42FAD165
S3150800327038BD00BF0000014B00000A409FAD0008A2
S31508003280836C1B06FCD5C06BC0B27047836C5B06AB
S31508003290FCD541647047836C5A06FCD54164836C3F
S315080032A01B06FCD5C06B80B270470000F8B5054612
S315080032B00C46174622B940F2F5116B48FEF768FB33
S315080032C06A4B9D4200F0C080694B9D4200F0C18068
S315080032D003F580439D4200F0C18040F2FF11624829
S315080032E0FEF756FB44B9604840F22B31FEF750FB17
S315080032F02046FEF723FE0446AB68D9073AD5BC42FA
S3150800330004D240F209215848FEF742FBB4FBF7F312
S315080033106E685C1E16F001072AD028212846FFF79A
S315080033202FFFAB6C9A071DD1AB6CDB071CD4AE6CB8
S3150800333016F002061AD140F21A214B48FEF728FB6E
S315080033402846FFF721FF2B6923F07F4343EA0463EE
S315080033502B61002F00F0878031462846BDE8F840EB
S31508003360FFF754BF0526EBE70926E9E70626E7E750
S315080033703E46E8E76B68012B04D040F22D213A4817
S31508003380FEF706FBA96801F0E001402946D009D8F6
S31508003390B9B1202938D04FF41A71BDE8F84032483F
S315080033A0FEF7F6BA602945D08029F4D107EB470322
S315080033B0A34204D940F262212B48FEF7E9FA012319
S315080033C008E0B7EB141F04D940F24E212648FEF751
S315080033D0DFFA10237B436401B4FBF3F3254E203B4D
S315080033E0B6EBC30F4FEAC30404D240F273211E485A
S315080033F0FEF7CEFA284634400121FFF7C1FE2C63BA
S31508003400BDE8F840FFF7BCBEB7EBD40F04D940F2CD
S3150800341053211548FEF7BCFA0823DBE70626B4FB5A
S31508003420F6F3BB4204D24FF416710F48FEF7B0FA12
S315080034303346CFE7B7EB940F04D940F25D210A482B
S31508003440FEF7A6FA0423C5E7002C7FF455AF5620ED
S315080034504FE7002C7FF450AF57204AE7002C7FF443
S315080034604BAF582045E7F8BD9FAD00080000014B5B
S3150800347000000A40F8FF7F006F4B70B5984204467B
S315080034800D460AD06D4B984207D003F58043984203
S3150800349003D0D6216A48FEF77BFA1DB9D8216848B9
S315080034A0FEF776FA6A7BAB68002A00F09880654AD0
S315080034B0934203D9DA216248FEF76AFA2B692BB1DF
S315080034C0DB7B1BB1DD215E48FEF762FA63682E6975
S315080034D023B140F6FF712046FFF752FE2046FFF75C
S315080034E06DFE22696B7BA97B22F007020B4313430F
S315080034F02361AEB12A692369117823F078030B4357
S31508003500117943EA4113517A43EA0113D17B43EA1D
S3150800351081132361537B117BDB0343EA8123E36039
S31508003520A368EA7B23F00303134343F00103A36074
S3150800353006B32A69A168538803F4C0430B43A36002
S315080035405179A36843EA8123A3609379D079616AA4
S31508003550127A1B01000203F0700300F4E06021F404
S31508003560EE41034321F0700112030B4302F4E042DB
S315080035701343636263692A7B23F00F031343636172
S31508003580B6B12B695A89A2615A7B3AB12A4A944242
S315080035902BD19A7B2C4902F00F024A66DA7B3AB1A4
S315080035A0254A944234D11B7C274A03F00F0313663D
S315080035B0D5E901122046FFF779FE05212046FFF7D7
S315080035C025FE00212046FFF7DBFD2B78A363FFF7D6
S315080035D0D7FDA36CDB4313F4405FFAD170BD1B4AD9
S315080035E093427FF673AFE0216DE7144A944209D0FF
S315080035F002F580429442D1D19A7B134902F00F0218
S31508003600CA67CBE79A7B104902F00F020A67C5E73B
S315080036100A4A944209D002F580429442C8D11B7CDA
S31508003620094A03F00F039367C2E71B7C064A03F0B7
S315080036300F03D366BCE700BF0000014B00000A4039
S315080036409FAD0008002D3101009003408096980038
S31508003650436870B504460D4616461BB140F6FF7121
S31508003660FFF78EFD2046FFF7A9FDE9896B7B6269A6
S315080036700B43298A22F44C520B4322F00F021343C0
S315080036806361A2682B7B297E22F0804222F0E20247
S315080036900B4313436A691343A360AB681BB9A3685A
S315080036A043F00043A360EB69002B64D0A268197A43
S315080036B042EA8152A260A268997A42EA4142A2602D
S315080036C09A88A16802F4C0420A43A260A26859789F
S315080036D042EA8102A260A268597B42EAC102A2605C
S315080036E0A268997B42EA0112A260A268997842EA26
S315080036F08122A260DA799979520242EA8122E2604D
S315080037001A7802F0FD01012908BFE168A2F1020258
S3150800371004BF41F00401E160012A364A4BD89442BD
S3150800372045D0354A944244D034498C420CBF0221D4
S315080037304FF0FF31324A49010A44022151605A7A50
S3150800374004F580518A621AB1E26842F40062E260C6
S31508003750DA7A82B1E268294942F40042E260254AEF
S315080037601B7B9442274A03F00F0308BF53668C421B
S31508003770136708BFD36736B196F8203004F5805131
S315080037805BB301230B6205212046FFF73FFDAA68BC
S315080037901AB120466968FFF789FD20462978FFF7A0
S315080037A035FDA36CDB4313F4405FFAD170BD0021ED
S315080037B0C0E70121BEE794420BD00F4A94420AD0D3
S315080037C00E498C420CBF02214FF0FF310E4A4901C7
S315080037D0B2E70021FAE70121F8E7E26996F8223014
S315080037E096F8210022F009020343134343F001032C
S315080037F0CB61C8E70000014B00000A4000400A40C0
S31508003800C0D4034000900340C0E4034038B5284BB9
S31508003810054698420C463AD08A212648FEF7B8F85B
S31508003820002C35D09D212348FEF7B2F8637B032B85
S3150800383003D9A1211F48FEF7ABF8237B802B03D0C1
S31508003840A3211C48FEF7A4F86369B3F1804F03D09F
S31508003850A5211848FEF79CF8238A23F400539BB247
S31508003860B3F5805F03D0A7211248FEF791F8A36845
S31508003870013BB3F5165F03D3A9210E48FEF788F876
S3150800388021462846BDE838400022FFF7E1BE31B997
S315080038908C210848FEF77CF8054B9D42C2D156207C
S315080038A0FEF7C6FC0938C0B20228BFD9BAE700BF7E
S315080038B00000014B9FAD000838B5154B04469842E9
S315080038C00D460AD0134B984207D003F58043984219
S315080038D003D070211048FEF75BF81DB972210E4817
S315080038E0FEF756F82B7B802B03D176210A48FEF784
S315080038F04FF86B7B032B03D979210748FEF748F865
S3150800390029462046BDE838400022FFF7A1BE00BF81
S315080039100000014B00000A409FAD000838B50D466F
S315080039200446B0B1012817D0022817D0032803D1BE
S315080039303F23EB40DB0704D440F213410948FEF766
S3150800394027F8302001214443074B01FA05F51D519C
S3150800395038BD40F2FF73ECE70F23EAE740F2FF3386
S31508003960E7E700BF40AA000840D0034038B50D4637
S315080039700446B0B1012817D0022817D0032803D16E
S315080039803F23EB40DB0704D44FF479710948FDF770
S31508003990FFFF302001214443074B01FA05F51D516D
S315080039A038BD40F2FF73ECE70F23EAE740F2FF3336
S315080039B0E7E700BF40AA000840E003402DE9F041D0
S315080039C00D4616461F46804678B3012830D0022891
S315080039D030D0032803D13F23EB40DB0704D440F261
S315080039E01D112148FDF7D4FF26B12946404627B3C5
S315080039F0FFF794FF302404FB08F4072D04F18044F4
S31508003A0004F570341CD80F21636BAA00914023EA91
S31508003A10010306FA02F21343636316BB29464046BE
S31508003A20DFB1BDE8F041FFF779BF40F2FF73D3E796
S31508003A300F23D1E740F2FF33CEE7FFF797FFD9E729
S31508003A400F21A5F10803E26B9B00994022EA0102C7
S31508003A5006FA03F31343E363DFE7BDE8F041FFF734
S31508003A6085BFBDE8F08100BF07AE00084369DA01EB
S31508003A70FCD4012300F50050024A436053689B07B3
S31508003A80FCD4704700400049022A10B54FF00004E4
S31508003A9005D9033A022A0CD90360047110BD11F442
S31508003AA0000218BF4FF07F4221F07F4313430C0EEC
S31508003AB0F2E721F0FF03CCB2EEE7000038B5134B6E
S31508003AC0044698420D4604D040F295211048FDF769
S31508003AD05FFF012104F5805362685960AB78298835
S31508003AE01B0403F480330B43E978002914BF4FF411
S31508003AF0003100210B43C4F89830D30704D420467C
S31508003B00BDE83840FFF7B2BF38BD00BF00400049E6
S31508003B106DAE0008294B70B5984206460C46154608
S31508003B2004D040F25D212648FDF732FFA378062B24
S31508003B3004D94FF418712248FDF72AFF3046FFF7DB
S31508003B4095FF2378304603F007026378002BA378A5
S31508003B5018BF08214FEA031303F0700343EA020370
S31508003B60E27808BF0021002A14BF4FF480720022B1
S31508003B700B4313433367F26A237922F48B321B0211
S31508003B8022F4807203F4E063134362792946120330
S31508003B9002F480521343A279002A14BF4FF48032EC
S31508003BA000221343F362FFF789FF012206F58053CB
S31508003BB05A60E37903B1F26070BD00BF0040004966
S31508003BC06DAE0008F8B52E4B0446984204D040F274
S31508003BD012312C48FDF7DCFE012204F580535A60A9
S31508003BE0294B2A4AE36063691340FCD1A361C4F8F0
S31508003BF09830636913F4401FFBD16369DA052DD445
S31508003C00A36F5BBB63699B052AD4D4F8881039BBBC
S31508003C102046E36FD4F88C30FFF728FF3023184A84
S31508003C20A16094420CBF02220022216142F2600583
S31508003C30E1620F4621622367C4F880300B46144EB2
S31508003C40934210D100220E4B9C4201D1102911D16A
S31508003C50104B04F500546362A362F8BD636FCCE7AA
S31508003C60D4F88430CEE704EB031085640133066587
S31508003C704765E5E701F1280044F820200131E3E72C
S31508003C80004000496DAE0008120002005200010013
S31508003C9000C002808F330F800F4B10B598420C4638
S31508003CA004D04FF45A710D48FDF772FE34B92A2034
S31508003CB0FEF744F9012838BF01200446084804F5F0
S31508003CC0742404F23F24B4FBF0F4601E7F2828BF56
S31508003CD07F20C0B210BD00BF004000496DAE00088D
S31508003CE040420F0038B5134B0C469842154604D08F
S31508003CF040F29B311048FDF74BFE24B94FF467712B
S31508003D000D48FDF745FE0D498C4228BF0C461DB9E6
S31508003D102A20FEF713F90546621E1544B5FBF4F092
S31508003D20A54228BF00F1FF30032828BF0320C0B2F0
S31508003D3038BD00BF004000496DAE0008005A620257
S31508003D40F8B51F46184B0E469842144604D040F262
S31508003D50D5311648FDF71CFE26B940F2D631134870
S31508003D60FDF716FE124A134D002F08BF1546B54239
S31508003D7028BF35461CB92A20FEF7E0F804469DF808
S31508003D80182040F2FF330132B4FBF2F46A1E1444E1
S31508003D90B4FBF5F0AC4228BF00F1FF30984228BFCB
S31508003DA01846C0B2F8BD00BF004000496DAE000815
S31508003DB080969800404B4C002DE9F04FB54B0446D1
S31508003DC098420E46154685B003D0D321B248FDF772
S31508003DD0DFFD0022B1492046FFF784FF7379984238
S31508003DE038BF18465FFA80F82046FFF73FFE31795C
S31508003DF019B92046FFF750FF0146F3784FEA0872D3
S31508003E001B0102F0E04203F0300313430804327842
S31508003E1000F4FE0003430AB143F0020372780AB1C4
S31508003E2043F00403B2780AB143F008030027A360FD
S31508003E30F388328923617389DFF8589243EA02438B
S31508003E40DFF87CB223624C4501D1022F06D101234B
S31508003E5004F58054636005B0BDE8F08F00222B7826
S31508003E608F489049AE68934218BF0146CDF8008046
S31508003E7088480393FFF764FFF2B2824238BF0246CE
S31508003E8004EB0710039B1646826C03F0030C02EA48
S31508003E900B024CEA020295F801C039014FEA8C0C74
S31508003EA00CF01C0C42EA0C0295F802C04FEA0C3CD6
S31508003EB00CF4E04C42EA0C0295F803C04FEA0C4CAD
S31508003EC00CF4E02C42EA0C0295F810C04FEA4C5C60
S31508003ED00CF4600C42EA0C0295F804C04FEA0C7C1C
S31508003EE00CF0405C42EA0C028264806C6E4AC0F3B5
S31508003EF00230052800F28980DFE800F08787878787
S31508003F000303D2F8842107F1050A002B40F0BC8090
S31508003F1009EB0103986CC0F30230431E012B624B78
S31508003F2076D8DFED627AD3F8800180B24944896C8D
S31508003F3020F4C043C1F3820E01210EF1010C01FAEF
S31508003F400CF107EE101A02044FEA8343B8EEC76A6B
S31508003F50F6EE006A544A48BF43F00043BEF1000F2C
S31508003F6074D1D2F88C1109B207EE101AB8EEC77AD6
S31508003F7077EE877A95ED037A9FED4D5AB8EE477A34
S31508003F80C7EE055AB7EE045A85EE257ADFED495A8B
S31508003F9067EE277A85EE867A9FED476A27EE067AD8
S31508003FA0B1EE006AB3F1004F07EE867A0BD09FEDAB
S31508003FB0436A07EE900A77EE065AFAEEE87AB0EE0A
S31508003FC0467A17EEA57AB5EEC07AF1EE10FACABFB0
S31508003FD0B1EE477A36EEC77A37EE667AFDEEC77ADD
S31508003FE017EE901AB1F5003F45DB6FEA53436FEAC7
S31508003FF043434FEA0A1149F80130C6F3090609EBAB
S315080040000A125660013714351DE7D2F880217AE77F
S3150800401003280AD1D3F88001D3F88C31000C1B147D
S3150800402007EE903AF8EEE77A80E70428D3F8840199
S315080040300BBFD3F88C31D3F88C311B141B1407BF74
S3150800404080B25B00000C03EB4303E9E7D2F890115A
S3150800405066EE265A09B207EE101AB8EEC77A77EE58
S31508004060677AD2F8881187EEA57A0AB207EE902AFF
S31508004070F8EEE77A7CE711F5003FAABFC1F3110114
S3150800408043F400330B43B4E74FF4F5710248FDF7E8
S315080040907FFCB2E7004000496DAE0008005A620294
S315080040A0404B4C00809698000080E00F000000000E
S315080040B000007A44000080430000204400000049C4
S315080040C0E08F18CF08B50A6F496F02F00702FFF7AD
S315080040D0DBFC08BD10B5044618B98D211F48FDF74D
S315080040E057FC23781B0613F0604F03D08E211B481C
S315080040F0FDF74EFCE3780F2B03D99F211748FDF7F0
S3150800410047FC01212020FDF7ABFE01212120FDF708
S31508004110A7FE0122124B5A60227812069A6061782D
S31508004120A27842EA01429A61FF229A6200229A63C1
S315080041301A644FF000425A654FF0FF324FF480017F
S3150800414003F500531A65074AC2F88011E3781B0184
S31508004150DBB282F81633116010BD00BFD3AE00087B
S315080041600000044000E100E02DE9F0410126C3B259
S31508004170072805460C46904606FA03F603DDE621AF
S315080041803648FDF705FC1CB9E7213448FDF700FC65
S31508004190236823F47C1323F00F031BB1EA212F486D
S315080041A0FDF7F6FBA37A1B0413F47C0F04D040F248
S315080041B003112A48FDF7ECFBE37A1B0513F07E6F23
S315080041C004D040F205112548FDF7E2FB237B5B0589
S315080041D013F0FE5F04D040F207112048FDF7D8FB24
S315080041E030201F4FAB0000FB0575627B216803F189
S315080041F0402303F5802359602A66E37AA27A1B05D1
S3150800420043EA0243227B43EA4253EB65154B28F007
S3150800421003022A671E65FEF75EFE7B6D33437B65E8
S31508004220237A13B13B6C33433B64637A13B1BB6B9C
S315080042303343BB632279A37943EA0243094A93616C
S315080042406179E37943EA014307498B61044B566375
S315080042509E64BDE8F041FEF744BE00BFD3AE000839
S3150800426000000440002004400010044070B50646D3
S315080042700C46154622B94FF422710C48FDF788FB07
S3150800428024B94FF42070FDF759FE04466D00013C31
S31508004290B4FBF5F4064B250213EA042304D040F2D6
S315080042A0A5210248FDF774FBF56170BD9EAF0008B5
S315080042B0070080FF124B10B59842044604D040F21E
S315080042C02E411048FDF764FB012104F5805359601F
S315080042D040F6AA6341F20502636100230A48A36017
S315080042E0E365E26004F500522361E361E3649064E8
S315080042F00348A365844204BF23656365516010BD06
S3150800430000C005409EAF0008FFFF010038B52A4BE4
S31508004310044698420D4604D04FF456712748FDF7D7
S3150800432037FB2046FFF7C6FF0122A97B04F5805319
S315080043305A602A8AA368002914BF4FF480610021B5
S3150800434042F0010213432A7D0B43002A14BF4FF0A3
S3150800435000520022A360A3681343A360AB7C5BB141
S31508004360154B9C4202BFEA7CA3F51033C3F8D4214F
S31508004370E36D43F08003E3652B7B2046D5E9011204
S3150800438043F48053E360FFF771FF6B7B0BB1102397
S3150800439063616B7D1BB1A36843F48033A360AB7D77
S315080043A0EA7D1B07120503F0E04302F4E00213431B
S315080043B0A3652B78636138BD00C005409EAF000831
S315080043C02DE9F0470646DDE90884154699468A46EA
S315080043D0344F41B9082323704FF4D963A360324B95
S315080043E06760E360FEE75AB1531E134208D00823FC
S315080043F0237040F2CB63A3602B4B6760E360FEE754
S31508004400FEF769FD002D08BF04254D4538BF4D460A
S31508004410D6F808E06B1E13EA0E0FC5F1000208BFB6
S31508004420002502EA0E02154409F1FF33AA4413EAED
S315080044300A0FC9F1000208BF4FF0000902EA0A0292
S3150800444002EB0903726884460132A2EB0E01A3EB64
S315080044500E0E714515491AD2B8F1000F02D09B1AF3
S31508004460C8F80030162540F222732570C4E90231D7
S3150800447060466760FEF735FD40F2D7632570002574
S31508004480A360094B6760E3602846BDE8F087B36020
S31508004490002323704FF4E5636760C4E90231FEF731
S315080044A020FDF1E705B0000896B000087EB00008C8
S315080044B030B50C461D46114685B01BB9039200F06F
S315080044C019F8039900230648009304220123002CB7
S315080044D018BF20460195FFF773FF05B030BD00BF32
S315080044E0401000200022024B1A6002F0BFBA00BF3B
S315080044F0F0D50020FEE70000014B1860704700BFAA
S31508004500F0D500201FB50C4B1B78012B0AD1FEF7FE
S31508004510EBFC002814BF6FF005004FF0FF3005B024
S315080045205DF804FB684600F093FB9DF80000003830
S3150800453018BF01204042F2E7FCD90020084B187842
S3150800454001280AD1074B1B78012B07D1064B1B788C
S31508004550002B14BF0320022070470020704700BFBD
S31508004560DED60020FCD90020FDD900201FB5FEF7B5
S31508004570BBFC48B9074B1B78012B02D0684600F0F4
S315080045806DFA4FF0FF3001E06FF0050005B05DF8F9
S3150800459004FB00BFFCD9002030B585B00546FEF700
S315080045A0A3FC18B10024204605B030BDC5B930209B
S315080045B005F0E8F904460028F4D00123184980F8E4
S315080045C02C306A46204601F065FA9DF80030FBB1AA
S315080045D094F82C30012BE5D1204605F0DBF9E1E70C
S315080045E0AC6874B9302005F0CDF904460028D9D056
S315080045F0012384F82C302968094B002908BF19467D
S31508004600DFE7EB682F2BCDD914F00303F1D0C9E708
S315080046106B6813F0010318BF012384F82D30C2E735
S31508004620ABB0000830B589B005460C46FEF75CFC11
S31508004630024618BB2DB3B4B1631C00D1044604ABC3
S315080046400093214603AB284601F002F99DF8103085
S31508004650222B19D0232B09D0002B14BF6FF0020090
S31508004660002009B030BD4FF40042E8E795F82D3038
S31508004670002B14BF00206FF00200F2E76FF0050070
S31508004680EFE76FF00300ECE76FF00100E9E71FB50D
S315080046900446FEF729FC014670B984B120466A46ED
S315080046A001F026FB9DF8000020B1232814BF6FF007
S315080046B00200002004B010BD6FF00500FAE76FF0A5
S315080046C00300F7E730B585B00546FEF70DFC88B957
S315080046D0A5B16A460121284601F054FA9DF8004022
S315080046E07CB995F82C30012B02D1284605F052F9F1
S315080046F0204601E06FF0050005B030BD6FF00300FD
S31508004700FAE76FF00200F7E77FB504460E4615464E
S31508004710FEF7EAFB18B10024204604B070BD002C51
S31508004720F9D0D5B92C2005F02DF904460028F2D089
S315080047300123164980F824306B463246204601F09C
S3150800474095FD9DF80030002BE6D094F82430012B17
S31508004750E1D1204605F01EF9DDE7AC6874B92C20D6
S3150800476005F010F904460028D5D0012384F8243032
S315080047702968064B002908BF1946DDE7EB682B2B8D
S31508004780C9D914F00303F1D0C5E700BFB1B00008DA
S3150800479030B50C46054689B018B96FF0030009B064
S315080047A030BD89B94FF4004204AB009303AB01F066
S315080047B0D7FB9DF810000028F1D0222814BF6FF00F
S315080047C002006FF00100EAE7FEF78EFB02460028BA
S315080047D0E3D1631C04AB009314BF2146002128468D
S315080047E003ABE4E71FB568B16A46002101F092FC05
S315080047F09DF80030002B0CBF00206FF0020005B0BA
S315080048005DF804FB6FF00300F9E710B5044620B124
S31508004810FEF75AFB246AFEF75BFB204610BD30B54F
S3150800482085B00546FEF760FB88B9A5B16A46012141
S31508004830284601F07DFD9DF800407CB995F82430A6
S31508004840012B02D1284605F0A5F8204601E06FF0B5
S31508004850050005B030BD6FF00300FAE76FF00200FF
S31508004860F7E7000008B5FEF73FFB30B9044B1B78A5
S31508004870012B01D1034B186808BD0020FCE700BFD7
S31508004880FCD9002008DA0020704700002DE9F04125
S31508004890224B1B78012B00D0FEE7214B1F78002FF7
S315080048A039D1FEF718FB1F4D044695F8008001F034
S315080048B019FB402803461C4E28701BD00C20434386
S315080048C01A4AB8F1400FD358336001D100E000BF4F
S315080048D0174F32683B689A420DD1002001F076FEE8
S315080048E0012802D0386802F00FF92046BDE8F041E9
S315080048F0FEF7F7BA37600F4A1368013313602B784F
S31508004900402B01D100E000BF02F0BFF92046FEF7B8
S31508004910E8FABFF36F8FBDE8F08100BFFCD900202D
S31508004920FDD90020F3D600200CDA0020FCD60020A2
S3150800493008DA002010DA00202DE9F041044608B90B
S31508004940FFF7D8FDFEF7D0FA194E0746194D38B1CC
S315080049502023237040F21933C4E902356660FEE766
S31508004960154B1B78012B08D00223237040F21D3308
S315080049706660C4E90235BDE8F081DFF8408098F842
S315080049800030F92B05D91E236660237040F22233C6
S31508004990EFE7FEF7A0FA98F80030013388F8003000
S315080049A0FEF79FFA40F22D3327706660E1E700BFF5
S315080049B0C0B0000880B10008FCD90020FDD900204D
S315080049C02DE9F041044608B9FFF794FDFEF78CFA85
S315080049D01E4F1F4E38B12023237040F24533C4E9D9
S315080049E002366760FEE71B4B1B78012B08D00223B3
S315080049F0237040F249336760C4E90236BDE8F081A6
S31508004A00DFF8548098F800302BB91F2367602370AD
S31508004A1040F24E33F0E7FEF75EFA98F80050013D93
S31508004A20EDB288F800503DB1FEF75BFA2D236760BA
S31508004A30237040F25633DFE7FEF753FAFFF726FFF7
S31508004A404FF4587325706760D6E700BFC0B00008FA
S31508004A5072B10008FCD90020FDD9002070B50446C3
S31508004A6008B9FFF747FD254B1E78012E09D01323F9
S31508004A702370234B636040F2F633A360214BE36057
S31508004A80FEE7214B1B884BB9092323701C4B636037
S31508004A9040F20143A3601B4BE360FEE71B4D2B78F6
S31508004AA04BB11F232370164B636040F20443A36087
S31508004AB0144BE360FEE7FEF721FA48B11F23237083
S31508004AC00F4B636040F20743A3600E4BE360FEE7BB
S31508004AD001F008FA0E4B0F4A18700F4B2E7018701B
S31508004AE00C2358430D4B1B5813600D4A136002F0F4
S31508004AF085F8BDE87040FFF7FDBC00BFDED6002094
S31508004B00C0B000086AB1000818DA0020FCD90020F5
S31508004B10F3D600200CDA0020F2D60020FCD60020BE
S31508004B2008DA002008B501F0DDF9A0F14003584283
S31508004B30584108BD30B14368C1F88C308368DB68DA
S31508004B40C361704791F83030022B03D0072B05D08C
S31508004B50034B00E0034BC1F88C307047024BFAE771
S31508004B6030B9000835B100083CB10008044BC1F85B
S31508004B708C3018B1826802B1D368C361704700BF30
S31508004B8030B900080023C0E9003303817047036881
S31508004B9010B533B901220281C1E9093301604160C8
S31508004BA01CE0028991F833400132028193F83320E0
S31508004BB0A2420CD85B6A002BF8D14B6243688B6221
S31508004BC05962ECE7C1E909325162996206E09A6ACC
S31508004BD0002AF7D1C1E909329962016010BDC36A9A
S31508004BE05BB19A68526A4AB9C3E902221A8A013A3B
S31508004BF01A820023C0E90933C3627047D0E9092144
S31508004C0011B991629A60F1E74A620AB9D960EDE78B
S31508004C109162EBE738B5C56AAB685B6A4BB1FFF7DB
S31508004C20DEFFC562014605F10800BDE83840FFF71A
S31508004C30AEBF38BD40220021044B013AC3E900113A
S31508004C40198103F10C03F8D1704700BFFCD6002088
S31508004C5070B5044608B9FFF74DFC424D6A68D2B1F3
S31508004C602B68414E4BB92346296B40489200FFF703
S31508004C701FFC306023780BB170BD336032683C4B43
S31508004C803C491A606B683C4A13603C4A9B001360B7
S31508004C900A6813440B602A89BAB10C262346724364
S31508004CA0296B3748FFF704FC364B18602378002B2E
S31508004CB0E2D1354B354A18602B892E491380734348
S31508004CC0334A13600A6813440B6001F0FFFE0023A1
S31508004CD0304A29491370304A1370304A1360304AF3
S31508004CE01360304A1370304A13700A6852B120486C
S31508004CF0006838B10546013A45F8043BFBD1096816
S31508004D0001F078FC0025294B1D7001F0E3F8FFF748
S31508004D1091FF274B1D60274B1D801C4B1B88D3B961
S31508004D200023254A20461360244A1380244A136028
S31508004D30244A1380244A1360244A138001F0EEFBA8
S31508004D402378002B98D100F053F9FFF79DFD012237
S31508004D501F4B1A7090E7204600F026FD2378002B9B
S31508004D60DED089E754100020F8D5002045B10008A8
S31508004D70FCD50020F4D5002000D6002004D600205B
S31508004D8058B1000808D600200CD6002010D60020FE
S31508004D9014D60020FCD90020FDD9002008DA00200E
S31508004DA00CDA0020F2D60020F3D600201ADA00200A
S31508004DB0D8D60020DCD60020ECD60020F0D600207D
S31508004DC0F4D60020F8D6002000DA002004DA002005
S31508004DD0DED600200C2290F833300B495343CA58CC
S31508004DE030B5CC1832B901252581C0E90422C8504E
S31508004DF0606030BD25890135258100240261446142
S31508004E005061C850F5E700BFFCD600200C2390F887
S31508004E1033200B495A4330B58C588B1834B90125C1
S31508004E201D81C0E904448850586030BD1A89013292
S31508004E301A81002202615A6842611061F4E700BFD4
S31508004E40FCD6002010B5044690F8330001F05AF855
S31508004E50074B94F833201B7820469A4203D1BDE8C5
S31508004E601040FFF7D3BFBDE81040FFF7B3BF00BF40
S31508004E70F2D6002090F8323070B504461546072B56
S31508004E8022D8DFE803F012120404121213130026C4
S31508004E908664A0F84C60FFF7A2FEFFF7D3FF84F8FC
S31508004EA0326084F8315084F8306070BD002686641C
S31508004EB0A0F84C60FFF793FE042380F8315080F881
S31508004EC0323080F83060F0E7BDE87040FFF712BB7B
S31508004ED038B50C4691F832100546072907D8023925
S31508004EE0052906D8DFE801F0060605051919FF2980
S31508004EF024D138BDA264A4F84C3015B12046FFF77A
S31508004F006EFE21462846FFF731FE2046FFF79AFF38
S31508004F100023238684F83230EBE7A264A4F84C30E9
S31508004F2015B12046FFF75BFE21462846FFF71EFE11
S31508004F3000232386042384F83230DAE7BDE83840B4
S31508004F40FFF7D8BA70B504460C21D4E9043590F8B1
S31508004F503300104A9DB953B9414355182B81535014
S31508004F606B6000F0E5FF0023C4E9043370BD4843D5
S31508004F7016183189013931815D611350F3E701FB58
S31508004F8000221189013911812B610BB95560EAE7B5
S31508004F905D61E8E7FCD6002010B5044631B1FFF79D
S31508004FA0A9FA2046BDE81040FFF7CCBF022380F8D7
S31508004FB03230F6E738B5002304460C4D286880F8E9
S31508004FC0301080F831301146FFF7E6FF5CB12968EA
S31508004FD004F10800CC62FFF7DAFD20462968BDE82F
S31508004FE03840FFF7A7BD2B68DC62F6E708DA002031
S31508004FF0754B82B01B78DBB28DF80530734B1B6896
S31508005000DBB28DF80730724B1B78DBB28DF80530B2
S31508005010704B1B78DBB28DF805306F4B1B68DBB223
S315080050208DF807306D4B1B6ADBB28DF807306C4B79
S315080050301B78DBB28DF805306A4B1B78DBB28DF82E
S315080050400530694B1B88DBB28DF80630674B1B8829
S31508005050DBB28DF80630664B1B78DBB28DF805306F
S31508005060644B1B88DBB28DF80630634B1B88DBB2BA
S315080050708DF80630614B1B88DBB28DF80630604B25
S3150800508093F82830DBB28DF807305E4B1B78DBB21D
S315080050908DF805305C4B1B88DBB28DF806305B4B10
S315080050A01B88DBB28DF80630594B1B88DBB28DF8AE
S315080050B00630584B1B88DBB28DF80630564B1B88DA
S315080050C0DBB28DF80630554B1B88DBB28DF80630FF
S315080050D0534B5B8DDBB28DF80730524B1B78DBB236
S315080050E08DF80530504B1B88DBB28DF806304F4BD8
S315080050F01B78DBB28DF806304D4B1B6ADBB28DF898
S3150800510007304C4B1B78DBB28DF805304A4B1B88B1
S31508005110DBB28DF80630494B1B88DBB28DF80630BA
S31508005120474B1B68DBB28DF80730464B1B78DBB262
S315080051308DF80630444B1B78DBB28DF80530434BAF
S315080051401B78DBB28DF80530414B1B78DBB28DF846
S315080051500530404B1B78DBB28DF805303E4B1B788B
S31508005160DBB28DF805303D4B1B78DBB28DF8053088
S315080051703B4B1B88DBB28DF806303A4B1B78DBB20B
S315080051808DF80530384B1B88DBB28DF80630374B67
S315080051901B88DBB28DF80630354B1B78DBB28DF8F1
S315080051A00530344B1B88DBB28DF80630324B1B8832
S315080051B0DBB28DF806309DF805309DF806309DF86F
S315080051C0073002B0704700BF9410002090100020EE
S315080051D08C10002018D60020981000201CD600201D
S315080051E09C10002040D600209E100020A010002011
S315080051F0A2100020A8100020A4100020A61000204D
S3150800520044D60020AA100020AC100020AE100020C2
S31508005210B0100020B2100020B4100020B6100020F4
S3150800522070D60020B8100020BA100020A0D60020A2
S31508005230A4D60020C4100020C6100020BC100020F0
S31508005240C0100020C8100020C8D60020C9D60020EB
S31508005250CC100020CD100020CE100020CAD6002089
S31508005260D0100020D2100020CA100020D410002030
S31508005270CBD60020CCD60020D610002010B4064C81
S315080052802468A4F874200022E166226701211A46E0
S315080052905DF8044BFFF78EBE08DA00202DE9F74FBC
S315080052A00D9C05468B4617469A460CB9FFF722F918
S315080052B00FFA8AF3002B0093C0F23581FDF714FE2E
S315080052C0002800F02B8120232370A04B636040F256
S315080052D03513A3609E4BE360FEE71F2323709B4BA9
S315080052E0636040F23913A360994BE360FEE702233B
S315080052F02370964B63604FF49F73A360944BE360EF
S315080053004FF0000856E047F6FF630AEA0303581E03
S3150800531001280DD9042B0BD0082B09D0082323709C
S315080053208A4B63604FF4A373A360894BE360FEE77F
S315080053302868884B984209D00C232370834B6360F6
S315080053404FF4AC73A360824BE360FEE70AF4807304
S3150800535001930C9B13B100230C9A1360FDF7BBFD58
S315080053600AF00F09B9F1040F064607D0B9F1080F7C
S315080053703DD0FDF7B6FDFFF7BDF871E02A6A3BEAB6
S31508005380020302EA0B0819D1019B13B122EA0802AB
S315080053902A62714A12680AB1C2F870803046FDF76F
S315080053A0A0FD00222270694A62604FF4BB72A260B7
S315080053B0674AE260404603B0BDE8F08F009B002BC9
S315080053C008DAFDF78EFD1D232370604B636040F2FB
S315080053D07D1392E7614B1B78002B38D0FDF781FDD2
S315080053E02D232370594B63604FF4C27385E72A6AED
S315080053F012EA0B0813D0019B13B122EA08022A62AB
S31508005400554A12680AB1C2F870803046FDF769FD40
S31508005410002222704D4A62604FF4D172C7E7009BA2
S31508005420002B08DAFDF75DFD1D222270474A6260EF
S3150800543040F2A912BBE7494B1B7843B1FDF751FD72
S315080054402D222270414A62604FF4D872AFE728468F
S315080054503B4652465946FFF711FF3046FDF741FDD8
S315080054603D4EFFF713FAFDF736FD336893F8312002
S315080054700023032A41D8DFE802F00222372B2370E3
S31508005480324B636040F22D23A360314BE3603368EF
S31508005490D3F87080019B4BB1B9F1040F02D0B9F172
S315080054A0080F34D12A6A22EA08022A62FDF719FD92
S315080054B000222270254A626040F26F2277E7FDF7E4
S315080054C010FD21232370214B63604FF40E7314E7FC
S315080054D00C9A02B11360FDF704FD222323701B4BBF
S315080054E0636040F2412308E7FDF7FBFC3123237094
S315080054F0164B63604FF41373FFE60090FDF7F1FC5B
